:020000040800F2
:100000000000022095100008DB100008DD10000839
:10001000DF100008E1100008E310000800000000F5
:10002000000000000000000000000000E5100008D3
:10003000E710000800000000E51200084115000864
:10004000EF100008F1100008F3100008F510000888
:10005000F7100008F9100008FB100008FD10000858
:10006000FF10000801110008031100080511000825
:1000700007110008091100080B1100080D110008F4
:100080000F110008111100081311000815110008C4
:1000900017110008191100081B1100081D11000894
:1000A0001F11000821110008231100082511000864
:1000B00027110008291100082B1100082D11000834
:1000C0002F11000831110008331100083511000804
:1000D000371100085D0400083B1100083D110008BD
:1000E0003F110008411100084311000845110008A4
:1000F00047110008491100084B1100084D11000874
:100100004F11000851110008531100085511000843
:1001100057110008591100085B1100085D11000813
:100120005F110008611100086311000865110008E3
:1001300067110008691100086B1100086D110008B3
:100140006F11000871110008731100087511000883
:1001500077110008791100087B1100087D11000853
:100160007F11000881110008831100088511000823
:1001700087110008891100088B1100088D110008F3
:100180008F1100089111000810B5054C237833B980
:10019000044B13B10448AFF300800123237010BD5A
:1001A000B400002000000000F45B0008084B10B50C
:1001B0001BB108490848AFF300800848036803B939
:1001C00010BD074B002BFBD0BDE81040184700BF07
:1001D00000000000B8000020F45B0008B40000201C
:1001E00000000000154B002B08BF134B9D46A3F5E4
:1001F000803A00218B460F461348144A121A02F027
:10020000B6FC0F4B002B00D098470E4B002B00D0B4
:1002100098470020002104000D000D48002802D05E
:100220000C48AFF3008002F071FC2000290000F0C0
:1002300013FF02F057FC00BF00000800000002207E
:100240000000000000000000B4000020E442002094
:10025000000000000000000010B5012182B0102055
:1002600000F0A0FC4FF460440023012269460748D7
:1002700000948DF804208DF806308DF805308DF847
:10028000073000F0D9FB02B010BD00BF00100240E3
:100290002DE9F04196B00E464FF4800001219846BA
:1002A00017469DF8705000F07DFC0121084600F0D3
:1002B00079FC0121102000F083FC4F4800F0AAFCDB
:1002C000072209214D4800F00BFC07220A214B4868
:1002D00000F006FC4FF400730222002401A90193F0
:1002E00046488DF8082001238DF80A408DF8094012
:1002F0008DF80B3000F0A0FB4FF4806301A93F485C
:10030000019300F099FB03A800F04AFDB8F1020F39
:1003100014BF22464FF40052092F14BF23464FF456
:100320008053022DADF8103098BF354B324898BF3E
:1003300033F8154003960C2303A9ADF81630ADF839
:100340001220ADF8144000F0C9FC012280212A4897
:100350002C4F00F047FD012240F22551264800F0C5
:100360004BFD0121244800F027FD00240123032533
:10037000252268468DF803308DF800208DF8015055
:100380008DF8024000F010FA4FF4C0621E491F4879
:1003900000F0D2F84FF4C0621D491E4800F0CCF8BE
:1003A0001D4800F039FA21461B4800F00BFB07A856
:1003B00000F0F6FA4FF00062184B139507A9079268
:1003C00008934FF4003204231348119240264FF44F
:1003D000806512930B940C940E940F9410940997CB
:1003E0000A960D9500F0B0FA21460B4800F0F4FA99
:1003F00016B0BDE8F08100BF0010014000000240CF
:1004000068580008F0000020F00C0020D000002008
:10041000F0060020E0000020B86402400410014013
:1004200000B540F2255183B00A4800F007FD70B1D5
:10043000084800F0D3FC02A9012201F8010D06488A
:1004400000F086F89DF80710024800F0C3FC03B0E6
:100450005DF804FB00100140D00000200020FFF7F1
:10046000DFBF00BF10B50348144600F071F8204606
:1004700010BD00BFE000002008B5164B5A689B680D
:100480009A4225D0144800F0B3FAE8B1402113484D
:1004900000F0D0FC4FF4806211490E4800F084F85F
:1004A00000210D4800F08EFA4FF020510A4800F06C
:1004B000C1FA4FF48061084800F098FA012106481B
:1004C000BDE8084000F07EBA034800F095FADDE789
:1004D00008BD00BFE0000020B864024000100140E9
:1004E000F000002030B583B004460D46009103466D
:1004F0000D220A210F4800F0E5F808B103B030BD25
:10050000009523460A220D210A4800F0DBF8002856
:10051000F4D12B4622460D21064800F06DF8002844
:10052000ECD104482B4622460A2103B0BDE83040F6
:1005300000F062B8D000002010B111B112B9FEE78E
:10054000FEE7FEE70260C160416081600020704705
:1005500031B3034628B3406820B3986818B3F0B4A9
:100560008F18B94219D09C68651C9D6011F8015B19
:100570002570DE681D689C683544AC425D6824BF08
:100580009E603446AC42ECD1186801343044844259
:100590005C6028BF5E60B942E5D11046F0BC704790
:1005A000FEE7FEE7FEE7FEE711B3034608B370B4CB
:1005B0004468FCB18668F6B14D1E002012E09042FE
:1005C00014D01E68B04211D25960217805F8011F7D
:1005D000DE6819685C6831448C4224BF5E60344632
:1005E0009E680130B44204F10101E8D170BC70474B
:1005F000FEE7FEE7FEE7FEE75AB32DE9F0410746C6
:1006000040B345683DB3D0F80880B8F1000F23D05F
:10061000454500681AD0002846D08C4629788C457C
:100620001BD0461EF9682C464FF0000E06E07645BA
:100630000EF1010E0AD02078604510D038680134E0
:100640000844844228BF0C46A045F0D10020BDE8F4
:10065000F081FEE7FEE7FEE7FEE7F9682C46386822
:100660003E6801340844844238BF2146A94221D063
:1006700023B3DEB102F1FF3E002203E09A4210D024
:1006800096420ED02846013210F8014B0EF8014F69
:10069000FD683C682C44A04238BF0546A94210467C
:1006A000ECD17D60BDE8F081BDE8F0817D60304631
:1006B000BDE8F0817D600020BDE8F0817D601846D6
:1006C000BDE8F0812DE9F0439046079A002B53D006
:1006D0000546002851D04768002F4FD099468368BF
:1006E000002B4CD09F4200684CD0002848D03C469C
:1006F0004FF0000E0EE016F801EBEC68D5F800C0E4
:10070000A444664538BF3446A3425FFA8EFE39D012
:1007100001383AD08E452646EDD194F800E0C64522
:10072000E9D1A3422ED0EE682B68D5F800E0013461
:1007300033449C4238BF2646BE4230D05AB3BEF145
:10074000000F24D009F1FF39002303E09A4210D0B2
:100750009E450ED03946013311F8010B09F8010FFF
:10076000EF6828683844814238BF0F46BE421846B9
:10077000ECD16F60BDE8F083FEE7FEE7FEE7FEE741
:10078000BDE8F0830020BDE8F083BDE8F0836F6032
:100790007046BDE8F0836F601046BDE8F0836F607F
:1007A0000020BDE8F08300BFC3785BB90378184828
:1007B0005A09203203F01F03012101FA03F340F824
:1007C00022307047F0B4134B4778D96882780478A8
:1007D0000F4EC943C1F30221C1F10405EDB20F234D
:1007E00007FA05F50B41EDB213402B4304F16042CB
:1007F00002F561421B01DBB282F80033037801226B
:1008000003F01F015B098A4046F82320F0BC7047C3
:1008100000E100E000ED00E002683749002310B479
:1008200022F0010221248842026003604360836059
:10083000C360036144614DD0304B984235D0304B9A
:10084000984239D02F4B98423DD02F4B984247D0F9
:100850002E4B984248D02E4B98421DD02D4B98429B
:100860001ED02D4B984243D02C4B98421DD02C4B80
:10087000984221D02B4B984225D02B4B98422FD019
:100880002A4B984230D02A4B984205D0294B9842A7
:1008900006D05DF8044B7047274A43F8942CF8E7DC
:1008A0004FF03D5243F8AC2CF3E74FF4746243F839
:1008B000202C5DF8044B70474FF4741243F8382C29
:1008C0005DF8044B70474FF0746243F8502C5DF8AC
:1008D000044B7047194B3D229A605DF8044B7047FA
:1008E000174A43F8642CD4E7164A43F87C2CD0E727
:1008F0003D2243F8082CCCE71060024028600240FB
:1009000040600240586002407060024088600240CF
:10091000A0600240B86002401064024028640240B7
:10092000406402405864024070640240886402409F
:10093000A0640240B864024000003D200060024014
:100940003D000020400F0020F0B401F118028CCAD5
:100950000E68CD684C693543254315434E6A4C6B90
:100960008A6B1D433D438B6A35431D4306680B4B21
:100970002C432243334013430360CC6A42690B6B20
:1009800022F007022343134343610B6943604B6822
:1009900083608B68C360F0BC704700BF3F801CF071
:1009A0000023036043608360C3600361436183612C
:1009B000C361036243628362C3620363436383630D
:1009C000704700BF036819B923F001030360704743
:1009D00043F0010303607047036819B923F0200353
:1009E0000360704743F02003036070474160704725
:1009F000406880B2704700BF406900F0380070471F
:100A000010B4094B094C0A4AA04294BF184610463C
:100A100011F0005F21F0F02121F0821114BFC160BC
:100A200081605DF8044B7047006002400F64024033
:100A300000640240FFF7E4BF0022F0B51346012630
:100A4000032704E00133102B02F102022FD00D68BE
:100A500006FA03F434EA0505F4D1D0F800E007FA09
:100A600002F5ED430EEA050EC0F800E091F804E04F
:100A7000D0F800C00EFA02FE4EEA0C0EC0F800E0FC
:100A800091F804E00EF1FF3EBEF1010F07FA02FCFF
:100A90000ED9C46824EA0C04C460CC79C5689440BB
:100AA00001332C43102BC46002F10202CFD1F0BD00
:100AB000D0F808E005EA0E05856091F805E0856844
:100AC0000EFA02FE4EEA05058560456825EA040433
:100AD00044608C7945689C40A4B22C434460D8E7BC
:100AE00010B4CB0800EB830001F00701046A890011
:100AF0000F238B4024EA03030362036A8A4042EA1D
:100B0000030101625DF8044B704700BF10B4214C33
:100B1000A36803F00C03042B1BD0082B1CD01E4B26
:100B200003601C4A1D499468C4F303140C5DE34040
:100B300043609468C4F382240C5D23FA04F4846057
:100B400092685DF8044BC2F342328A5CD340C360C2
:100B50007047134B0360E4E76368616813F4800F28
:100B6000636818BF0E4C01F03F020CBF0A49B4FB8A
:100B7000F2F1C3F3881308BFB1FBF2F101FB03F2FA
:100B8000044B5B68C3F3014301335B00B2FBF3F337
:100B90000360C6E7003802400024F4000000002093
:100BA00040787D0129B9054A136B23EA00001063E0
:100BB0007047024B1A6B10431863704700380240AD
:100BC00029B9054A536C23EA000050647047024B70
:100BD0005A6C1043586470470038024029B9054ADE
:100BE000136A23EA000010627047024B1A6A10432E
:100BF000186270470038024029B9054A536A23EA4F
:100C0000000050627047024B5A6A104358627047A6
:100C10000038024008B52B4B984219D02A4B984215
:100C200020D02A4B984229D0294B984232D0294BC8
:100C300098423BD0284B984200D008BD012120208B
:100C4000FFF7DAFF00212020BDE80840FFF7D4BFFE
:100C500001211020FFF7D0FF00211020BDE808403F
:100C6000FFF7CABF01214FF40030FFF7B7FF0021A3
:100C70004FF40030BDE80840FFF7B0BF01214FF44A
:100C80008020FFF7ABFF00214FF48020BDE8084033
:100C9000FFF7A4BF01214FF40020FFF79FFF0021C1
:100CA0004FF40020BDE80840FFF798BF01214FF442
:100CB0008010FFF793FF00214FF48010BDE808403B
:100CC000FFF78CBF00100140004400400048004086
:100CD000004C0040005000400014014030B5038A31
:100CE000CA889BB223F440531343038282890B8941
:100CF000044688880D464989034392B20B4322F487
:100D0000B05222F00C029BB21343A381A38AAA899A
:100D10009BB223F44073134385B0A3826846FFF768
:100D2000F5FE1D4B9C4228D003F580639C4224D0E5
:100D3000029AA389A18913F4004F2B6802EB820267
:100D400014BF5B009B0002EB8202B2FBF3F0134A7C
:100D5000A2FB00356D096423090405FB13034FEA68
:100D600005150CD41B013233A2FB0323C3F3431339
:100D70002B439BB2238105B030BD039AD9E7D9003C
:100D80003231A2FB0131C1F3421242EA05039BB2A8
:100D9000238105B030BD00BF001001401F85EB511D
:100DA00000234FF416510C22016042818380C380DE
:100DB00003818381704700BF838929B923F40053DD
:100DC0001B041B0C838170479BB243F40053838147
:100DD000704700BFC1F30801818070478088C0F36D
:100DE00008007047838A9BB21AB923EA0101818205
:100DF000704719438182704710B401F01F04C1F39A
:100E000042110123012903FA04F311D002290CBF76
:100E10001030143032B9026822EA030303605DF82F
:100E2000044B70470268134303605DF8044B70473E
:100E30000C30EFE7C94389B201807047C1F3421219
:100E400010B4012301F01F04012A03FA04F317D0A0
:100E5000022A0CBF028A828A92B21340028892B29E
:100E600053B10123090A03FA01F10A4214BF1846DB
:100E700000205DF8044B704718465DF8044B70473E
:100E8000828992B21340E9E708B500F06BFB00F0ED
:100E900039FD0523104A1148002101F095F9072377
:100EA0000F4A1048002101F08FF904230E4A0F4821
:100EB000002101F089F908230D4A0E48002101F0B4
:100EC00083F93C230C4A0D48002101F07DF9FF20F5
:100ED00001F0A6FAFBE700BFEC180020151000088F
:100EE000EC1C0020D10F0008EC240020850F000826
:100EF000EC2C0020110F0008EC160020010F000858
:100F000008B5FFF7B9FA642001F0F0FAF9E700BF7D
:100F100000B5A1B003E04FF4C87001F0E7FA00217A
:100F20008022684601F023FE80216846FFF7DAFA46
:100F30000028F0D00E49684602F0A8FA0D490028B2
:100F4000E9D0684602F0A2FA0B490028E3D06846CF
:100F500002F09CFA09490028DDD0684602F096FAB2
:100F60000028D8D06946064802F078FAD3E700BFD7
:100F700088580008705800089C5800087C580008E1
:100F80007458000810B52DED028B9FED0E8ADFED31
:100F90000E8A0024013407EE904A38EE288AF8EED3
:100FA000E77A77EE887A17EE900A01F047FD02465D
:100FB0000B46064802F052FA4FF47A6001F096FAB6
:100FC000E8E700BF7B148E3FCDCCCC3D80580008B5
:100FD000F8B54FF480460B4D374600242F8364202C
:100FE00001F084FA6E83642001F080FA064802F072
:100FF00035FA2146054802F031FA0548013402F07D
:101000002DFAEBE7001002408C580008A0580008A9
:10101000A858000808B54FF40055084C2E46268302
:101020004FF4FA7001F062FA65834FF4FA7001F040
:101030005DFA034802F012FAF1E700BF0010024027
:10104000BC58000800B585B06846FFF75FFD019801
:1010500005B05DF804FB00BF10B582B00024FFF7B7
:10106000FBF82046012308224FF4E1310094FFF7FA
:101070000FF900F0C1FA21460323044A044801F0A5
:10108000A3F800F00FFC204602B010BDEC1A0020BF
:10109000890E00080649074A074B9A42BEBF51F81D
:1010A000040B42F8040BF8E7044880470448004763
:1010B000005C000800000020B40000209D11000822
:1010C000E50100083349344A002301E041F8043BBC
:1010D0009142FBD3FFF7C0FFFEE7FEE7FEE7FEE726
:1010E000FEE7FEE7FEE7FEE7FEE7FEE7FEE7FEE7D8
:1010F000FEE7FEE7FEE7FEE7FEE7FEE7FEE7FEE7C8
:10110000FEE7FEE7FEE7FEE7FEE7FEE7FEE7FEE7B7
:10111000FEE7FEE7FEE7FEE7FEE7FEE7FEE7FEE7A7
:10112000FEE7FEE7FEE7FEE7FEE7FEE7FEE7FEE797
:10113000FEE7FEE7FEE7FEE7FEE7FEE7FEE7FEE787
:10114000FEE7FEE7FEE7FEE7FEE7FEE7FEE7FEE777
:10115000FEE7FEE7FEE7FEE7FEE7FEE7FEE7FEE767
:10116000FEE7FEE7FEE7FEE7FEE7FEE7FEE7FEE757
:10117000FEE7FEE7FEE7FEE7FEE7FEE7FEE7FEE747
:10118000FEE7FEE7FEE7FEE7FEE7FEE7FEE7FEE737
:10119000FEE70000B4000020E442002039493A4B49
:1011A000D1F88820394842F47002C1F888201A68C2
:1011B000002142F001021A6099601A6822F08472DC
:1011C00022F480321A6058601A6882B022F48022B9
:1011D0001A60D960009101911A6842F480321A6055
:1011E0001A4603E0009BB3F5C06F09D0136803F4FF
:1011F00000330193009B01330093019B002BF1D03E
:10120000214B1B6813F4003318BF01230193019B8A
:10121000012B05D01B4B4FF000629A6002B0704763
:10122000194B1B491A6C1B4842F080521A640A6819
:1012300042F480420A609A689A609A6842F40042D6
:101240009A609A6842F4A0529A6058601A6842F014
:1012500080721A601A4611680B4B8901FBD50E4A41
:1012600040F2057111609A6822F003029A609A6850
:1012700042F002029A601A46936803F00C03082BAE
:10128000FAD1C7E700ED00E000380240103000243A
:101290000070004019544007003C0240EFF31080FA
:1012A00072B6704780F3108870472648FF2101709E
:1012B000002080F309882448016881F308882348C6
:1012C0000121017022484FF08051016062B6FEE7B3
:1012D0001F484FF08051016070471D484FF080510A
:1012E0000160704772B62EF01F0E4EF0090EEFF33C
:1012F000098050B11EF0100F08BF20ED108A203871
:1013000080E8F00F13490968086000B5124880476B
:101310005DF804EB114812490A7802700D48114932
:101320000A680260106890E8F00F20301EF0100F7D
:1013300008BFB0EC108A80F309884EF0040E62B644
:101340007047000022ED00E0002D0020502F00200B
:1013500004ED00E0443700201D1500082C32002069
:101360005A2F002028350020074B002003F500717C
:1013700043F8040B8B424FF00002F9D103480449B3
:10138000043B03600A807047042D0020002D0020DC
:10139000F02C0020704700BF704700BF704700BFAF
:1013A000704700BF704700BF704700BFF0B54FF4F3
:1013B00080561525142442F84C0C42F8641C42F85F
:1013C000046C42F8085C42F80C4C112710260925E1
:1013D00008240720062142F8187C42F81C6C42F8C9
:1013E000205C42F8244C42F8280C42F82C1C0527BB
:1013F0000426032502240120002142F8307C42F813
:10140000346C42F8385C42F83C4C42F8400C42F8EC
:10141000441C4FF08077404E42F8487C4FF0123524
:101420004FF003344FF002304FF0013142F8506C6E
:1014300042F8545C42F8584C42F85C0C42F8601C8C
:101440004FF031374FF030364FF029354FF0283418
:101450004FF027304FF0263142F8687C42F86C6C30
:1014600042F8705C42F8744C42F8780C42F87C1CEC
:101470004FF0130C4FF0120E4FF025374FF024367B
:101480004FF023354FF022344FF021304FF0203110
:10149000134642F810CC42F814EC42F8807C42F833
:1014A000846C42F8885C42F88C4C42F8900C42F80C
:1014B000941C4FF019374FF018364FF017354FF096
:1014C00016344FF011304FF0103142F8987C42F84A
:1014D0009C6C42F8A05C42F8A44C42F8A80C42F87C
:1014E000AC1C4FF009374FF008364FF007354FF07E
:1014F00006344FF005304FF0043142F8C00C42F88A
:10150000B07C42F8B46C42F8B85C42F8BC4C43F88A
:10151000C41D1846F0BD00BFC9240008704700BFB5
:10152000704700BF054A138801339BB2632B01D873
:10153000138070470023138001F094B8F02C002032
:1015400008B5FFF7ABFE064A137801331370FFF7B7
:10155000A9FE00F0F7F9BDE8084000F037B900BF78
:101560004037002038B5FFF76DFD084A084B094C9D
:10157000A2FB002080090138F025002107225860D5
:1015800084F8235099601A6038BD00BFD34D6210B3
:1015900010E000E000ED00E010B5054CFFF77EFE26
:1015A000236801332360FFF77DFEFFF7F9FEF5E7BF
:1015B000542F0020F8B5B8B1C9B10E4B1F7837B918
:1015C0000378013B032B05D901231370F8BD1223C7
:1015D0001370F8BD044616460D46FFF75FFE6561C1
:1015E000FFF760FE3770F8BD04231370F8BD0C23BD
:1015F0001370F8BD40370020F0B589B0FFF7B4FE96
:1016000054485549554BDFF8BCC1DFF8BCE1544F95
:10161000544E554D554C002202700A70544855499D
:101620001A70554BCCF8002002700A708EF800201A
:101630003A6032602A602260114603F1080003F824
:10164000011F83424FF00002F9D14C494C4B4D4CE5
:101650004D4D4E480A601A602A700270234604F508
:10166000F26103F8012B8B42FBD1494B002103F5BA
:10167000807203F8011B9342FBD1464B464803F5A9
:10168000E76143F8080C43F8443C58339942424A16
:10169000F7D14249424B434EC4F8882700220A60E2
:1016A0001C60C4F84C27334606F1F00103F8012B07
:1016B0008B42FBD1A3F1D802002502F8185C42F856
:1016C000040C42F8142C18329A424FF000043249AC
:1016D000F3D1354BC6F8EC1086F8D840C6F8DC409C
:1016E0001E6000F0A5FB00F0D9FB00F0FBFB2F4AC9
:1016F0000192032680254FF6FF73009321463F2376
:10170000039402F5FE7204960295294800F0A8FDA4
:101710000DF11F0227493F2000F004FE264A0192E6
:101720004FF6FE732146009304963E2302950394E0
:1017300002F5FE72214800F093FD0DF11F022049D1
:101740003E2000F0EFFD00F093FFFFF723FE09B00D
:10175000F0BD00BF482F0020C1340020502F0020D2
:10176000B0340020542F0020DC420020B834002088
:10177000D8410020303500203335002028350020A6
:1017800044370020443A00202C3200205A2F0020F9
:10179000DC4100209C3A0020D05900083032002063
:1017A000BC340020543900203C370020543700203E
:1017B00099150008D4590008B0320020AD1C00086B
:1017C000E45900084C370020403700201C4B1B78A0
:1017D000012B00D0704770B582B0FFF75FFD194A4A
:1017E00013783BBB184B1B78FBB9184A184B12787F
:1017F000184C9A5C1849A45C184D1B5D0978184E6A
:10180000184C03EBC203DBB2994255F82320337026
:1018100022600AD0144CD16B23680190013101334E
:10182000D1632360FFF759FD019802B0BDE8704015
:10183000FFF738BD013BDBB21370002BF5D1D1E7C8
:10184000502F002040370020482F00203035002046
:10185000D0580008343500202C320020DC41002014
:101860005A2F002028350020B034002008B50A4B3C
:101870001B78012B00D008BDFFF710FD074B1B782C
:101880002BB9074A1378FF2B1CBF01331370BDE837
:101890000840FFF707BD00BF502F00204037002051
:1018A000482F00200E4B1B7803B1704770B40D4ACF
:1018B0000D4B12780D499A5C0D4D895C0D485B5CAF
:1018C0000D490E4E0E4C03EBC203DBB2337055F8DC
:1018D000232002600A60237070BCFFF7E6BC00BFE3
:1018E000502F002030350020D0580008343500201B
:1018F000DC41002028350020443700205A2F0020EA
:101900002C32002010B502200B4C00F0EFFDFFF749
:10191000C5FC00232360FFF7C5FC642000F0E6FD52
:10192000FFF7BCFC054A2168054B116001221A70C3
:10193000BDE81040FFF7B6BC542F0020B83400209B
:10194000D8410020F8B5FFF7EDFDFFF7A7FC254AC9
:10195000136801331360FFF7A5FC234B1B78012BA1
:1019600000D0F8BD21490A78012AFAD003D3022A0F
:1019700018BF00230B701E4B1C6894F836303F2BA9
:10198000EFD01C4E1C4D0127FFF788FC236B5A1E1D
:10199000FBB12263EAB994F8343013F037021DBF6B
:1019A00003F0C80384F8343084F8357084F83520A7
:1019B0001B070ED494F8381094F8392015F801C09C
:1019C000337894F83AE04CEA02024EEA03036A5490
:1019D00033706469FFF766FC94F836303F2BD3D13F
:1019E000F8BD00BF4C370020502F0020AC32002043
:1019F000303200203035002034350020704700BFE1
:101A0000F0B507462D48BD7A2D4C465DBD194FF007
:101A1000000EED7A405D00EBC600C0B254F82050D5
:101A200095F8344085F8353024EA020213076962DC
:101A3000C5F830E085F8342028D595F8391095F8A8
:101A400038203A44D37A23EA0103D3727BB32C6A59
:101A5000DCB1226895F838E095F83AC095F839601D
:101A60008AB1F643F6B26FEA0C0C02EB0E01CB7AA8
:101A70003340CB721BB9937A03EA0C03937254F888
:101A8000042F002AF1D1EF61F0BDF0BDDFF838E09E
:101A90000C4C1EF80620237895F8391095F83AC0BA
:101AA0000A434CEA03030EF806202370C7E795F8B3
:101AB0003A20BB7A23EA0203BB72C8E7D058000879
:101AC000DC410020303500203435002030B4114B8B
:101AD000114C1B6893F83820D861024493F83910F0
:101AE000D57A2943D172817A93F83A200A438272D7
:101AF00093F8381093F83900625C22EA00026254CD
:101B000032B9064A93F83A10137823EA01031370A6
:101B100030BC704744370020343500203035002079
:101B200010B490F8382090F839400A44D37A23EA68
:101B30000403D3722BB990F83A208B7A23EA02037C
:101B40008B725DF8044B704770B40A6890F8385097
:101B500090F83A6090F8394072B1E443E4B2F64349
:101B60005019C37A2340C37213B9937A33409372E6
:101B700051F8042F002AF3D170BC704703460022AD
:101B800003F80A2F123003F8012F8342FBD170476C
:101B900041B1013910FA81F10023013800F8013F09
:101BA0008842FBD1704700BF70B582B0FFF776FB6B
:101BB000154B1B7813BB154B1B78FBB9144A154BFF
:101BC0001278154C9A5C1549A45C154D1B5D09787B
:101BD000144E154C03EBC203DBB2994255F8232097
:101BE000337022600AD0114CD16B2368019001310F
:101BF0000133D1632360FFF76BFB019802B0BDE8AE
:101C00007040FFF74FBB00BF40370020482F002037
:101C100030350020D0580008343500202C32002008
:101C2000DC4100205A2F002028350020B03400204D
:101C300008B50D4B1B78012B00D008BDFFF72EFB1C
:101C40000A4A137863B1013BDBB2137043B9084B06
:101C50001B782BB9FFF726FBBDE80840FFF7A4BFB0
:101C6000BDE80840FFF71EBB502F0020482F002082
:101C70004037002030B50C4D83B000246946E0B2F7
:101C800000F086FB58B955F8243043B1012B06D03B
:101C9000D9689A680198D86402EB81029A64013489
:101CA000402CEBD103B030BDDC4100202DE9F041E8
:101CB000184C23782BB9C82000F018FC2378002B8F
:101CC000F9D0154E154A3368154FA2FB03235B0963
:101CD0003360D3B1134D144C4FF00008FFF7DEFA18
:101CE0002B682360C5F80080FFF7DCFA32682368B0
:101CF000B3FBF2F3C3F164033B70FFF755FBFFF74F
:101D0000B9FF642000F0F2FBE8E7FF203B7000F031
:101D100087FBDFE7D8410020B83400201F85EB5156
:101D2000C0340020542F0020DC4200202DE9F8436D
:101D30001F4606460D469146BDF82880FFF7AEFACD
:101D4000344B1C68002C5FD062691A60FFF7AAFA56
:101D500009986060F10806F00702089825600123E1
:101D6000002503FA01FEE06093402B4884F8381008
:101D700084F8393084F8372084F83AE0206584F814
:101D800036602046C4F80890A4F81080678284F872
:101D9000345084F83550256384F83B50E561256262
:101DA000A5626562E56365642564A564E5646565AF
:101DB000FFF7B6FB2046FFF7EFFAFFF76FFA174A77
:101DC0001749136841F82640A561636103B19C611E
:101DD000DFF858E094F83860124F134D9EF8001069
:101DE00094F83AC02B78146094F83920BC5D4CEA22
:101DF0000101224301338EF80010BA552B70FFF712
:101E000051FA0020BDE8F883FFF74CFA4220BDE804
:101E1000F88300BFBC340020D059000830320020C5
:101E2000DC41002034350020C13400203035002052
:101E300038B50E480E4D5021FFF7AAFE0D4B00207D
:101E400003F1400403F8100C43F8045C43F80C3C25
:101E50001033A3424FF000020549F3D1034B06486B
:101E600083F840205A64D964036038BD5C2F002099
:101E7000D05900086C2F0020D4410020426803682C
:101E800032B1136003B15A60836800229A627047CE
:101E9000C1684B60002BF6D1F6E700BF70B50E4C61
:101EA00078212046FFF774FE0C4A0D4B146004F1B4
:101EB000180604F1300504F1480004F16001002225
:101EC0006660E5616063E16462666361E362636466
:101ED000E365636770BD00BF34320020C434002066
:101EE000D059000810B5094C60212046FFF750FE7C
:101EF000234604F1180143F8301B054AA36104F19D
:101F0000480000212063A164146010BDC834002083
:101F10002C35002070B50F4B1E78A6B90546FFF78B
:101F2000BDF90D4B1C6884B162681A60FFF7BAF9FD
:101F300003220A4B25812046666022706361FFF709
:101F40001DFE204670BD002070BDFFF7ABF9204696
:101F500070BD00BF403700203C370020D05900083A
:101F6000002848D00378032B02D001231370704758
:101F7000294B1B78002B3BD12DE9F041274B1F78D3
:101F80001FB10D231370BDE8F081044615460E46BF
:101F9000FFF784F92389804683BB214F3A6892F882
:101FA000341082F8353041F00103166382F8343082
:101FB0002046FFF78BFD4046FFF774F9FFF7F4FD6D
:101FC000FFF76CF90646386890F835300BB3022BF2
:101FD0001BD10E232B703B68002283F8342083F83A
:101FE0003520DA611A623046BDE8F041FFF75AB990
:101FF000022313707047042313707047013B238141
:10200000FFF750F92F70BDE8F0812146FFF788FDFA
:102010000A232B70DFE700BF40370020482F002045
:102020004437002070B528B10378032B05D0012573
:10203000284670BD0425284670BD0446FFF72EF9DA
:10204000A57A06466DB923894FF6FF72934204D0F4
:1020500001332381FFF726F9EAE7FFF723F9332558
:10206000E6E70023194601222046FFF7C9FC304667
:10207000FFF718F90025FFF797FDD9E72DE9F041A3
:102080000546FFF70BF9FF2D074668D0444E56F87A
:102090002540002C6CD0012C7BD094F8382041498D
:1020A00094F839008B5C23EA00038B54002B4ED04C
:1020B000E16911B12046FFF733FD216A11B12046D5
:1020C000FFF742FDA06A08B1FFF7D8FEDFF8D8801D
:1020D00098F800300022FF2B18BF0133226384F8E8
:1020E000342084F83520384618BF88F80030FFF7D0
:1020F000D9F8FFF783FCFFF7D1F898F800302A4AA7
:1021000007460BBB2046FFF749F9284A002346F84B
:1021100025301378A169013B1370002933D063691E
:102120004B616369A2699A61214B224A1968616116
:10213000384622651C60FFF7B5F81F4B1B78012B52
:102140001CD00020BDE8F081013B1370DAE71B4A88
:1021500094F83A10137823EA01031370A8E7184B98
:102160000F4E1B6893F8365056F82540002C92D13C
:102170003846FFF797F84320BDE8F081FFF714FDDC
:102180000020BDE8F08162690E4B916162691A60BE
:10219000CAE73846FFF786F83D20BDE8F08100BF6A
:1021A000DC41002034350020482F0020C1340020BD
:1021B000BC340020D0590008502F002030350020BA
:1021C00044370020303200202DE9F0433F2B85B00A
:1021D00004D92A24204605B0BDE8F0831D46904668
:1021E0000F460646FFF75AF81A4B1C7844B9DFF839
:1021F0006C9059F825303BB1FFF754F82824E9E7F3
:10220000FFF750F83C24E5E7012349F82530FFF7B4
:1022100049F82346424639463046FFF7C7F802944C
:10222000014601940094234622462846FFF77EFD8E
:10223000064630B9084B1B78012BCBD1FFF7B4FC15
:10224000C8E7FFF72BF849F82540FFF72BF834468D
:10225000C0E700BF40370020502F0020DC410020A5
:102260002DE9F04F85B03F2BBDF83890BDF8488080
:1022700004D92A24204605B0BDE8F08F1D46174634
:102280000E468246FFF70AF8234B1C7844B9DFF864
:1022900090B05BF825303BB1FFF704F82824E9E75C
:1022A000FFF700F83C24E5E701234BF82530FEF763
:1022B000F9FF08F00303032B1AD031463A46434690
:1022C0005046FFF773F8119B0193109B0093014652
:1022D000CDF808804B460F9A2846FFF727FD0646A3
:1022E00080B90E4B1B78012BC4D1FFF75DFCC1E711
:1022F000109B002BE1D00F9A2146013B42F8041BB2
:10230000FBD1DAE7FEF7CAFF002334464BF825304D
:10231000FEF7C8FFAEE700BF40370020502F002077
:10232000DC410020A0F14003DBB2BE2B70B51546A6
:1023300002D82A23137070BD0E46D9B1114B1B78F9
:1023400013B11223137070BD0446FEF7A7FFFF2CD4
:102350000BD00D4B53F824307BB1012B0DD01E65F3
:10236000FEF7A0FF00232B7070BD084B1B6893F88D
:102370003640EEE70C23137070BDFEF793FF432346
:102380002B7070BD40370020DC4100204437002016
:102390003F2870B504460D4603D9FF2814D02A20E3
:1023A00070BD91B100230B604B60FEF777FF1A4BB5
:1023B00053F8243043B3012B26D01A8AD20706D40F
:1023C000FEF770FF452070BDA1B9092070BD9C6863
:1023D000DE68FEF767FF2368221DCBB952F8041BA5
:1023E00001330029FAD09A00F31A9B0085E80C000B
:1023F000002070BD00232B606B60FEF74FFF074B82
:102400001B6893F83640D2E7FEF74CFF432070BDBF
:1024100000221346E8E700BFDC41002044370020DB
:102420003F2807D03E2870B5044605D9FF282FD095
:102430002A2070BD47207047FEF730FF1E4B1B68F7
:1024400093F836502D1BB5FA85F56D091B4B53F8E3
:1024500024304BB3012B2BD093F83810184C93F841
:102460003960625C22EA0602625432B9154993F877
:102470003A400A7822EA04020A7093F8342042F0C3
:10248000080283F83420FEF70DFF4DB9002070BD1F
:10249000FEF704FF084B1B68012593F83640D5E78B
:1024A000FFF782FB002070BDFEF7FCFE482070BDE8
:1024B000FEF7F8FE432070BD44370020DC410020C9
:1024C000343500203035002008B5064B1868FEF77B
:1024D00069FF054B1B7803B108BDFF20BDE808402C
:1024E000FFF7CCBD4437002040370020124B1B784B
:1024F0001BB9124B1B7803B900B9704770B504467D
:10250000FEF7CCFE0E4B0F4D1A6892F8381092F879
:1025100039606B5C23EA06036B5433B90A4992F8BD
:102520003A500B7823EA05030B701463FEF7BAFEEA
:10253000BDE87040FFF738BB40370020482F00202F
:1025400044370020343500203035002010B4426973
:10255000104B02F0070253F83210884212D004697F
:10256000C168E16001B10C6103EBC20301210022EB
:1025700080F82510C26002619A88013A9A805DF85D
:10258000044B7047C16843F832100029ECD0002496
:102590000C61E9E7082F00202DE9F04F2E4FDFF8FE
:1025A000BCA0DFF8BCB083B0B9460DF10702002132
:1025B000DAF80000FFF7D4FCFFF758F9DBF8002049
:1025C000013202F00701CBF8002057F8314004B384
:1025D0006169E5688A424FF002064FF0030807D0B0
:1025E000BDB12C46DBF800206169E5688A42F7D16D
:1025F0002046FFF7ABFF94F82420022A0CD084F881
:1026000025606268002AEBD0A16820469047002D23
:10261000E7D1FFF70DFBC8E7E169DBF8002084F89C
:1026200025800A4402F00701626157F8312009EB66
:10263000C1004AB149F83140E26014618288013238
:10264000828000232361DCE74FF0010E49F831401E
:10265000E260A0F804E0F4E7082F00204C2F0020EF
:1026600048370020014B1868FFF7DCBC4C2F0020D6
:10267000F0B54FF4207189B02F48304FFFF788FA3A
:102680002F484021FFF784FA2E4B642503F5167678
:10269000002003F8285C03F8030C43F8087C43F897
:1026A0001C3C2833B3424FF064014FF00004234A2E
:1026B000EFD1214BDFF8B8E0234F244E244D83F8AF
:1026C000581283F87D42C3F86442C3F8782210217F
:1026D0000120CEF80030298034803C60FFF71AFCDE
:1026E0001C4E1D4D30602046FFF714FC0DF11E02FC
:1026F00028601A493068FEF75DFF0DF11E02286858
:102700001749FEF757FF174A0192032580204FF61D
:10271000FD7321460290009303943D2302F5FE725F
:1027200004951148FFF79CFD0DF11F020F493D2054
:10273000FFF7F8FD09B0F0BDAC2F0020D05900081C
:10274000082F0020D42F002048370020582F0020C9
:10275000B4340020503700204C2F0020F4590008DA
:10276000085A00083C350020992500081C5A00082A
:10277000042F002081F0004102E000BF83F00043FD
:1027800030B54FEA41044FEA430594EA050F08BF0C
:1027900090EA020F1FBF54EA000C55EA020C7FEAD0
:1027A000645C7FEA655C00F0E2804FEA5454D4EB4D
:1027B0005555B8BF6D420CDD2C4480EA020281EA17
:1027C000030382EA000083EA010180EA020281EA4F
:1027D0000303362D88BF30BD11F0004F4FEA0131A1
:1027E0004FF4801C4CEA113102D0404261EB4101B0
:1027F00013F0004F4FEA03334CEA133302D0524236
:1028000063EB430394EA050F00F0A780A4F10104F1
:10281000D5F1200E0DDB02FA0EFC22FA05F280182B
:1028200041F1000103FA0EF2801843FA05F3594111
:102830000EE0A5F120050EF1200E012A03FA0EFC90
:1028400028BF4CF0020C43FA05F3C01851EBE371BA
:1028500001F0004507D54FF0000EDCF1000C7EEBD7
:1028600000006EEB0101B1F5801F1BD3B1F5001F15
:102870000CD349085FEA30004FEA3C0C04F1010434
:102880004FEA445212F5800F80F09A80BCF1004F5D
:1028900008BF5FEA500C50F1000041EB045141EADF
:1028A000050130BD5FEA4C0C404141EB010111F4E0
:1028B000801FA4F10104E9D191F0000F04BF01468B
:1028C0000020B1FA81F308BF2033A3F10B03B3F169
:1028D00020020CDA0C3208DD02F1140CC2F10C02F9
:1028E00001FA0CF021FA02F10CE002F11402D8BF57
:1028F000C2F1200C01FA02F120FA0CFCDCBF41EA23
:102900000C019040E41AA2BF01EB0451294330BDF1
:102910006FEA04041F3C1CDA0C340EDC04F11404CE
:10292000C4F1200220FA04F001FA02F340EA0300A5
:1029300021FA04F345EA030130BDC4F10C04C4F1EB
:10294000200220FA02F001FA04F340EA03002946CB
:1029500030BD21FA04F0294630BD94F0000F83F415
:10296000801306BF81F480110134013D4EE77FEAF8
:10297000645C18BF7FEA655C29D094EA050F08BF44
:1029800090EA020F05D054EA000C04BF1946104625
:1029900030BD91EA030F1EBF0021002030BD5FEA69
:1029A000545C05D14000494128BF41F0004130BD91
:1029B00014F580043CBF01F5801130BD01F00045E5
:1029C00045F0FE4141F470014FF0000030BD7FEA58
:1029D000645C1ABF194610467FEA655C1CBF0B4653
:1029E000024650EA013406BF52EA033591EA030F6A
:1029F00041F4002130BD00BF90F0000F04BF002162
:102A0000704730B54FF4806404F132044FF0000594
:102A10004FF0000150E700BF90F0000F04BF00210D
:102A2000704730B54FF4806404F1320410F0004573
:102A300048BF40424FF000013EE700BF42004FEA6E
:102A4000E2014FEA31014FEA02701FBF12F07F43EB
:102A500093F07F4F81F06051704792F0000F14BFE8
:102A600093F07F4F704730B54FF4607401F000452C
:102A700021F0004120E700BF50EA010208BF704783
:102A800030B54FF000050AE050EA010208BF704778
:102A900030B511F0004502D5404261EB41014FF4E1
:102AA000806404F132045FEA915C3FF4DCAE4FF0E5
:102AB00003025FEADC0C18BF03325FEADC0C18BFCC
:102AC000033202EBDC02C2F1200300FA03FC20FA1D
:102AD00002F001FA03FE40EA0E0021FA02F114446A
:102AE000C1E600BF08B5074B044613B10021AFF3A0
:102AF0000080054B1868836A03B19847204602F0AE
:102B0000A5FE00BF00000000305A000870B50E4B53
:102B10000E4CE41AA41000251E46A54204D056F817
:102B2000253098470135F8E702F092FE084C094B32
:102B3000E41AA41000251E46A54204D056F82530FC
:102B400098470135F8E770BDAC000020AC000020CC
:102B5000B0000020AC00002010B5431E0A44914292
:102B600004D011F8014B03F8014FF8E710BD0244FF
:102B70000346934202D003F8011BFAE770472DE9A0
:102B8000FF4755EC104B0D9FDDF830A0002D0E4691
:102B900091461946B8BF22462B4627F02007BBBFF7
:102BA00005F100431D4600232D23B8BF1446462FD0
:102BB0000B7003D0452F03D1013601E0032100E063
:102BC000022103AB019302AB00933246534645EC1E
:102BD000104B00F0FDFC472F804602D119F0010F89
:102BE00028D0462F08EB060911D198F80030302B79
:102BF0000AD1002200232046294602F081FD18B99F
:102C0000C6F10106CAF80060DAF8003099440022E3
:102C100000232046294602F073FD08B9302202E065
:102C2000CDF80C9006E0039B994503D9591C0391FC
:102C30001A70F8E7039B0E9AC8EB03034046136033
:102C400004B0BDE8F08773B503460029B8BF494218
:102C500003F8022BB4BF2D222B220929427019DD63
:102C60000DF1070216460A2591FBF5F405FB141138
:102C70003031092C02F8011D2146F5DC3031541E9B
:102C800002F8011CB4421A460AD214F8012B03F8C8
:102C9000012BF7E730241A46214402F8024B597001
:102CA000101A02B070BD00002DE9F04F8DB00C4637
:102CB000DDF8588016461F46054601F0F3FA036812
:102CC0000493184600F0ECFB00230A93D8F8003078
:102CD0000590073323F0070303F1080294F818A0C6
:102CE000D4F800B0C8F80020D3E90023C4E91223C7
:102CF000D4E9128929F000430793CDF818804FF0EA
:102D0000FF32A64BDDE9060102F02CFDA0B94FF021
:102D1000FF32A24BDDE9060102F006FD60B9002298
:102D200000234046494602F0F5FC10B12D2384F8FB
:102D300043309B4B9B4A0AE042464B46404649463D
:102D400002F010FD002800F09081974B974ABAF1ED
:102D5000470F8CBF9046984603232BF00402236153
:102D600022604FF000093BE0BAF1670F00F0858167
:102D7000BAF1470F00F08181002303930AAB02935D
:102D800009AB009349EC108B0DF123032260CDF8C1
:102D900004A061682846FFF7F2FE0AF0DF03472B24
:102DA000804600F07F81BAF1650F099900F28881B1
:102DB0000139524604F150000991FFF744FF0A9A85
:102DC0008318012A8146236100F377812268D107A5
:102DD00000F173819DF8233013B12D2384F8433023
:102DE000009733460BAA2146284600F09BF9013094
:102DF00002D14FF0FF3091E123685A0501D42369D5
:102E000065E0BAF1650F40F2D58000220023D4E9D5
:102E1000120102F075FC78B30123654A3146284659
:102E2000B8470130E5D00A9B099A9A420BDB236828
:102E3000D80708D423689B0740F111814FF00008A0
:102E400004F1190906E1059B049A31462846B84762
:102E50000130CED04FF0000804F11A090A9B013B63
:102E60009845E7DA01234A4631462846B8470130FB
:102E7000BFD008F10108F1E7099B002B29DC0123F1
:102E80004B4A31462846B8470130B2D0099B23B996
:102E90000A9B13B92368D907CCD5059B049A314600
:102EA0002846B8470130A4D04FF0000904F11A0AAF
:102EB000099B5B42994509DA01235246314628466F
:102EC000B847013095D009F10109F1E70A9B424664
:102ED000A7E00A9AA36D9A42A8BF1A46002A914613
:102EE00006DC4FF0000A29EAE97904F11A0B11E037
:102EF0001346314642462846B8470130F1D178E7BB
:102F000001235A4631462846B84701303FF471AF95
:102F10000AF1010AA36DC9EB03029245F0DB08EB4D
:102F20000309099A0A9B9A420FDB2368DA070CD43B
:102F30000A9B099A9844C9EB08089B1A9845A8BFB0
:102F40009846B8F1000F08DC0FE0059B049A314663
:102F50002846B8470130EBD14BE743464A46314655
:102F60002846B84701303FF444AF4FF0000928EA43
:102F7000E87804F11A0A09E001235246314628464E
:102F8000B84701303FF435AF09F10109099A0A9BAE
:102F90009B1AC8EB03039945EEDB4BE7FFFFEF7F7E
:102FA000345A0008385A00083C5A0008405A0008B1
:102FB000445A00080A9A012A01DCDB0738D50123AC
:102FC000424631462846B84701303FF412AF059BD0
:102FD000049A31462846B84701303FF40AAF002230
:102FE0000023D4E9120102F08BFB20B14FF000085E
:102FF00004F11A0A0EE00A9B08F10102013B19E0F4
:103000000123524631462846B84701303FF4F1AE1D
:1030100008F101080A9B013B9845F1DB4B4604F19E
:10302000500231462846B84701307FF403AFE0E64E
:103030000123424631462846B8470130EED1D8E652
:1030400001234A4631462846B84701303FF4D1AE05
:1030500008F10108E3680B9A9B1A9845F0DBE068D9
:103060000B9B9842B8BF184658E061684B1C4BF464
:1030700080627FF479AE062301E011B90123636019
:103080007AE6002303930AAB029309AB009349EC61
:10309000108B2260CDF804A00DF123032846FFF722
:1030A0006EFD8046099BD81C02DB626893421DDDE1
:1030B000AAF1020A5FFA8AFA75E60133236189E60A
:1030C000BAF1660F14D10029636807DD216113B9D5
:1030D0002268D2071DD501330B4419E013B92268C9
:1030E000D00701D5023313E0012311E04FF0670A46
:1030F000099B0A9A934205DB22682361D10708D510
:10310000013305E0002BD4BFC3F1020301231344B4
:103110002361099BA3654FF000095BE60DB0BDE894
:10312000F08F00BF2DE9F04791461F460A698B6872
:10313000DDF820809342B8BF1346C9F8003091F8FB
:10314000432006460C4612B10133C9F8003023680B
:10315000990642BFD9F800300233C9F8003025681B
:1031600015F0060510D104F1190A07E001235246B3
:1031700039463046C04701301AD00135E368D9F8E6
:1031800000209B1A9D42F1DB94F843302268003303
:1031900018BF012392060FD5E1185A1C302081F880
:1031A0004300224494F8451082F84310023303E0B0
:1031B0004FF0FF30BDE8F08704F143023946304656
:1031C000C0470130F4D02268D9F80050E36802F01B
:1031D0000602042A08BF5D1B2269A3680CBF25EA0A
:1031E000E57500259342C4BF9B1AED184FF0000906
:1031F0001A344D4509D00123224639463046C0478E
:103200000130D5D009F10109F3E70020BDE8F087CE
:103210002DE9F04317460A7E85B06E2A9846064689
:103220000C460C9B01F1430E00F0AE8011D8632ACE
:1032300022D009D8002A00F0BB80582A40F0CA806A
:1032400081F84520834955E0642A1ED0692A1CD0A4
:10325000C0E0732A00F0B08009D86F2A2ED0702AFF
:1032600040F0B8800A6842F020020A603EE0752A09
:1032700024D0782A3AD0ADE01A6801F14205111D38
:103280001960136884F84230A8E021681A6811F0C8
:10329000800F02D0111D196008E011F0400F02F1FB
:1032A0000401196002D0B2F9003000E01368002B6D
:1032B0003CDA2D225B4284F8432037E021681A680B
:1032C00011F0800F02D0111D196007E011F0400FBE
:1032D00002F10401196001D0138800E01368227E16
:1032E0005C496F2A14BF0A2208221BE078225A493F
:1032F00084F845202268186812F0800F00F1040558
:103300001D6003D1550601D5038800E00368D0078E
:1033100044BF42F0200222601BB9226822F0200242
:1033200022601022002084F8430001E049490A226B
:103330006568A560002D08DB206820F0040020608F
:103340002BB9002D7DD175460CE0002B79D0754648
:10335000B3FBF2F002FB1033CB5C05F8013D0346F2
:103360000028F5D1082A0BD12368DA0708D523698C
:1033700062689A42DEBF302305F8013C05F1FF3553
:10338000C5EB0E0323612EE008681A68496910F046
:10339000800F03D0101D1860136808E010F0400F74
:1033A00002F104001860136801D0198000E0196070
:1033B00000232361754616E01A68111D196015680F
:1033C00062680021284600F07BFF08B1401B606066
:1033D000636804E004F1420584F84220012323617C
:1033E000002384F84330CDF800803B4603AA2146F1
:1033F0003046FFF797FE013002D14FF0FF3026E054
:1034000023692A4639463046C0470130F5D0236843
:103410009B0710D5002504F1190907E001234A464E
:1034200039463046C0470130E7D00135E368039A9A
:103430009B1A9D42F2DBE068039B9842B8BF184696
:1034400005E00B7884F8423004F142058AE705B0C4
:10345000BDE8F083465A0008575A00080FB40A4BDB
:1034600013B51C6824B1A36913B9204600F090FE7F
:1034700005AB049AA1680193204601F02BFB02B032
:10348000BDE8104004B070477000002010F8012B18
:1034900011F8013B012A28BF9A42F7D0D01A704791
:1034A000034613F8012B002AFBD1181A0138704784
:1034B0002DE9F74F03690C699C42804600F3838035
:1034C000013C01F114074FEA840E00F1140657F88D
:1034D000245006EB0E030193013556F82430B3FB5C
:1034E000F5F507EB0E09002D39D04FF0000A3846EC
:1034F000B446D34650F8042B93B205FB03A34FEA1E
:10350000134A9BB2C3EB0B03120CBCF800B005FBD3
:1035100002A213FA8BF34FEA124A1FFA82FBDCF87D
:103520000020CBEB124202EB23429BB243EA024360
:1035300081454FEA224B4CF8043BDBD256F80E3063
:103540006BB9019B043B9E421A4602D3C8F8104057
:1035500005E01268043B002AF8D1013CF3E740463D
:1035600001F00BF900282CDB013530464FF0000E3E
:1035700057F8041BD0F800C08AB2C2EB0E03090C46
:1035800013FA8CF3C1EB1C4202EB23429BB243EAD9
:103590000243B9454FEA224E40F8043BE8D256F8C0
:1035A000242006EB840362B9043B9E421A4602D3F0
:1035B000C8F8104005E01268043B002AF8D1013C2D
:1035C000F3E7284600E0002003B0BDE8F08F0000DC
:1035D0002DE9F04F59EC108B97B0456A0691824661
:1035E00009921093209CCDE9008945B9102000F084
:1035F0005DFECAF82400456085600560C560DAF8A4
:103600002430196859B15A684A60012393408B608D
:10361000504600F0DAFEDAF8243000221A60019BEE
:103620009F4A002BBFBF01232360019B23F000436F
:10363000B8BF0193019FA4BF0023236027F000437C
:103640001B0D1B0593421DD1109A42F20F7313609C
:10365000009B43B9934A944BC7F31300002814BF4F
:103660001846104600E09048219B002B00F04A8548
:10367000C37813B100F1080300E0C31C219A136062
:1036800000F040BDDDE90045002200232046294628
:1036900002F036F8804658B1109A01231360219B3E
:1036A000002B00F0228581481860013800F02ABD07
:1036B00014AA15A945EC104B504601F0D9F8C7F3F0
:1036C0000A5602905EB1C5F3130343F07F512046C2
:1036D00041F44011A6F2FF36CDF844801DE0159B61
:1036E000149E1E4406F23243202B0ADD009A06F295
:1036F0001240C3F1400322FA00F007FA03F3184323
:1037000004E0C3F12000009B03FA00F0FFF774F916
:103710000123A1F1F871013E11930022644BFFF7E0
:103720002DF859A3D3E9002301F082FD58A3D3E972
:103730000023FFF725F8044630460D46FFF76CF9E5
:1037400055A3D3E9002301F073FD02460B46204642
:103750002946FFF715F804460D4602F019F8002235
:10376000834600232046294601F0D4FF58B158462D
:10377000FFF752F902460B462046294601F0C0FFEA
:1037800008B90BF1FF3BBBF1160F0DD8494901EB0E
:10379000CB01DDE90023D1E9000101F0D9FF30B10F
:1037A0000BF1FF3B002300E001230D9300E00D909F
:1037B000149B9E1B731E059343BFC3F10009002396
:1037C00005934FF00009BBF1000F07DB059BCDF817
:1037D00030B05B4405930023079306E0CBF1000370
:1037E00007930023CBEB09090C93069B092B27D8E1
:1037F000052BC4BF043B0693069BA3F10203CCBF79
:1038000000250125032B20D8DFE803F0060E020473
:10381000012302E0012308E000230893099B002B09
:103820001CDD039398461EE000230893099B5B442C
:1038300003F1010803934346012BB8BF012312E0B3
:10384000012500230693089501E0012308934FF01A
:10385000FF33039398460022122303E001230393CE
:1038600098461A460992DAF8244000226260042140
:1038700001F114029A421FD8626801326260490065
:10388000F6E700BFAFF3008061436F63A787D23FC5
:10389000B3C8608B288AC63FFB799F501344D33F3F
:1038A0000000F07F685A0008715A0008455A000865
:1038B0000000F83F185B00086168504600F050FDBA
:1038C000DAF8243020601B680493B8F10E0F00F280
:1038D0005D81002D00F05A819DED007BBBF1000F52
:1038E0008DED0E7B31DDA04A0BF00F0302EBC3031D
:1038F00093ED007B4FEA2B14E2068DED0A7B0CD58D
:103900009A4BDDE90E01D3E9082301F0BBFD04F079
:103910000F04CDE90001032600E00226934D6CB1AF
:10392000E30708D5DDE90A01D5E9002301F080FCB1
:10393000CDE90A01013664100835F0E7DDE90A2314
:10394000DDE9000101F09EFD20E0CBF1000404B3AD
:10395000854B864D04F00F0203EBC203D3E900232D
:10396000DDE90E0101F064FCCDE900012411002322
:10397000022654B1E70705D5D5E9002301F058FC2C
:103980000136012364100835F3E71BB1CDE90001CE
:1039900000E002260D9BEBB1DDE900450022744BEF
:1039A0002046294601F0B6FEA0B1B8F1000F11D0B3
:1039B000039B002B40F3E6800BF1FF330A930022B8
:1039C0006C4B2046294601F033FC0136CDE900015D
:1039D000039F02E0CDF828B047463046FFF71CF8B9
:1039E000DDE9002301F024FC0022634BFEF7C8FE52
:1039F0000446A1F15075CFB90022604BDDE900010A
:103A0000FEF7BCFE22462B46CDE9000101F0A0FEE8
:103A1000002840F04182224605F10043DDE9000123
:103A200001F078FE002840F02E82ABE0089A4E4B61
:103A3000791E002A4AD003EBC103D3E900230020FA
:103A40004F4901F01FFD22462B46FEF797FE049CCE
:103A500005460E46DDE9000101F09AFE1290FEF7E0
:103A6000DBFF02460B46DDE90001FEF787FE129BF5
:103A7000303304F8013B2A463346CDE9000101F01A
:103A800049FE002840F02183DDE900230020384969
:103A9000FEF774FE2A46334601F03CFE002840F053
:103AA000D280049BE31ABB426CDA0022314B2846D9
:103AB000314601F0BDFB002205460E462D4BDDE9E7
:103AC000000101F0B5FBCDE90001C3E703EBC10143
:103AD00022462B46D1E9000101F0AAFB049BCDE967
:103AE0001201DC191D46DDE9000101F051FE064618
:103AF000FEF792FF303602460B46DDE90001FEF785
:103B00003DFE05F8016BAC42CDE900014FF000022B
:103B100023D11B4BDDE91201FEF732FE02460B46B4
:103B2000DDE9000101F014FE002840F08C80DDE9A1
:103B3000122300201249FEF721FE02460B46DDE962
:103B4000000101F0E7FDE8B114F8013C302B04F16D
:103B5000FF3240F0BA821446F6E7064B01F068FBEC
:103B6000CDE90001BFE700BF185B0008F05A00086C
:103B70000000F03F0000244000001C400000144002
:103B80000000E03FDDE90E34CDE90034159B002B49
:103B90007CDBBBF10E0F79DC8F4B03EBCB03D3E95E
:103BA0000067099B002B14DAB8F1000F11DC40F01C
:103BB0006C810022894B3046394601F039FBDDE942
:103BC000002301F0BBFD45464646002840F05F81DA
:103BD00066E1049C32463B46DDE9000101F052FCFF
:103BE00001F0D6FD0546FEF717FF32463B4601F0D1
:103BF0001FFB0B460246DDE90001FEF7BFFD05F1A4
:103C0000300E04F801EB049BC3EB040EF045CDE944
:103C100000012ED102460B46FEF7B2FD80468946D2
:103C200002460B463046394601F074FD78B94246EB
:103C30004B463046394601F063FD002800F04782CC
:103C4000E90704D443E2DDF828B000E01C4614F88C
:103C5000012C392A04F1FF3307D1049A9A42F5D195
:103C6000049930220BF1010B0A701A7801321A7094
:103C70002DE200225A4B01F0DBFA00220023CDE9AD
:103C8000000101F03DFD0028A4D020E2089A002A9E
:103C90002DD0069A012A0ADC119A12B103F233439D
:103CA00002E0149BC3F13603079D4C4615E0079BC9
:103CB00008F1FF35AB42BFBF079B0795EA1A0C9B83
:103CC000B7BF9B185D1B0C930025B8F1000FB9BF5F
:103CD000C8EB090400234C464346059A01211A44C7
:103CE00050469944059200F00FFC064602E0079DFD
:103CF000089E4C465CB1059B002B08DDA342059A4B
:103D0000A8BF2346C3EB0909E41AD31A0593079BFE
:103D1000002B1DDD089BABB185B131462A465046CC
:103D200000F08CFC029A01460646504600F0F5FB76
:103D300002990746504600F048FB0297079B5A1B22
:103D400006D000E0079A0299504600F077FC0290F6
:103D50000121504600F0D8FB0C9B05465BB31A4688
:103D60000146504600F06AFC069B012B054618DC14
:103D7000009B83B9019BC3F3130373B9019B23F029
:103D800000473F0D3F054FB1059B013309F1010984
:103D90000593012702E0002700E0009F0C9B73B110
:103DA00000E000272B6905EB8303186900F05FFB37
:103DB000C0F1200004E0069B012BD9DD0C9F0120FF
:103DC000059B184410F01F000ED0C0F12003042BF7
:103DD00008DDC0F11C0008E0185B0008000014407A
:103DE0000000244006D018461C30059B0344814443
:103DF00004440593B9F1000F05DD4A460299504687
:103E000000F06AFC0290059B002B05DD29461A464E
:103E1000504600F061FC05460D9BEBB12946029827
:103E200000F0ABFC002817DA00230A220299504662
:103E300000F0E2FA089B02900BF1FF3B002B00F030
:103E40005881002331460A22504600F0D5FA039BE0
:103E5000002B064637DC33E0B8F1000F2ADC069B66
:103E6000022B27DDCDF80C80039B83B92946052260
:103E7000504600F0C1FA01460546029800F07DFC6C
:103E800000280DDC03E03D4600E000252E46099B9E
:103E9000049C6FEA030B0AE0DDF828B03D463E467D
:103EA000049B049A5C1C312313700BF1010BB04688
:103EB0000026F7E0089BCDF80C8023B9049CB1E004
:103EC000069B022BD0DC002C05DD314622465046F5
:103ED00000F002FC06469FB17168504600F040FABF
:103EE000326902320446920006F10C010C30FEF7F2
:103EF00033FE01222146504600F0EEFB804600E0F2
:103F0000B046009BDDF8109003F0010305932946AD
:103F10000298FFF7CDFA3146044600F130070298C7
:103F200000F02BFC424600902946504600F041FC30
:103F3000C36802463BB901460790029800F01DFC99
:103F4000079A034600E0012311465046079300F00C
:103F50003CFA079B4BB9069A3AB9059A2AB9392F08
:103F600028D0009B002B1ADC1BE0009A002A04DBFF
:103F70001AD1069AC2B9059AB2B9002B11DD0122F5
:103F80000299504600F0A8FB2946029000F0F5FB8C
:103F9000002802DC05D1FA0703D5392F0AD004F135
:103FA000310709F101040CE0002B09F101040BDDDC
:103FB000392F05D1392389F8003009F1010954E07E
:103FC000013789F800706DE0049B039A04F8017CC6
:103FD000E31A9342A1463AD000230A22029950469E
:103FE00000F00AFA464502904FF000034FF00A0233
:103FF0003146504604D100F0FFF90646804686E778
:1040000000F0FAF94146064600230A22504600F025
:10401000F3F980467BE700230A220299504600F01C
:10402000EBF9029029460298FFF742FA00F13007B7
:1040300004F8017B049B039AE31A9342EBDB049B95
:10404000012AACBF9B180133B046994600260122D5
:104050000299504600F040FB2946029000F08DFB8B
:10406000002802DC15D1FB0713D54C4614F8013C9F
:10407000392B04F1FF3209D1049B934204D10BF197
:10408000010B3123049A02E01446EFE70133137069
:1040900008E04C4614F8013C302B04F1FF3201D10A
:1040A0001446F7E72946504600F08FF9B8F1000FA3
:1040B0000DD02EB1464503D03146504600F085F96B
:1040C0004146504600F081F901E0DDF828B0029940
:1040D000504600F07AF90023109A23700BF1010387
:1040E0001360219B1BB11C6001E008480AE00498A2
:1040F00008E0039B002B3FF7E1AE069B022B7FF706
:10410000DDAEB1E617B0BDE8F08F00BF445A00083D
:10411000014900F0A9B800BF8D500008002310B578
:10412000044603604360836081814366C28103610A
:1041300043618361194608225C30FEF718FD054B88
:104140006362054BA362054BE362054B2462236364
:1041500010BD00BF2D4D00084F4D0008874D0008D1
:10416000AB4D000870B568234D1E5D430E4605F14A
:10417000740100F027FC044640B1002180E84200B1
:104180000C30A06005F16802FEF7F1FC204670BD1E
:10419000836910B5044633BB8364C3640365124B63
:1041A000124A1B688262984204BF0123836100F0B7
:1041B0001FF86060204600F01BF8A060204600F069
:1041C00017F80022E06004216068FFF7A7FF0122D2
:1041D0000921A068FFF7A2FF02221221E068FFF781
:1041E0009DFF0123A36110BD305A00081141000852
:1041F000F8B51C4B1E68B369074613B93046FFF784
:10420000C7FF4836B4687368013B04D4B4F90C5056
:104210007DB16834F8E733680BB13668F2E7042102
:104220003846FFF79FFF30600028F6D10C233B6033
:10423000F8BD4FF6FF73E3810123A3816566256016
:10424000A560656025616561A5610822294604F1C4
:104250005C00FEF78CFC6563A563A564E5642046FD
:10426000F8BD00BF305A00082DE9F8438046894662
:1042700000F14804002694B1A5686768013F0CD49A
:10428000AB89012B07D9B5F90E30013303D029468C
:104290004046C84706436835F0E72468EBE73046F8
:1042A000BDE8F8830048704774000020024B0146C7
:1042B000186800F087BB00BF7000002000000000FD
:1042C00001F0FF01102A2BDB10F0070F08D010F8C7
:1042D000013B013A8B422DD010F0070F42B3F6D1CB
:1042E000F0B441EA012141EA014122F007047FF0E4
:1042F00000070023F0E80256083C85EA010586EA3B
:10430000010685FA47F5A3FA87F586FA47F6A5FA76
:1043100087F68EB9EED1F0BC01F0FF0102F0070282
:1043200032B110F8013B013A83EA010313B1F8D12D
:104330000020704701387047002D06BF354603380E
:10434000073815F0010F07D1013015F4807F02BF47
:10435000013015F4C03F0130F0BC0138704700BF98
:1043600070B5456A04460E463DB91020FFF79EFF22
:104370006062456085600560C560656AEB6843B151
:10438000636ADB6853F8260078B1026843F8262098
:1043900017E021220421204600F0B8FA636AE860A1
:1043A000DB68002BECD1002070BD012101FA06F57D
:1043B0006A1D9200204600F0A9FA0028F3D046605A
:1043C000856000230361C36070BD70B5446A064612
:1043D0000D463CB91020FFF769FF706244608460AD
:1043E0000460C4603DB1736A6A68DB6853F82210E8
:1043F000296043F8225070BD2DE9F0410D691F4638
:1044000006460C4601F1140E0023DEF8000081B2CE
:1044100002FB01710F0C000C02FB007089B201332A
:1044200001EB00419D424FEA10474EF8041BECDCC3
:10443000D7B1A3689D4212DB616830460131FFF7B6
:104440008FFF2269023204F10C01804692000C3089
:10445000FEF782FB21463046FFF7B7FF444604EBE8
:10446000850301355F6125612046BDE8F081030CBD
:104470001B0413B90004102300E0002310F07F4F49
:1044800004BF0002083310F0704F04BF0001043372
:1044900010F0404F04BF80000233002803DB4200CD
:1044A00003D5581C70471846704720207047036892
:1044B00013F007020BD0D90722D49A074BBF5B0831
:1044C0009B08036003604CBF01200220704799B233
:1044D00009B91B0C102213F0FF0F04BF1B0A08328E
:1044E000190704BF1B090432990704BF9B08023255
:1044F000D90702D45B0805D001320360104670472B
:10450000002070472020704710B50C460121FFF7AE
:1045100027FF01224461026110BD2DE9F74F1446C7
:104520000A6923699A42B8BF0B468846BCBFA046B9
:104530001C46D8F81070D4F81090D8F80830D8F885
:10454000041007EB09069E42C8BF0131FFF708FFC0
:1045500000F1140505EB860C2B460022634502D2C0
:1045600043F8042BFAE704F1140208F1140102EBFA
:10457000890301EB87070093009B0192934257D96F
:10458000B2F800B0BBF1000F23D08946AE464FF021
:10459000000859F8044BBEF800A0A3B20BFB03A31C
:1045A0004FEA144ADEF8004043444FEA14480BFB3C
:1045B0000A8404EB1344F2469BB243EA04434F459A
:1045C0004FEA14484AF8043B01D9D646E1E7CEF851
:1045D0000480019BB3F802A00432BAF1000F21D08D
:1045E0002B682C4689464FF00008B9F800E0B4F873
:1045F00002B00AFB0EBEF044A3469BB243EA084356
:104600004BF8043B59F8043BB4F804E01B0C0AFBDC
:1046100003E303EB18434F454FEA134801D95C46C7
:10462000E3E763600435A7E75CF8043D13B9013E96
:10463000002EF9DC066103B0BDE8F08F2DE9F843E8
:10464000154612F0030206460F4607D0013A214CE8
:10465000002354F82220FFF7CFFE0746AD1036D0D6
:10466000746A3CB91020FFF721FE706244608460D8
:104670000460C460D6F82480D8F808404CB940F2F1
:1046800071213046FFF740FF0023C8F808000446B8
:1046900003604FF00008EB070AD539462246304642
:1046A000FFF73BFF394681463046FFF78EFE4F4607
:1046B0006D100CD0206808B10446ECE72246214674
:1046C0003046FFF72AFF2060C0F80080F4E7384644
:1046D000BDE8F883E05A00082DE9F0470C464FEAA0
:1046E000621A26694968A368564407469146751CB4
:1046F000AB4202DA01315B00FAE73846FFF730FEE1
:104700000023804600F114011A46534503DA41F8AC
:1047100023200133F9E72AEAEA73206901EB8303D6
:1047200019F01F0904F1140101EB800E14D0C9F136
:10473000200C0022086800FA09F002439A4643F868
:10474000042B51F8042B8E4522FA0CF2F2D8CAF849
:10475000042042B1B51C06E0043B51F8042B43F899
:10476000042F8E45F9D8013D3846C8F8105021462F
:10477000FFF72BFE4046BDE8F08703690A699B1AE4
:1047800010B511D192001430143183180A4453F833
:10479000044D52F8041D8C4202D007D3012010BDF5
:1047A0009842F4D3002010BD184610BD4FF0FF30E2
:1047B00010BD2DE9F8430C46074611462046154624
:1047C000FFF7DBFF061E08D131463846FFF7C8FD6C
:1047D000012303614661BDE8F883BCBF23462C4634
:1047E00038466168BABF1D4601260026FFF7B8FDAE
:1047F0002B69C660266905F11409143404EB860799
:1048000009EB830800F114054FF0000C54F8043B49
:1048100059F8042B1CFA83F11FFA82FE120CCEEB1E
:104820000101C2EB134303EB214389B24FEA234C4E
:10483000C84541EA0343A64645F8043BE6D8BE45D1
:104840000ED25EF8041B1CFA81F2131403EB114321
:1048500092B242EA03424FEA234C45F8042BEEE7BA
:1048600055F8043D0BB9013EFAE70661BDE8F8834F
:104870002DE9F7430E46012159EC108B1546FFF741
:104880006FFDC9F30A540746C9F313030CB143F48F
:1048900080130193B8F1000F19D002A840F8088DD9
:1048A000FFF705FE009B48B1019AC0F1200102FA12
:1048B00001F10B43C2407B61019200E07B61019BEF
:1048C000BB61002B14BF02210121396107E001A85F
:1048D000FFF7EDFD019B7B6101213961203034B18F
:1048E000A4F2334404443460C0F1350009E007EB1E
:1048F0008103A0F2324030601869FFF7B8FDC0EBC9
:1049000041102860384603B0BDE8F08338B502FB9B
:1049100001F4214600F056F8054618B12246002160
:10492000FEF725F9284638BD38B50546002946D09A
:1049300051F8043C0C1F002BB8BFE41800F042FCF7
:104940001F4A1368114613B96360146032E0A34232
:104950000ED92268A018834204BF18685B686360A0
:1049600004BF121822600C6024E0A24203D8134650
:104970005A68002AF9D118681918A1420BD1216888
:10498000014458188242196014D1106852685A6064
:10499000014419600EE002D90C232B600AE0216863
:1049A0006018824204BF10685268626004BF091830
:1049B00021605C602846BDE8384000F004BC38BD8A
:1049C000F82C002070B5CD1C25F0030508350C2D02
:1049D00038BF0C25002D064601DBA94202D90C2365
:1049E000336046E000F0EEFB234B1C681A4621467C
:1049F000A1B10B685B1B0ED40B2B03D90B60CC1839
:104A0000CD501EE08C420DBF63684B68636013603D
:104A100018BF0C4615E00C464968E9E7174C2368B7
:104A20001BB9304600F072F920602946304600F08C
:104A30006DF9431C18D0C41C24F00304A0420DD10E
:104A40002560304600F0BFFB04F10B00231D20F071
:104A50000700C31A0ED05A42E25070BD211A3046E8
:104A600000F054F90130EBD10C233360304600F0F4
:104A7000AAFB002070BD00BFF82C0020F42C002001
:104A80009368013B002B10B4936009DA9469A34248
:104A900002DBCBB20A2B03D15DF8044B00F08AB9DC
:104AA0001368581C10601970C8B25DF8044B704749
:104AB000F8B506460F461446D518AC4208D03A461B
:104AC00014F8011B3046FFF7DBFF431CF5D100E073
:104AD0000020F8BD2DE9F04F9DB00C46174603931A
:104AE000064618B183690BB9FFF752FB7F4B9C4216
:104AF00001D1746808E07E4B9C4201D1B46803E0A8
:104B00007C4B9C4208BFF468A38918070CD5236925
:104B100053B10023099320238DF8293030238DF8D9
:104B20002A30DFF8D4B144E02146304600F0A8F93D
:104B30000028EED04FF0FF30D5E0039A111D126827
:104B40000391002A80F28C80524243F002000792C7
:104B5000049098F800302E2B00F08480032298F8FF
:104B600000106548FFF7ACFB48B14023CBEB0000D9
:104B700003FA00F0049B1843049008F1010898F828
:104B800000105E488DF82810062208F10107FFF793
:104B900097FB002800F09580594B002B40F088804F
:104BA000039B073323F0070308330393099B534404
:104BB0000993B846454615F8013B1BB9B8EB070900
:104BC0000FD003E0252BF9D0A846F3E74B463A4631
:104BD00021463046FFF76CFF01307FD0099B4B44E4
:104BE000099398F80030002B78D000234FF0FF3263
:104BF00004930793059206938DF853301A93012777
:104C0000052229783F48FFF75BFB05F10108049B6B
:104C100038B13C4A801A07FA00F018430490454620
:104C2000EEE7D90644BF20228DF853201A0744BF6F
:104C30002B228DF853202A782A2A3FF47EAF079A38
:104C400000210A20A846013598F80030303B092B96
:104C500003D800FB02320121F4E700293FF479AFC9
:104C6000079276E798F801302A2B0BD1039B1A1D87
:104C70001B680392002BB8BF4FF0FF3308F1020806
:104C800005936BE70023059308F1010019460A25F7
:104C90008046013098F80020303A092A03D805FBF5
:104CA00001210123F4E7002B3FF458AF059155E7AC
:104CB00003AB00932246144B04A93046FDF7F4FFE2
:104CC00007E003AB009322460F4B04A93046FEF7E2
:104CD0009FFAB0F1FF3F82467FF468AFA3895B067D
:104CE0003FF528AF09981DB0BDE8F08F785A00084D
:104CF000985A0008B85A0008E65B0008EA5B00080A
:104D0000A92C0008E05B0008B14A000838B5064C41
:104D1000002305460846236000F08AFD431C02D1AB
:104D2000236803B12B6038BDE042002010B50C466B
:104D3000B1F90E1000F048FA0028ABBF636DA389EB
:104D40001B1823F48053ACBF6365A38110BD2DE90C
:104D5000F0411F468B89DB0505460C46164605D5F6
:104D600002230022B1F90E1000F0BAF9A389B4F9B8
:104D70000E1023F48053A38132463B462846BDE8FB
:104D8000F04100F06BB810B50C46B1F90E1000F010
:104D9000A7F9431CA38915BF606523F4805343F42E
:104DA0008053A38118BFA38110BDB1F90E1000F08C
:104DB000D5B80000F8B50F461446064618B1836909
:104DC0000BB9FFF7E5F9224B9C4201D1746808E06A
:104DD000204B9C4201D1B46803E01F4B9C4208BFAA
:104DE000F468A369A360A3891A0709D523693BB1B5
:104DF00023682069181A63699842FDB20FDB08E046
:104E00002146304600F03CF80028F1D04FF0FF304A
:104E1000F8BD2146304600F039F90028F6D1A368E4
:104E2000013BA36023685A1C22601F706269431C07
:104E3000934204D0A389DB0707D50A2D05D121466B
:104E4000304600F023F90028E0D12846F8BD00BF25
:104E5000785A0008985A0008B85A000838B5074C24
:104E6000054608461146002222601A46FBF7FAFA68
:104E7000431C02D1236803B12B6038BDE0420020FF
:104E8000324B70B51D6806460C4625B1AB6913B9A7
:104E90002846FFF77DF92E4B9C4201D16C6808E053
:104EA0002C4B9C4201D1AC6803E02B4B9C4208BFC9
:104EB000EC68B4F90C309AB215071DD4D00602D4B0
:104EC000092232603AE0510712D5616B41B104F119
:104ED0004403994202D03046FFF726FD0023636366
:104EE000A38923F02403A381002363602369236043
:104EF000A38943F00803A38123694BB9A38903F471
:104F00002073B3F5007F03D02146304600F01EF930
:104F1000A28912F0010305D00023A36063695B42FC
:104F2000A36103E0920758BF6369A36023695BB97B
:104F3000B4F90C3003F0800080B230B143F040038C
:104F4000A3814FF0FF3070BD002070BD70000020C5
:104F5000785A0008985A0008B85A000838B5064C24
:104F6000002305460846236000F03AFC431C02D1AA
:104F7000236803B12B6038BDE04200208A892DE907
:104F8000F041054610070C4659D44B68002B02DC53
:104F90000B6C002B17DDE66AAEB102F480520023E1
:104FA00092B22F682B600AB1606D15E0216A01236F
:104FB0002846B047411C0FD12B686BB11D2B01D087
:104FC000162B03D12F600020BDE8F081A38943F0A8
:104FD0004003A381BDE8F081A3895A0705D5636822
:104FE000C01A636B0BB1236CC01A00230246E66A39
:104FF000216A2846B047431CA38906D129681D2988
:105000003AD8214ACA40D60736D500226260D90470
:105010002269226004D5421C01D12B6803B9606566
:10502000616B2F600029CED004F14403994202D075
:105030002846FFF779FC00206063BDE8F0810F6926
:10504000002FC0D093070E6808BF4B690F6018BFD0
:105050000023C7EB06088B6002E00744C0EB08089A
:10506000B8F1000FAFDD43463A46216AA66A2846EA
:10507000B0470028F1DCA38943F04003A3814FF03F
:10508000FF30BDE8F08100BF0100402038B50B695A
:1050900005460C46DBB118B183690BB9FFF778F808
:1050A0000C4B9C4201D16C6808E00B4B9C4201D137
:1050B000AC6803E0094B9C4208BFEC68B4F90C30C3
:1050C0002BB121462846BDE83840FFF757BF0020E6
:1050D00038BD00BF785A0008985A0008B85A00082E
:1050E00038B5074C054608461146002222601A468C
:1050F00000F08EFB431C02D1236803B12B6038BD46
:10510000E042002070B50E46B1F90E10002990B0B3
:1051100014461D4606DA00232B60B3891A060ED505
:1051200040230EE001AA00F061F80028F3DB029AA8
:1051300002F47042A2F500535A425A412A604FF4D9
:1051400080630020236010B070BD00008B8973B5B0
:105150009E0705460C4610D401AB6A46FFF7D2FF06
:10516000009906462846FFF72DFC68B9B4F90C30C3
:105170009A0522D443F00203A38104F1470323607C
:1051800023610123636118E00D4BAB62A3892060AA
:1051900043F08003A381009B6361019B20614BB1BD
:1051A000B4F90E10284600F033F818B1A38943F083
:1051B0000103A381A0893043A08102B070BD00BF6C
:1051C000114100087047704738B5074C054608463E
:1051D0001146002222601A4600F022FB431C02D135
:1051E000236803B12B6038BDE042002038B5074C7E
:1051F0000023054608461146236000F0F9FA431CD7
:1052000002D1236803B12B6038BD00BFE04200200B
:1052100038B5064C002305460846236000F0F0FA36
:10522000431C02D1236803B12B6038BDE04200204B
:1052300070B54FF0FF0C4CF4E06C1CEA11541DBF2C
:105240001CEA135594EA0C0F95EA0C0F00F0DEF8F7
:105250002C4481EA030621EA4C5123EA4C5350EADC
:10526000013518BF52EA033541F4801143F480132D
:1052700038D0A0FB02CE4FF00005E1FB02E506F0BE
:105280000042E0FB03E54FF00006E1FB03569CF013
:10529000000F18BF4EF0010EA4F1FF04B6F5007F19
:1052A00064F5407404D25FEA4E0E6D4146EB06068B
:1052B00042EAC62141EA55514FEAC52040EA5E5014
:1052C0004FEACE2EB4F1FD0C88BFBCF5E06F1ED8BE
:1052D000BEF1004F08BF5FEA500E50F1000041EBF5
:1052E000045170BD06F0004646EA010140EA0200A2
:1052F00081EA0301B4EB5C04C2BFD4EB0C0541EAC4
:10530000045170BD41F480114FF0000E013C00F3D8
:10531000AB8014F1360FDEBF002001F0004170BDFC
:10532000C4F10004203C35DA0C341BDC04F1140415
:10533000C4F1200500FA05F320FA04F001FA05F2A1
:1053400040EA020001F0004221F0004110EBD3706E
:1053500021FA04F642EB06015EEA430E08BF20EA9A
:10536000D37070BDC4F10C04C4F1200500FA04F33D
:1053700020FA05F001FA04F240EA020001F00041CF
:1053800010EBD37041F100015EEA430E08BF20EA42
:10539000D37070BDC4F1200500FA05F24EEA020E8A
:1053A00020FA04F301FA05F243EA020321FA04F0B9
:1053B00001F0004121FA04F220EA020000EBD37070
:1053C0005EEA430E08BF20EAD37070BD94F0000F70
:1053D0000FD101F00046400041EB010111F4801FA4
:1053E00008BF013CF7D041EA060195F0000F18BF55
:1053F000704703F00046520043EB030313F4801F91
:1054000008BF013DF7D043EA0603704794EA0C0F4A
:105410000CEA135518BF95EA0C0F0CD050EA410660
:1054200018BF52EA4306D1D181EA030101F00041DD
:105430004FF0000070BD50EA410606BF1046194605
:1054400052EA430619D094EA0C0F02D150EA013611
:1054500013D195EA0C0F05D152EA03361CBF104652
:1054600019460AD181EA030101F0004141F0FE41F1
:1054700041F470014FF0000070BD41F0FE4141F475
:10548000780170BD70B54FF0FF0C4CF4E06C1CEA75
:1054900011541DBF1CEA135594EA0C0F95EA0C0F2A
:1054A00000F0A7F8A4EB050481EA030E52EA0335E5
:1054B0004FEA013100F088804FEA03334FF0805506
:1054C00045EA131343EA12634FEA022245EA111533
:1054D00045EA10654FEA00260EF000419D4208BFE4
:1054E000964244F1FD0404F5407402D25B084FEA91
:1054F0003202B61A65EB03055B084FEA32024FF43D
:1055000080104FF4002CB6EB020E75EB030E22BF99
:10551000B61A754640EA0C005B084FEA3202B6EB59
:10552000020E75EB030E22BFB61A754640EA5C0008
:105530005B084FEA3202B6EB020E75EB030E22BF98
:10554000B61A754640EA9C005B084FEA3202B6EB99
:10555000020E75EB030E22BFB61A754640EADC0058
:1055600055EA060E18D04FEA051545EA16754FEABA
:1055700006164FEAC30343EA52734FEAC2025FEAD8
:105580001C1CC0D111F4801F0BD141EA00014FF067
:1055900000004FF0004CB6E711F4801F04BF014338
:1055A0000020B4F1FD0C88BFBCF5E06F3FF6AFAE54
:1055B000B5EB030C04BFB6EB020C5FEA500C50F1E4
:1055C000000041EB045170BD0EF0004E4EEA113167
:1055D00014EB5C04C2BFD4EB0C0541EA045170BD6E
:1055E00041F480114FF0000E013C90E645EA060EB2
:1055F0008DE60CEA135594EA0C0F08BF95EA0C0FE0
:105600003FF43BAF94EA0C0F0AD150EA01347FF427
:1056100034AF95EA0C0F7FF425AF104619462CE7FE
:1056200095EA0C0F06D152EA03353FF4FDAE104661
:10563000194622E750EA410618BF52EA43067FF4B2
:10564000C5AE50EA41047FF40DAF52EA43057FF442
:10565000EBAE12E74FF0FF3C06E000BF4FF0010C4D
:1056600002E000BF4FF0010C4DF804CD4FEA410CB1
:105670007FEA6C5C4FEA430C18BF7FEA6C5C1BD07E
:1056800001B050EA410C0CBF52EA430C91EA030FFF
:1056900002BF90EA020F0020704710F1000F91EA5C
:1056A000030F58BF994208BF90422CBFD8176FEA2A
:1056B000E37040F0010070474FEA410C7FEA6C5CF8
:1056C00002D150EA013C07D14FEA430C7FEA6C5CFF
:1056D000D6D152EA033CD3D05DF8040B704700BF2B
:1056E0008446104662468C461946634600E000BF79
:1056F00001B5FFF7B7FF002848BF10F1000F01BD4B
:105700004DF808EDFFF7F4FF0CBF012000205DF815
:1057100008FB00BF4DF808EDFFF7EAFF34BF01209A
:1057200000205DF808FB00BF4DF808EDFFF7E0FF33
:1057300094BF012000205DF808FB00BF4DF808ED84
:10574000FFF7CEFF94BF012000205DF808FB00BFEB
:105750004DF808EDFFF7C4FF34BF012000205DF8CD
:1057600008FB00BF4FEA410C7FEA6C5C02D150EAB3
:10577000013C0AD14FEA430C7FEA6C5C02D152EA49
:10578000033C02D14FF0000070474FF0010070471A
:105790004FEA410212F5001215D211D56FF4787359
:1057A000B3EB625212D94FEAC12343F0004343EAFC
:1057B000505311F0004F23FA02F018BF40427047D7
:1057C0004FF00000704750EA013005D111F0004061
:1057D00008BF6FF0004070474FF00000704700BFF7
:1057E000024B58221A604FF0FF307047E042002011
:1057F000024B58221A604FF0FF307047E042002001
:10580000024B58221A600020704700BFE04200207F
:10581000024B58221A604FF0FF307047E0420020E0
:10582000024B58221A604FF0FF307047E0420020D0
:10583000044B1968024609B9034919601868024403
:105840001A607047FC2C0020E8420020FEE70000B0
:10585000F8B500BFF8BC08BC9E467047F8B500BF5D
:10586000F8BC08BC9E46704700000006000400001B
:105870000D0A0000627566203D2025730A000000B5
:105880006E756D203D2025660A0D00004C65643262
:105890005F5461736B2D2D2D303132310D000000BE
:1058A00069203D2025640D004C6564325F546173AE
:1058B0006B2D2D2D303132360D0000004170705FA0
:1058C0005461736B312D30313231706D0A0D00002F
:1058D00000000100020001000300010002000100BD
:1058E00004000100020001000300010002000100A9
:1058F0000500010002000100030001000200010098
:105900000400010002000100030001000200010088
:105910000600010002000100030001000200010076
:105920000400010002000100030001000200010068
:105930000500010002000100030001000200010057
:105940000400010002000100030001000200010048
:105950000700010002000100030001000200010035
:105960000400010002000100030001000200010028
:105970000500010002000100030001000200010017
:105980000400010002000100030001000200010008
:1059900006000100020001000300010002000100F6
:1059A00004000100020001000300010002000100E8
:1059B00005000100020001000300010002000100D7
:1059C00004000100020001000300010002000100C8
:1059D0003F00000075432F4F532D49492049646C07
:1059E0006500000075432F4F532D494920537461C2
:1059F0007400000075432F4F532D494920546D7298
:105A00004C6F636B0000000075432F4F532D4949C5
:105A100020546D725369676E616C000075432F4F9F
:105A2000532D494920546D720000000043000000CE
:105A300010000020494E4600696E66004E414E003F
:105A40006E616E00300030313233343536373839DC
:105A500041424344454600303132333435363738DD
:105A60003961626364656600496E66696E6974795E
:105A7000004E614E00000000000000000000000029
:105A80000000000000000000000000000000000016
:105A90000000000000000000000000000000000006
:105AA00000000000000000000000000000000000F6
:105AB00000000000000000000000000000000000E6
:105AC00000000000000000000000000000000000D6
:105AD0000000000000000000504F534958002E0005
