:020000040800F2
:1000000000000220F51600083B1700083D17000805
:100010003F170008411700084317000800000000C0
:10002000000000000000000000000000451700086C
:100030004717000800000000BD190008191C00083F
:100040004F170008511700085317000855170008EC
:1000500057170008591700085B1700085D170008BC
:100060005F1700086117000863170008651700088C
:1000700067170008691700086B1700086D1700085C
:100080006F1700087117000873170008751700082C
:1000900077170008791700087B1700087D170008FC
:1000A0007F170008811700088317000885170008CC
:1000B00087170008891700088B1700082D0600080D
:1000C0008F1700089117000893170008951700086C
:1000D00097170008750800089B1700089D1700086F
:1000E0009F170008A1170008A3170008A51700080C
:1000F000A7170008A9170008AB170008AD170008DC
:10010000AF170008B1170008B3170008B5170008AB
:10011000B7170008B9170008BB170008BD1700087B
:10012000BF170008C1170008C3170008C51700084B
:10013000C7170008C9170008CB170008CD1700081B
:10014000CF170008D1170008D3170008D5170008EB
:10015000D7170008D9170008DB170008DD170008BB
:10016000DF170008E1170008E3170008E51700088B
:10017000E7170008E9170008EB170008ED1700085B
:10018000EF170008F117000810B5054C237833B9B4
:10019000044B13B10448AFF300800123237010BD5A
:1001A000C800002000000000EC630008084B10B5F8
:1001B0001BB108490848AFF300800848036803B939
:1001C00010BD074B002BFBD0BDE81040184700BF07
:1001D00000000000CC000020EC630008C8000020F4
:1001E00000000000154B002B08BF134B9D46A3F5E4
:1001F000803A00218B460F461348144A121A02F027
:100200009EFE0F4B002B00D098470E4B002B00D0CA
:1002100098470020002104000D000D48002802D05E
:100220000C48AFF3008002F059FE2000290001F0D5
:10023000FDF902F03FFE00BF0000080000000220B0
:100240000000000000000000C80000200C38002062
:10025000000000000000000000B583B000F0F0F9DD
:1002600000200090012308224FF4E13100F01CFA35
:1002700003B05DF804FB00BF08B501F03FFB014B84
:10028000186808BD2000002038B52D480C4600F045
:1002900055FF2C4B984228D01DD92B4B984214D097
:1002A000023398423FD1657875BB2A464FF4C0614E
:1002B000234800F039FF2946214800F021FF0121A1
:1002C0001F4800F003FF257038BDE1781C48BDE8E9
:1002D000384000F023BF1D4B984223D1A178184825
:1002E0000022BDE8384000F0FFBEA388E2889BB240
:1002F0009A4201D96378BBB100224FF48061104863
:10030000BDE8384000F010BF114BE3604FF480614E
:100310000B48012200F008FF01210948BDE83840E0
:1003200000F0C6BE38BD38BDA168A38804489BB2A2
:100330005A1C92B2A280C95CBDE8384000F0EEBE03
:100340000054004080000700820007000100030005
:100350005503000870B522480C4600F0EFFE214B13
:1003600098422CD03E3398420AD03F3B984200D06E
:1003700070BDA1781A480122BDE8704000F0B4BEFB
:10038000A668A5881648ADB26B1C9BB2A38000F08E
:10039000C7FE7055A388E2889BB2511E8B4214D0D1
:1003A000A3889BB29A42E3D80F4BE36000224FF43C
:1003B000C0610B4800F0B8FE00232370D8E7A28884
:1003C000E38892B2013B9A42D2D10021044800F066
:1003D00097FE01210248BDE8704000F077BE00BFE3
:1003E0000054004002000300890200082DE9F04398
:1003F0003D4DDFF8FC8089B0074689460220012187
:1004000000F00CFF01214FF4804000F023FF28464C
:10041000002100F03FFE284600F094FD40460422F3
:10042000082100F079FD40460422092100F074FD06
:1004300000244FF48072404602A902230292012652
:100440008DF80C308DF80D408DF80E408DF80F4072
:1004500000F00EFD4FF4007302A9404602938DF8A0
:100460000E6000F005FD31464FF4001000F0E4FE90
:10047000224628464FF4C06100F056FE08A94BF60C
:10048000FF73284641F8109D4FF0300E4FF4806204
:10049000ADF816304FF48043ADF818E0ADF81A20EF
:1004A000ADF81C30ADF8144000F082FD0F498DF816
:1004B00006403B01CA180427CC504FF01F0E0DEB2D
:1004C000070054609460D4608DF804E08DF80760F4
:1004D0008DF8057000F084FB3146284600F0DAFD07
:1004E00009B0BDE8F08300BF00540040E4000020E4
:1004F00000040240F8B5BDF8184048B951B32CB11A
:10050000154E357805F0FF0E25B1F8BD2046F8BD33
:100510000020F8BD0127DFF848C0377010460D46AF
:10052000A6F804E03A46F37086F801E0B070B560D2
:100530004FF4C061C6F80CC0F480084800F0F4FD28
:100540003946064800F0DCFD3946044800F0B0FDAD
:100550002046F8BD0846F8BDE400002000540040E5
:10056000890200082DE9F047BDF8204008B901B123
:1005700014B90020BDE8F087DFF884801C481646D7
:100580000D464FF4B9721B491F4603F04FF998F816
:10059000003003F0FF0A002BEBD14FF4BB7215497A
:1005A000134803F043F94FF00109134B88F800900A
:1005B0004A46A8F804A01148C8F8085088F8026014
:1005C000C8F80C304FF4C06188F80370A8F80640F2
:1005D00088F8019000F0A8FD4946084800F090FD19
:1005E0004946064800F064FD2046BDE8F08700BF9C
:1005F000446000084C600008890200080054004074
:10060000E400002008B50001064B1B5C0BB1012083
:1006100008BD4FF40031044800F098FD003018BFC9
:10062000012008BDE4000020005400400349CB68CD
:1006300013B1CB6800201847704700BFE4000020CA
:1006400010B5012182B0102000F0E8FD4FF46044A5
:10065000012200236946074800948DF804208DF894
:1006600007208DF806308DF8053000F001FC02B04F
:1006700010BD00BF00100240084B094A984228BF35
:100680001846A2FB003292094FF47A7303FB12035F
:1006900000219BB2D2B2084602F0BABAA08601008D
:1006A000D34D6210FFF7E8BD2DE9F04196B00E463C
:1006B0004FF480000121984617469DF8705000F0D5
:1006C000ADFD0121084600F0A9FD0121102000F038
:1006D000C1FD4F4800F0E8FD072209214D4800F018
:1006E0001BFC07220A214B4800F016FC4FF4007354
:1006F0000222002401A9019346488DF80820012315
:100700008DF80A408DF809408DF80B3000F0B0FBF1
:100710004FF4806301A93F48019300F0A9FB03A8AF
:1007200000F088FEB8F1020F14BF22464FF40052C9
:10073000092F14BF23464FF48053022DADF810301B
:1007400098BF354B324898BF33F8154003960C23B9
:1007500003A9ADF81630ADF81220ADF8144000F042
:1007600007FE012280212A482C4F00F085FE01223D
:1007700040F22551264800F089FE0121244800F06E
:1007800065FE002401230325252268468DF80330E9
:100790008DF800208DF801508DF8024000F020FA0D
:1007A0004FF4C0621E491F4800F0E2F84FF4C062E7
:1007B0001D491E4800F0DCF81D4800F049FA2146AA
:1007C0001B4800F01BFB07A800F006FB4FF000627F
:1007D000184B139507A9079208934FF4003204238E
:1007E0001348119240264FF4806512930B940C9499
:1007F0000E940F94109409970A960D9500F0C0FA84
:1008000021460B4800F004FB16B0BDE8F08100BFA4
:100810000010014000000240586000081401002050
:10082000140D0020F4000020140700200401002013
:10083000B86402400410014000B540F2255183B075
:100840000A4800F045FE70B1084800F011FE02A908
:10085000012201F8010D064800F096F89DF80710F6
:10086000024800F001FE03B05DF804FB00100140F7
:10087000F400002008B501F07DF8064A1378013332
:10088000137001F07BF80020FFF7D6FFBDE80840A9
:1008900001F002BB602F002010B50348144600F0A1
:1008A00073F8204610BD00BF0401002038B5174C76
:1008B0006268A3689A4204D0154800F0B5FA05466C
:1008C00000B138BD124800F0B3FA2028F9D1402118
:1008D000104800F0F9FD4FF4806220460E4900F008
:1008E0007FF8294604460A4800F088FA4FF0205164
:1008F000074800F0BBFAA1B2054800F093FA0121C5
:100900000348BDE8384000F079BA00BF0401002078
:10091000B8640240001001401401002030B583B0DB
:1009200004460D46009103460D220A210F4800F0AF
:10093000E5F808B103B030BD009523460A220D2129
:100940000A4800F0DBF80028F4D12B4622460D219E
:10095000064800F06DF80028ECD104482B462246EA
:100960000A2103B0BDE8304000F062B8F400002076
:1009700010B111B112B9FEE7FEE7FEE70260C160F7
:10098000416081600020704731B3034628B340685E
:1009900020B3986818B3F0B48F18B94219D09C6886
:1009A000651C9D6011F8015B2570DE681D689C6800
:1009B0003544AC425D6824BF9E603446AC42ECD105
:1009C00018680134304484425C6028BF5E60B942DC
:1009D000E5D11046F0BC7047FEE7FEE7FEE7FEE714
:1009E00011B3034608B370B44468FCB18668F6B12D
:1009F0004D1E002012E0904214D01E68B04211D269
:100A00005960217805F8011FDE6819685C68314477
:100A10008C4224BF5E6034469E680130B44204F1CB
:100A20000101E8D170BC7047FEE7FEE7FEE7FEE794
:100A30005AB32DE9F041074640B345683DB3D0F8BD
:100A40000880B8F1000F23D0454500681AD000286F
:100A500046D08C4629788C451BD0461EF9682C461A
:100A60004FF0000E06E076450EF1010E0AD0207818
:100A7000604510D0386801340844844228BF0C46D1
:100A8000A045F0D10020BDE8F081FEE7FEE7FEE7DB
:100A9000FEE7F9682C4638683E6801340844844211
:100AA00038BF2146A94221D023B3DEB102F1FF3E77
:100AB000002203E09A4210D096420ED0284601321E
:100AC00010F8014B0EF8014FFD683C682C44A04221
:100AD00038BF0546A9421046ECD17D60BDE8F081E3
:100AE000BDE8F0817D603046BDE8F0817D6000208A
:100AF000BDE8F0817D601846BDE8F0812DE9F04346
:100B00009046079A002B53D00546002851D04768DD
:100B1000002F4FD099468368002B4CD09F4200682D
:100B20004CD0002848D03C464FF0000E0EE016F89E
:100B300001EBEC68D5F800C0A444664538BF3446E4
:100B4000A3425FFA8EFE39D001383AD08E45264650
:100B5000EDD194F800E0C645E9D1A3422ED0EE686D
:100B60002B68D5F800E0013433449C4238BF264658
:100B7000BE4230D05AB3BEF1000F24D009F1FF3984
:100B8000002303E09A4210D09E450ED0394601332F
:100B900011F8010B09F8010FEF6828683844814209
:100BA00038BF0F46BE421846ECD16F60BDE8F083F7
:100BB000FEE7FEE7FEE7FEE7BDE8F0830020BDE8C4
:100BC000F083BDE8F0836F607046BDE8F0836F602E
:100BD0001046BDE8F0836F600020BDE8F08300BFE1
:100BE000C3785BB9037818485A09203203F01F0311
:100BF000012101FA03F340F822307047F0B4134B9F
:100C00004778D968827804780F4EC943C1F302212E
:100C1000C1F10405EDB20F2307FA05F50B41EDB262
:100C200013402B4304F1604202F561421B01DBB229
:100C300082F800330378012203F01F015B098A4028
:100C400046F82320F0BC704700E100E000ED00E032
:100C500002683749002310B422F00102212488429F
:100C60000260036043608360C360036144614DD0F0
:100C7000304B984235D0304B984239D02F4B984268
:100C80003DD02F4B984247D02E4B984248D02E4B08
:100C900098421DD02D4B98421ED02D4B984243D0E8
:100CA0002C4B98421DD02C4B984221D02B4B984274
:100CB00025D02B4B98422FD02A4B984230D02A4B2C
:100CC000984205D0294B984206D05DF8044B7047F6
:100CD000274A43F8942CF8E74FF03D5243F8AC2CE8
:100CE000F3E74FF4746243F8202C5DF8044B70472F
:100CF0004FF4741243F8382C5DF8044B70474FF0F2
:100D0000746243F8502C5DF8044B7047194B3D2238
:100D10009A605DF8044B7047174A43F8642CD4E797
:100D2000164A43F87C2CD0E73D2243F8082CCCE748
:100D3000106002402860024040600240586002405B
:100D40007060024088600240A0600240B8600240CB
:100D5000106402402864024040640240586402402B
:100D60007064024088640240A0640240B86402409B
:100D700000003D20006002403D000020400F0020A8
:100D8000F0B401F118028CCA0E68CD684C69354385
:100D9000254315434E6A4C6B8A6B1D433D438B6A5A
:100DA00035431D4306680B4B2C432243334013430A
:100DB0000360CC6A42690B6B22F0070223431343A2
:100DC00043610B6943604B6883608B68C360F0BC10
:100DD000704700BF3F801CF00023036043608360C6
:100DE000C360036143618361C361036243628362E1
:100DF000C362036343638363704700BF036819B929
:100E000023F001030360704743F001030360704760
:100E1000036819B923F020030360704743F02003EF
:100E20000360704741607047406880B2704700BF00
:100E3000406900F03800704710B4094B094C0A4A69
:100E4000A04294BF1846104611F0005F21F0F02137
:100E500021F0821114BFC16081605DF8044B7047BE
:100E6000006002400F64024000640240FFF7E4BFEC
:100E70000022F0B513460126032704E00133102BAE
:100E800002F102022FD00D6806FA03F434EA0505D8
:100E9000F4D1D0F800E007FA02F5ED430EEA050EB2
:100EA000C0F800E091F804E0D0F800C00EFA02FEAD
:100EB0004EEA0C0EC0F800E091F804E00EF1FF3E9F
:100EC000BEF1010F07FA02FC0ED9C46824EA0C0433
:100ED000C460CC79C568944001332C43102BC460A6
:100EE00002F10202CFD1F0BDD0F808E005EA0E050C
:100EF000856091F805E085680EFA02FE4EEA050568
:100F00008560456825EA040444608C7945689C4006
:100F1000A4B22C434460D8E710B4CB0800EB8300A4
:100F200001F00701046A89000F238B4024EA0303C0
:100F30000362036A8A4042EA030101625DF8044BDE
:100F4000704700BF08B5174B984212D0164B984215
:100F50001BD0164B984200D008BD01214FF4000071
:100F600000F086F900214FF40000BDE8084000F0D1
:100F70007FB901214FF4001000F07AF900214FF4FD
:100F80000010BDE8084000F073B901214FF4800063
:100F900000F06EF900214FF48000BDE8084000F039
:100FA00067B900BF0054004000580040005C00409A
:100FB000F0B5044685B068460D46A68800F0E2F814
:100FC000029B314ADFF8C8E0A2FB031226F03F067D
:100FD000970C3604360CB8B20643A680218821F05F
:100FE00001010904090C21802A68724523D85200A6
:100FF000B3FBF2F39BB2032B00F1010098BF042373
:101000002084A38323889BB243F001032380238899
:10101000A9886A8923F4816323F002031B040A432D
:101020001B0C13439BB22380AA892B8913439BB2C9
:10103000238105B0F0BDE8884BF6FF7188421DD0D2
:1010400002EB820202EB8202B3FBF2F39BB243F4A7
:101050008043C3F30B020AB943F001034FF49671C6
:101060000A4801FB07F280FB0201D217C2EBA11272
:10107000013292B243F400432284C2E702EB420001
:10108000B3FBF0F39BB2E4E783DE1B43D34D621066
:10109000A0860100038829B923F001031B041B0C5F
:1010A000038070479BB243F001030380704700BF89
:1010B000038829B923F480731B041B0C0380704739
:1010C0009BB243F480730380704700BF038829B943
:1010D00023F400731B041B0C038070479BB243F482
:1010E00000730380704700BF22B901F0FE0189B28E
:1010F0000182704741F0010189B20182704700BF4F
:10110000038829B923F480631B041B0C03807047F8
:101110009BB243F480630380704700BF0182704735
:10112000008AC0B2704700BF83889BB21AB923EA15
:10113000010181807047194381807047838A028B47
:1011400098B240EA024020F07F40704782B000230E
:101150000A0F0093019301900092009B21F07F41C0
:1011600053B1019B14330193019B1B68194214BFB7
:101170000120002002B07047019B1833090C019335
:10118000F2E700BF10B4214CA36803F00C03042B5A
:101190001BD0082B1CD01E4B03601C4A1D499468B1
:1011A000C4F303140C5DE34043609468C4F38224E9
:1011B0000C5D23FA04F4846092685DF8044BC2F37A
:1011C00042328A5CD340C3607047134B0360E4E74C
:1011D0006368616813F4800F636818BF0E4C01F0F8
:1011E0003F020CBF0A49B4FBF2F1C3F3881308BFF6
:1011F000B1FBF2F101FB03F2044B5B68C3F3014363
:1012000001335B00B2FBF3F30360C6E70038024032
:101210000024F4000000002040787D0129B9054A2F
:10122000136B23EA000010637047024B1A6B1043E4
:10123000186370470038024029B9054A136C23EA45
:10124000000010647047024B1A6C1043186470471A
:101250000038024029B9054A536C23EA0000506463
:101260007047024B5A6C1043586470470038024074
:1012700029B9054A136A23EA000010627047024B3D
:101280001A6A1043186270470038024029B9054AAB
:10129000536A23EA000050627047024B5A6A1043B7
:1012A000586270470038024008B52B4B984219D05D
:1012B0002A4B984220D02A4B984229D0294B984259
:1012C00032D0294B98423BD0284B984200D008BDE1
:1012D00001212020FFF7DAFF00212020BDE808408F
:1012E000FFF7D4BF01211020FFF7D0FF002110200D
:1012F000BDE80840FFF7CABF01214FF40030FFF7F7
:10130000B7FF00214FF40030BDE80840FFF7B0BF41
:1013100001214FF48020FFF7ABFF00214FF4802024
:10132000BDE80840FFF7A4BF01214FF40020FFF7FC
:101330009FFF00214FF40020BDE80840FFF798BF51
:1013400001214FF48010FFF793FF00214FF480102C
:10135000BDE80840FFF78CBF00100140004400408A
:1013600000480040004C0040005000400014014084
:1013700030B5038ACA889BB223F4405313430382D7
:1013800082890B89044688880D464989034392B2B5
:101390000B4322F4B05222F00C029BB21343A38100
:1013A000A38AAA899BB223F44073134385B0A38216
:1013B0006846FFF7E7FE1D4B9C4228D003F580638B
:1013C0009C4224D0029AA389A18913F4004F2B6870
:1013D00002EB820214BF5B009B0002EB8202B2FBB5
:1013E000F3F0134AA2FB00356D096423090405FBE1
:1013F00013034FEA05150CD41B013233A2FB032360
:10140000C3F343132B439BB2238105B030BD039A32
:10141000D9E7D9003231A2FB0131C1F3421242EACD
:1014200005039BB2238105B030BD00BF0010014011
:101430001F85EB5100234FF416510C2201604281AD
:101440008380C38003818381704700BF838929B96A
:1014500023F400531B041B0C838170479BB243F49D
:1014600000538381704700BFC1F30801818070473A
:101470008088C0F308007047838A9BB21AB923EAB8
:1014800001018182704719438182704710B401F0D5
:101490001F04C1F342110123012903FA04F311D0FF
:1014A00002290CBF1030143032B9026822EA03035B
:1014B00003605DF8044B70470268134303605DF8F6
:1014C000044B70470C30EFE7C94389B20180704785
:1014D000C1F3421210B4012301F01F04012A03FAE0
:1014E00004F317D0022A0CBF028A828A92B21340F8
:1014F000028892B253B10123090A03FA01F10A42A8
:1015000014BF184600205DF8044B704718465DF87C
:10151000044B7047828992B21340E9E708B500F0A6
:101520008DFB00F055FD05230D4A0E48002101F00A
:10153000ADF907230C4A0D48002101F0A7F9082353
:101540000B4A0C48002101F0A1F90C230A4A0B4870
:10155000002101F09BF9FF2001F0C4FAFBE700BF76
:101560001019002001160008101D00208516000823
:101570001025002091150008101700208115000883
:1015800008B5FFF793F9052001F012FBF9E700BF5A
:1015900000B5A1B002E0192001F00AFB0021802271
:1015A000684601F0CCFC80216846FFF7B7F90028B7
:1015B000F1D00E49684602F065F90D490028EAD0DD
:1015C000684602F05FF90B490028E4D0684602F053
:1015D00059F909490028DED0684602F053F900287D
:1015E000D9D06946054802F021F9D4E784600008A3
:1015F00060600008646000087060000868600008AF
:1016000008B54FF40055074C2E462683192001F0EB
:10161000CFFA6583192001F0CBFA034802F006F9EE
:10162000F3E700BF001002407460000808B5FEF741
:1016300013FE00F04FFB0323044A0548002101F08C
:1016400025F900F095FC002008BD00BF101B00200C
:101650001D15000800290FDD38B50D460446054468
:1016600014F8011B064802F0E1F8AC42F8D10D2055
:10167000BDE8384002F0F2B80D2002F0EFB800BF2C
:101680008860000830B542F2107187B00020FEF784
:10169000ADFE00221123009310460A231249FEF7E3
:1016A00029FF0146114802F0C1F80024102503E08B
:1016B0004FF47A70FEF7E0FF002002940394049444
:1016C0000594FEF79FFF02460028F1D10A2302A9E4
:1016D0000095FEF747FF0146054802F0A7F81021E4
:1016E00002A8FFF7B7FFE3E78C600008A0600008DE
:1016F000B86000080649074A074B9A42BEBF51F836
:10170000040B42F8040BF8E70448804704480047FC
:10171000F863000800000020C8000020FD17000842
:10172000E50100083349344A002301E041F8043B55
:101730009142FBD3FFF77AFFFEE7FEE7FEE7FEE705
:10174000FEE7FEE7FEE7FEE7FEE7FEE7FEE7FEE771
:10175000FEE7FEE7FEE7FEE7FEE7FEE7FEE7FEE761
:10176000FEE7FEE7FEE7FEE7FEE7FEE7FEE7FEE751
:10177000FEE7FEE7FEE7FEE7FEE7FEE7FEE7FEE741
:10178000FEE7FEE7FEE7FEE7FEE7FEE7FEE7FEE731
:10179000FEE7FEE7FEE7FEE7FEE7FEE7FEE7FEE721
:1017A000FEE7FEE7FEE7FEE7FEE7FEE7FEE7FEE711
:1017B000FEE7FEE7FEE7FEE7FEE7FEE7FEE7FEE701
:1017C000FEE7FEE7FEE7FEE7FEE7FEE7FEE7FEE7F1
:1017D000FEE7FEE7FEE7FEE7FEE7FEE7FEE7FEE7E1
:1017E000FEE7FEE7FEE7FEE7FEE7FEE7FEE7FEE7D1
:1017F000FEE70000C80000200C38002039493A4BB1
:10180000D1F88820394842F47002C1F888201A685B
:10181000002142F001021A6099601A6822F0847275
:1018200022F480321A6058601A6882B022F4802252
:101830001A60D960009101911A6842F480321A60EE
:101840001A4603E0009BB3F5C06F09D0136803F498
:1018500000330193009B01330093019B002BF1D0D7
:10186000214B1B6813F4003318BF01230193019B24
:10187000012B05D01B4B4FF000629A6002B07047FD
:10188000194B1B491A6C1B4842F080521A640A68B3
:1018900042F480420A609A689A609A6842F4004270
:1018A0009A609A6842F4A0529A6058601A6842F0AE
:1018B00080721A601A4611680B4B8901FBD50E4ADB
:1018C00040F2057111609A6822F003029A609A68EA
:1018D00042F002029A601A46936803F00C03082B48
:1018E000FAD1C7E700ED00E00038024010300024D4
:1018F0000070004019544007003C024018488368BB
:1019000003F00C03042B29D0082B0AD0154B144AE2
:10191000154892681549C2F30312825CD3400B60EC
:1019200070474368416813F4800F436818BF10483C
:1019300001F03F020CBF0B49B0FBF2F1C3F3881377
:1019400008BFB1FBF2F101FB03F2054B5B68C3F387
:10195000014301335B00B2FBF3F3D8E7044BD6E756
:10196000003802400024F400100000202000002075
:1019700040787D01EFF3108072B6704780F31088D5
:1019800070472648FF210170002080F30988244811
:10199000016881F3088823480121017022484FF033
:1019A0008051016062B6FEE71F484FF08051016030
:1019B00070471D484FF080510160704772B62EF09D
:1019C0001F0E4EF0090EEFF3098050B11EF0100FFC
:1019D00008BF20ED108A203880E8F00F134909680D
:1019E000086000B5124880475DF804EB11481249C1
:1019F0000A7802700D4811490A680260106890E880
:101A0000F00F20301EF0100F08BFB0EC108A80F3EA
:101A100009884EF0040E62B67047000022ED00E027
:101A2000242500207427002004ED00E0642F00200E
:101A3000F51B0008502A00207E2700204C2D002096
:101A4000074B002003F5007143F8040B8B424FF065
:101A50000002F9D103480449043B03600A8070473F
:101A6000282500202425002014250020704700BFD1
:101A7000704700BF704700BF704700BF704700BF8E
:101A8000704700BFF0B54FF480561525142442F876
:101A90004C0C42F8641C42F8046C42F8085C42F8B2
:101AA0000C4C11271026092508240720062142F88E
:101AB000187C42F81C6C42F8205C42F8244C42F836
:101AC000280C42F82C1C052704260325022401209B
:101AD000002142F8307C42F8346C42F8385C42F81D
:101AE0003C4C42F8400C42F8441C4FF08077404E8A
:101AF00042F8487C4FF012354FF003344FF002307B
:101B00004FF0013142F8506C42F8545C42F8584CA6
:101B100042F85C0C42F8601C4FF031374FF0303621
:101B20004FF029354FF028344FF027304FF0263151
:101B300042F8687C42F86C6C42F8705C42F8744C75
:101B400042F8780C42F87C1C4FF0130C4FF0120E48
:101B50004FF025374FF024364FF023354FF0223425
:101B60004FF021304FF02031134642F810CC42F8AC
:101B700014EC42F8807C42F8846C42F8885C42F8AD
:101B80008C4C42F8900C42F8941C4FF019374FF0EF
:101B900018364FF017354FF016344FF011304FF024
:101BA000103142F8987C42F89C6C42F8A05C42F8F4
:101BB000A44C42F8A80C42F8AC1C4FF009374FF087
:101BC00008364FF007354FF006344FF005304FF030
:101BD000043142F8C00C42F8B07C42F8B46C42F8D0
:101BE000B85C42F8BC4C43F8C41D1846F0BD00BFB9
:101BF0008D2B0008704700BF704700BF054A13884F
:101C000001339BB2042B01D813807047002313804B
:101C100001F0C8B81425002008B5FFF7ABFE064A4E
:101C2000137801331370FFF7A9FE00F0F1F9BDE856
:101C3000084000F031B900BF602F002038B50A4CD1
:101C4000FEF730FDA4FB00300009B0F1807FF7D231
:101C5000064B074C0138F02500210722586084F814
:101C6000235099601A6038BD1F85EB5110E000E0E9
:101C700000ED00E010B5054CFFF77CFE2368013352
:101C80002360FFF77BFEFFF7F7FEF5E778270020DC
:101C9000F8B5B8B1C9B10E4B1F7837B90378013B1D
:101CA000032B05D901231370F8BD12231370F8BD5F
:101CB000044616460D46FFF75DFE2561FFF75EFE02
:101CC0003770F8BD04231370F8BD0C231370F8BDF2
:101CD000602F0020F0B5524C524F534E534D89B0F7
:101CE000FFF7AEFE002252485249534B2270DFF8F4
:101CF000A0C1524C1A603A70514B32702A600A608F
:101D0000DFF890E14F49CCF800204F4F02604F4E72
:101D10004F4D50482270504C0A601A705A708EF81D
:101D200000203A7032702A700260234604F5B061D8
:101D300003F8012B8B42FBD1484B002103F14002F9
:101D400003F8011B9342FBD1454B464803F5A561BF
:101D500043F8080C43F8443C58339942414AF7D1C0
:101D60004149424B424EC4F8782500220A601C606B
:101D7000C4F83C25334606F1C80103F8012B8B4219
:101D8000FBD1A3F1B402002502F8145C42F8040C64
:101D900042F8102C14329A424FF000043149F3D12A
:101DA000344BC6F8C41086F8B440C6F8B8401E607C
:101DB00000F0A0FB00F0D4FB00F0F6FB2E4A0192ED
:101DC000032680254FF6FF73009321460F230394CB
:101DD00002F5FE7204960295284800F0A3FD0DF16D
:101DE0001F0227490F2000F0FFFD264A01924FF6FF
:101DF000FE732146009304960E230295039402F588
:101E0000FE72214800F08EFD0DF11F021F490E20C9
:101E100000F0EAFD00F0CCFFFFF728FE09B0F0BDAE
:101E20006C270020E52C002074270020D42C0020F3
:101E30007827002004380020DC2C0020C037002048
:101E4000582D0020642F0020542D0020502A0020FF
:101E50007E2700204C2D00203C320020C43700207B
:101E600094320020CC610008542A0020E02C00208D
:101E7000743100205C2F0020742F0020751C000896
:101E8000D0610008D42A002071230008E061000816
:101E90006C2F0020602F00201C4B1B78012B00D0E2
:101EA000704770B582B0FFF765FD194A13783BBBE8
:101EB000184B1B78FBB9184A184B1278184C9A5CCF
:101EC0001849A45C184D1B5D0978184E184C03EB9B
:101ED000C203DBB2994255F82320337022600AD046
:101EE000144CD16B2368019001310133D16323601D
:101EF000FFF75FFD019802B0BDE87040FFF73EBDFF
:101F0000013BDBB21370002BF5D1D1E77427002021
:101F1000602F00206C270020542D0020CC6000088A
:101F2000582D0020502A0020C43700207E27002092
:101F30004C2D0020D42C002008B50A4B1B78012B17
:101F400000D008BDFFF716FD074B1B782BB9074AD9
:101F50001378FF2B1CBF01331370BDE80840FFF757
:101F60000DBD00BF74270020602F00206C270020CB
:101F70000E4B1B7803B1704770B40D4A0D4B1278AD
:101F80000D499A5C0D4D895C0D485B5C0D490E4E08
:101F90000E4C03EBC203DBB2337055F82320026012
:101FA0000A60237070BCFFF7ECBC00BF74270020F0
:101FB000542D0020CC600008582D0020C43700208C
:101FC0004C2D0020642F00207E270020502A002066
:101FD00010B502200B4C00F0EBFDFFF7CBFC00230B
:101FE0002360FFF7CBFC052000F0E2FDFFF7C2FC09
:101FF000054A2168054B116001221A70BDE81040A6
:10200000FFF7BCBC78270020DC2C0020C037002064
:10201000F8B5FFF7F3FDFFF7ADFC254A1368013370
:102020001360FFF7ABFC234B1B78012B00D0F8BDEE
:1020300021490A78012AFAD003D3022A18BF0023C3
:102040000B701E4B1C6894F836300F2BEFD01C4ED3
:102050001C4D0127FFF78EFC236B5A1EFBB1226338
:10206000EAB994F8343013F037021DBF03F0C80307
:1020700084F8343084F8357084F835201B070ED48A
:1020800094F8381094F8392015F801C0337894F892
:102090003AE04CEA02024EEA03036A543370646980
:1020A000FFF76CFC94F836300F2BD3D1F8BD00BF8E
:1020B0006C2F002074270020D02A0020542A0020F2
:1020C000542D0020582D0020704700BFF0B5074662
:1020D0002D48BD7A2D4C465DBD194FF0000EED7AAE
:1020E000405D00EBC600C0B254F8205095F8344073
:1020F00085F8353024EA020213076962C5F830E03A
:1021000085F8342028D595F8391095F838203A44C8
:10211000D37A23EA0103D3727BB32C6ADCB1226841
:1021200095F838E095F83AC095F839608AB1F643E9
:10213000F6B26FEA0C0C02EB0E01CB7A3340CB7295
:102140001BB9937A03EA0C03937254F8042F002A04
:10215000F1D1EF61F0BDF0BDDFF838E00C4C1EF8B6
:102160000620237895F8391095F83AC00A434CEACE
:1021700003030EF806202370C7E795F83A20BB7AD0
:1021800023EA0203BB72C8E7CC600008C437002012
:10219000542D0020582D002030B4114B114C1B68D9
:1021A00093F83820D861024493F83910D57A29433E
:1021B000D172817A93F83A200A43827293F83810E8
:1021C00093F83900625C22EA0002625432B9064A8E
:1021D00093F83A10137823EA0103137030BC704768
:1021E000642F0020582D0020542D002010B490F8AA
:1021F000382090F839400A44D37A23EA0403D37292
:102200002BB990F83A208B7A23EA02038B725DF89F
:10221000044B704770B40A6890F8385090F83A60F0
:1022200090F8394072B1E443E4B2F6435019C37AEE
:102230002340C37213B9937A3340937251F8042F39
:10224000002AF3D170BC704700238372C3720373FA
:10225000704700BF41B1013910FA81F10023013804
:1022600000F8013F8842FBD1704700BF70B582B0D3
:10227000FFF780FB154B1B7813BB154B1B78FBB985
:10228000144A154B1278154C9A5C1549A45C154DEF
:102290001B5D0978144E154C03EBC203DBB2994267
:1022A00055F82320337022600AD0114CD16B23687B
:1022B000019001310133D1632360FFF775FB019871
:1022C00002B0BDE87040FFF759BB00BF602F00208F
:1022D0006C270020542D0020CC600008582D0020D1
:1022E000502A0020C43700207E2700204C2D0020DB
:1022F000D42C002008B50D4B1B78012B00D008BD55
:10230000FFF738FB0A4A137863B1013BDBB2137065
:1023100043B9084B1B782BB9FFF730FBBDE80840E9
:10232000FFF7A4BFBDE80840FFF728BB74270020D3
:102330006C270020602F002030B50C4D83B00024A6
:102340006946E0B200F086FB58B955F8243043B135
:10235000012B06D0D9689A680198D86402EB8102F3
:102360009A640134102CEBD103B030BDC437002087
:102370002DE9F041184C23782BB90A2000F018FC05
:102380002378002BF9D0154E154A3368154FA2FB60
:1023900003235B093360D3B1134D144C4FF0000895
:1023A000FFF7E8FA2B682360C5F80080FFF7E6FA2C
:1023B00032682368B3FBF2F3C3F164033B70FFF7A9
:1023C0005FFBFFF7B9FF052000F0F2FBE8E7FF2015
:1023D0003B7000F087FBDFE7C0370020DC2C0020DB
:1023E0001F85EB51E42C00207827002004380020C2
:1023F0002DE9F8431F4606460D469146BDF8288054
:10240000FFF7B8FA344B1C68002C5FD062691A6081
:10241000FFF7B4FA09986060F10806F0070208981F
:1024200025600123002503FA01FEE06093402B485C
:1024300084F8381084F8393084F8372084F83AE08A
:10244000206584F836602046C4F80890A4F810800F
:10245000678284F8345084F83550256384F83B5003
:10246000E5612562A5626562E56365642564A5642E
:10247000E5646565FFF7C0FB2046FFF7F9FAFFF753
:1024800079FA174A1749136841F82640A561636134
:1024900003B19C61DFF858E094F83860124F134D97
:1024A0009EF8001094F83AC02B78146094F8392004
:1024B000BC5D4CEA0101224301338EF80010BA558D
:1024C0002B70FFF75BFA0020BDE8F883FFF756FAA0
:1024D0004220BDE8F88300BFE02C0020CC6100085A
:1024E000542A0020C4370020582D0020E52C00205D
:1024F000542D002038B50E480E4D5021FFF7AAFE8E
:102500000D4B002003F1400403F8100C43F8045C69
:1025100043F80C3C1033A3424FF000020549F3D1BD
:10252000034B064883F840205A64D964036038BDE1
:1025300080270020CC61000890270020BC370020B5
:102540004268036832B1136003B15A6083680022A5
:102550009A627047C1684B60002BF6D1F6E700BF66
:1025600070B50E4C78212046FFF774FE0C4A0D4BD7
:10257000146004F1180604F1300504F1480004F178
:10258000600100226660E5616063E1646266636128
:10259000E3626364E365636770BD00BF582A00208F
:1025A000E82C0020CC61000810B5094C60212046C1
:1025B000FFF750FE234604F1180143F8301B054A8B
:1025C000A36104F1480000212063A164146010BDE0
:1025D000EC2C0020502D002070B50F4B1E78A6B9B2
:1025E0000546FFF7C7F90D4B1C6884B162681A6095
:1025F000FFF7C4F903220A4B25812046666022704A
:102600002361FFF721FE204670BD002070BDFFF75B
:10261000B5F9204670BD00BF602F00205C2F002060
:10262000CC610008002848D00378032B02D0012396
:1026300013707047294B1B78002B3BD12DE9F041DB
:10264000274B1F781FB10D231370BDE8F08104469E
:1026500015460E46FFF78EF92389804683BB214F2E
:102660003A6892F8341082F8353041F0010316636D
:1026700082F834302046FFF78FFD4046FFF77EF9A1
:10268000FFF7F4FDFFF776F90646386890F8353025
:102690000BB3022B1BD10E232B703B68002283F857
:1026A000342083F83520DA611A623046BDE8F04103
:1026B000FFF764B902231370704704231370704747
:1026C000013B2381FFF75AF92F70BDE8F0812146C5
:1026D000FFF78CFD0A232B70DFE700BF602F00207F
:1026E0006C270020642F002070B528B10378032BDD
:1026F00005D00125284670BD0425284670BD044636
:10270000FFF738F9A57A06466DB923894FF6FF72AF
:10271000934204D001332381FFF730F9EAE7FFF752
:102720002DF93325E6E70023194601222046FFF75D
:10273000CDFC3046FFF722F90025FFF797FDD9E7DA
:102740002DE9F0410546FFF715F9FF2D074668D042
:10275000444E56F82540002C6CD0012C7BD094F8C8
:102760003820414994F839008B5C23EA00038B54EC
:10277000002B4ED0E16911B12046FFF737FD216AE9
:1027800011B12046FFF746FDA06A08B1FFF7D8FE59
:10279000DFF8D88098F800300022FF2B18BF0133F3
:1027A000226384F8342084F83520384618BF88F82E
:1027B0000030FFF7E3F8FFF787FCFFF7DBF898F846
:1027C00000302A4A07460BBB2046FFF753F9284A38
:1027D000002346F825301378A169013B13700029C6
:1027E00033D063694B616369A2699A61214B224AC4
:1027F00019686161384622651C60FFF7BFF81F4BFE
:102800001B78012B1CD00020BDE8F081013B137028
:10281000DAE71B4A94F83A10137823EA010313709D
:10282000A8E7184B0F4E1B6893F8365056F8254012
:10283000002C92D13846FFF7A1F84320BDE8F08183
:10284000FFF714FD0020BDE8F08162690E4B916135
:1028500062691A60CAE73846FFF790F83D20BDE884
:10286000F08100BFC4370020582D00206C270020C5
:10287000E52C0020E02C0020CC610008742700200B
:10288000542D0020642F0020542A00202DE9F0430D
:102890000F2B85B004D92A24204605B0BDE8F0836B
:1028A0001D4690460F460646FFF764F81A4B1C7803
:1028B00044B9DFF86C9059F825303BB1FFF75EF86A
:1028C0002824E9E7FFF75AF83C24E5E7012349F813
:1028D0002530FFF753F82346424639463046FFF786
:1028E000D1F80294014601940094234622462846DA
:1028F000FFF77EFD064630B9084B1B78012BCBD184
:10290000FFF7B4FCC8E7FFF735F849F82540FFF7B3
:1029100035F83446C0E700BF602F00207427002040
:10292000C43700202DE9F04F85B00F2BBDF838904B
:10293000BDF8488004D92A24204605B0BDE8F08FB0
:102940001D4617460E468246FFF714F8234B1C78A7
:1029500044B9DFF890B05BF825303BB1FFF70EF8D3
:102960002824E9E7FFF70AF83C24E5E701234BF8C0
:102970002530FFF703F808F00303032B1AD0314684
:102980003A4643465046FFF77DF8119B0193109B52
:1029900000930146CDF808804B460F9A2846FFF772
:1029A00027FD064680B90E4B1B78012BC4D1FFF7DB
:1029B0005DFCC1E7109B002BE1D00F9A2146013B43
:1029C00042F8041BFBD1DAE7FEF7D4FF00233446BC
:1029D0004BF82530FEF7D2FFAEE700BF602F002096
:1029E00074270020C4370020A0F11003DBB2EE2BC7
:1029F00070B5154602D82A23137070BD0E46D9B1A2
:102A0000114B1B7813B11223137070BD0446FEF7EF
:102A1000B1FFFF2C0BD00D4B53F824307BB1012BB1
:102A20000DD01E65FEF7AAFF00232B7070BD084B6A
:102A30001B6893F83640EEE70C23137070BDFEF769
:102A40009DFF43232B7070BD602F0020C4370020F2
:102A5000642F00200F2870B504460D4603D9FF28C7
:102A600014D02A2070BD91B100230B604B60FEF79B
:102A700081FF1A4B53F8243043B3012B26D01A8A16
:102A8000D20706D4FEF77AFF452070BDA1B9092010
:102A900070BD9C68DE68FEF771FF2368221DCBB90C
:102AA00052F8041B01330029FAD09A00F31A9B0054
:102AB00085E80C00002070BD00232B606B60FEF7E2
:102AC00059FF074B1B6893F83640D2E7FEF756FFD5
:102AD000432070BD00221346E8E700BFC437002042
:102AE000642F00200F2807D00E2870B5044605D9A2
:102AF000FF282FD02A2070BD47207047FEF73AFFED
:102B00001E4B1B6893F836502D1BB5FA85F56D09E1
:102B10001B4B53F824304BB3012B2BD093F83810B8
:102B2000184C93F83960625C22EA0602625432B9AA
:102B3000154993F83A400A7822EA04020A7093F899
:102B4000342042F0080283F83420FEF717FF4DB915
:102B5000002070BDFEF70EFF084B1B68012593F89F
:102B60003640D5E7FFF782FB002070BDFEF706FF79
:102B7000482070BDFEF702FF432070BD642F002087
:102B8000C4370020582D0020542D002008B5064BD6
:102B90001868FEF773FF054B1B7803B108BDFF20D3
:102BA000BDE80840FFF7CCBD642F0020602F002057
:102BB000124B1B781BB9124B1B7803B900B9704735
:102BC00070B50446FEF7D6FE0E4B0F4D1A6892F80C
:102BD000381092F839606B5C23EA06036B5433B902
:102BE0000A4992F83A500B7823EA05030B701463F4
:102BF000FEF7C4FEBDE87040FFF738BB602F002031
:102C00006C270020642F0020582D0020542D002018
:102C1000F8B51B4C247814B155242046F8BD194C46
:102C2000247814B132242046F8BD20B919B932B93C
:102C30004BB95424F1E73B2901D95124EDE73B2A54
:102C400001D95224E9E7B3F57A7F01D35324E4E7AD
:102C500032271D4607FB05F5134602460A4805F5CF
:102C6000FA753C2616FB0131A0FB05504FF4616359
:102C700003FB0213800907FB0300FFF799FFCCE772
:102C8000602F00206C270020D34D621010B44269E1
:102C9000104B02F0070253F83210884212D0046938
:102CA000C168E16001B10C6103EBC20301210022A4
:102CB00080F82510C26002619A88013A9A805DF816
:102CC000044B7047C16843F832100029ECD000244F
:102CD0000C61E9E72C2700202DE9F04F2E4FDFF89B
:102CE000BCA0DFF8BCB083B0B9460DF107020021EB
:102CF000DAF80000FFF796FCFFF71EF9DBF800207A
:102D0000013202F00701CBF8002057F8314004B33C
:102D10006169E5688A424FF002064FF0030807D068
:102D2000BDB12C46DBF800206169E5688A42F7D125
:102D30002046FFF7ABFF94F82420022A0CD084F839
:102D400025606268002AEBD0A16820469047002DDC
:102D5000E7D1FFF7CFFAC8E7E169DBF8002084F894
:102D600025800A4402F00701626157F8312009EB1F
:102D7000C1004AB149F83140E260146182880132F1
:102D8000828000232361DCE74FF0010E49F83140D7
:102D9000E260A0F804E0F4E72C2700207027002070
:102DA000682F0020014B1868FFF79EBC7027002099
:102DB000F0B54FF4207189B02F48304FFFF74AFA31
:102DC0002F484021FFF746FA2E4B642503F516766F
:102DD000002003F8285C03F8030C43F8087C43F850
:102DE0001C3C2833B3424FF064014FF00004234AE7
:102DF000EFD1214BDFF8B8E0234F244E244D83F868
:102E0000581283F87D42C3F86442C3F87822102137
:102E10000120CEF80030298034803C60FFF7DCFBD5
:102E20001C4E1D4D30602046FFF7D6FB0DF11E02F3
:102E300028601A493068FEF72BFF0DF11E02286842
:102E40001749FEF725FF174A0192032580204FF608
:102E5000FD7321460290009303940D2302F5FE7248
:102E600004951148FFF75EFD0DF11F020F490D207B
:102E7000FFF7BAFD09B0F0BDD0270020CC610008F3
:102E80002C270020F8270020682F00207C27002016
:102E9000D82C0020702F002070270020F06100083F
:102EA000046200085C2D0020D92C0008186200087C
:102EB0002827002008B5074B044613B10021AFF3C3
:102EC0000080054B1868836A03B19847204603F0D9
:102ED000ABF800BF000000002C62000870B50E4B7C
:102EE0000E4CE41AA41000251E46A54204D056F844
:102EF000253098470135F8E703F098F8084C094B5E
:102F0000E41AA41000251E46A54204D056F8253028
:102F100098470135F8E770BDC0000020C0000020D0
:102F2000C4000020C000002010B5431E0A44914296
:102F300004D011F8014B03F8014FF8E710BD02442B
:102F40000346934202D003F8011BFAE770472DE9CC
:102F5000FF4755EC104B0D9FDDF830A0002D0E46BD
:102F600091461946B8BF22462B4627F02007BBBF23
:102F700005F100431D4600232D23B8BF1446462FFC
:102F80000B7003D0452F03D1013601E0032100E08F
:102F9000022103AB019302AB00933246534645EC4A
:102FA000104B00F011FD472F804602D119F0010FA0
:102FB00028D0462F08EB060911D198F80030302BA5
:102FC0000AD1002200232046294602F087FF18B9C3
:102FD000C6F10106CAF80060DAF800309944002210
:102FE00000232046294602F079FF08B9302202E08A
:102FF000CDF80C9006E0039B994503D9591C039129
:103000001A70F8E7039B0E9AC8EB0303404613605F
:1030100004B0BDE8F08773B503460029B8BF494244
:1030200003F8022BB4BF2D222B220929427019DD8F
:103030000DF1070216460A2591FBF5F405FB141164
:103040003031092C02F8011D2146F5DC3031541EC7
:1030500002F8011CB4421A460AD214F8012B03F8F4
:10306000012BF7E730241A46214402F8024B59702D
:10307000101A02B070BD00002DE9F04F8DB00C4663
:10308000DDF8588016461F46054601F007FB036829
:103090000493184600F000FC00230A93D8F800308F
:1030A0000590073323F0070303F1080294F818A0F2
:1030B000D4F800B0C8F80020D3E90023C4E91223F3
:1030C000D4E9128929F000430793CDF818804FF016
:1030D000FF32A64BDDE9060102F032FFA0B94FF046
:1030E000FF32A24BDDE9060102F00CFF60B90022BD
:1030F00000234046494602F0FBFE10B12D2384F820
:1031000043309B4B9B4A0AE042464B464046494669
:1031100002F016FF002800F09081974B974ABAF111
:10312000470F8CBF9046984603232BF0040223617F
:1031300022604FF000093BE0BAF1670F00F0858193
:10314000BAF1470F00F08181002303930AAB029389
:1031500009AB009349EC108B0DF123032260CDF8ED
:1031600004A061682846FFF7F2FE0AF0DF03472B50
:10317000804600F07F81BAF1650F099900F28881DD
:103180000139524604F150000991FFF744FF0A9AB1
:103190008318012A8146236100F377812268D107D1
:1031A00000F173819DF8233013B12D2384F843304F
:1031B000009733460BAA2146284600F09BF90130C0
:1031C00002D14FF0FF3091E123685A0501D4236901
:1031D00065E0BAF1650F40F2D58000220023D4E902
:1031E000120102F07BFE78B30123654A314628467E
:1031F000B8470130E5D00A9B099A9A420BDB236855
:10320000D80708D423689B0740F111814FF00008CC
:1032100004F1190906E1059B049A31462846B8478E
:103220000130CED04FF0000804F11A090A9B013B8F
:103230009845E7DA01234A4631462846B847013027
:10324000BFD008F10108F1E7099B002B29DC01231D
:103250004B4A31462846B8470130B2D0099B23B9C2
:103260000A9B13B92368D907CCD5059B049A31462C
:103270002846B8470130A4D04FF0000904F11A0ADB
:10328000099B5B42994509DA01235246314628469B
:10329000B847013095D009F10109F1E70A9B424690
:1032A000A7E00A9AA36D9A42A8BF1A46002A91463F
:1032B00006DC4FF0000A29EAE97904F11A0B11E063
:1032C0001346314642462846B8470130F1D178E7E7
:1032D00001235A4631462846B84701303FF471AFC2
:1032E0000AF1010AA36DC9EB03029245F0DB08EB7A
:1032F0000309099A0A9B9A420FDB2368DA070CD468
:103300000A9B099A9844C9EB08089B1A9845A8BFDC
:103310009846B8F1000F08DC0FE0059B049A31468F
:103320002846B8470130EBD14BE743464A46314681
:103330002846B84701303FF444AF4FF0000928EA6F
:10334000E87804F11A0A09E001235246314628467A
:10335000B84701303FF435AF09F10109099A0A9BDA
:103360009B1AC8EB03039945EEDB4BE7FFFFEF7FAA
:103370003062000834620008386200083C620008CD
:10338000406200080A9A012A01DCDB0738D50123D4
:10339000424631462846B84701303FF412AF059BFC
:1033A000049A31462846B84701303FF40AAF00225C
:1033B0000023D4E9120102F091FD20B14FF0000882
:1033C00004F11A0A0EE00A9B08F10102013B19E020
:1033D0000123524631462846B84701303FF4F1AE4A
:1033E00008F101080A9B013B9845F1DB4B4604F1CB
:1033F000500231462846B84701307FF403AFE0E67B
:103400000123424631462846B8470130EED1D8E67E
:1034100001234A4631462846B84701303FF4D1AE31
:1034200008F10108E3680B9A9B1A9845F0DBE06805
:103430000B9B9842B8BF184658E061684B1C4BF490
:1034400080627FF479AE062301E011B90123636045
:103450007AE6002303930AAB029309AB009349EC8D
:10346000108B2260CDF804A00DF123032846FFF74E
:103470006EFD8046099BD81C02DB626893421DDD0D
:10348000AAF1020A5FFA8AFA75E60133236189E636
:10349000BAF1660F14D10029636807DD216113B901
:1034A0002268D2071DD501330B4419E013B92268F5
:1034B000D00701D5023313E0012311E04FF0670A72
:1034C000099B0A9A934205DB22682361D10708D53C
:1034D000013305E0002BD4BFC3F1020301231344E1
:1034E0002361099BA3654FF000095BE60DB0BDE8C1
:1034F000F08F00BF2DE9F04791461F460A698B689F
:10350000DDF820809342B8BF1346C9F8003091F827
:10351000432006460C4612B10133C9F80030236837
:10352000990642BFD9F800300233C9F80030256847
:1035300015F0060510D104F1190A07E001235246DF
:1035400039463046C04701301AD00135E368D9F812
:1035500000209B1A9D42F1DB94F84330226800332F
:1035600018BF012392060FD5E1185A1C302081F8AC
:103570004300224494F8451082F84310023303E0DC
:103580004FF0FF30BDE8F08704F143023946304682
:10359000C0470130F4D02268D9F80050E36802F047
:1035A0000602042A08BF5D1B2269A3680CBF25EA36
:1035B000E57500259342C4BF9B1AED184FF0000932
:1035C0001A344D4509D00123224639463046C047BA
:1035D0000130D5D009F10109F3E70020BDE8F087FB
:1035E0002DE9F04317460A7E85B06E2A98460646B6
:1035F0000C460C9B01F1430E00F0AE8011D8632AFB
:1036000022D009D8002A00F0BB80582A40F0CA8096
:1036100081F84520834955E0642A1ED0692A1CD0D0
:10362000C0E0732A00F0B08009D86F2A2ED0702A2B
:1036300040F0B8800A6842F020020A603EE0752A35
:1036400024D0782A3AD0ADE01A6801F14205111D64
:103650001960136884F84230A8E021681A6811F0F4
:10366000800F02D0111D196008E011F0400F02F127
:103670000401196002D0B2F9003000E01368002B99
:103680003CDA2D225B4284F8432037E021681A6837
:1036900011F0800F02D0111D196007E011F0400FEA
:1036A00002F10401196001D0138800E01368227E42
:1036B0005C496F2A14BF0A2208221BE078225A496B
:1036C00084F845202268186812F0800F00F1040584
:1036D0001D6003D1550601D5038800E00368D007BB
:1036E00044BF42F0200222601BB9226822F020026F
:1036F00022601022002084F8430001E049490A2298
:103700006568A560002D08DB206820F004002060BB
:103710002BB9002D7DD175460CE0002B79D0754674
:10372000B3FBF2F002FB1033CB5C05F8013D03461E
:103730000028F5D1082A0BD12368DA0708D52369B8
:1037400062689A42DEBF302305F8013C05F1FF357F
:10375000C5EB0E0323612EE008681A68496910F072
:10376000800F03D0101D1860136808E010F0400FA0
:1037700002F104001860136801D0198000E019609C
:1037800000232361754616E01A68111D196015683B
:1037900062680021284600F093FF08B1401B60607A
:1037A000636804E004F1420584F8422001232361A8
:1037B000002384F84330CDF800803B4603AA21461D
:1037C0003046FFF797FE013002D14FF0FF3026E080
:1037D00023692A4639463046C0470130F5D0236870
:1037E0009B0710D5002504F1190907E001234A467B
:1037F00039463046C0470130E7D00135E368039AC7
:103800009B1A9D42F2DBE068039B9842B8BF1846C2
:1038100005E00B7884F8423004F142058AE705B0F0
:10382000BDE8F08342620008536200080FB40A4BFF
:1038300013B51C6824B1A36913B9204600F0A4FE97
:1038400005AB049AA1680193204601F043FB02B046
:10385000BDE8104004B070478400002038B5084B24
:103860001C68054624B1A36913B9204600F08CFEFC
:10387000A26829462046BDE8384001F047BC00BF99
:103880008400002010F8012B11F8013B012A28BF09
:103890009A42F7D0D01A7047034613F8012B002A3A
:1038A000FBD1181A013870472DE9F74F03690C69ED
:1038B0009C42804600F38380013C01F114074FEAEB
:1038C000840E00F1140657F8245006EB0E03019302
:1038D000013556F82430B3FBF5F507EB0E09002D42
:1038E00039D04FF0000A3846B446D34650F8042B7E
:1038F00093B205FB03A34FEA134A9BB2C3EB0B033E
:10390000120CBCF800B005FB02A213FA8BF34FEACD
:10391000124A1FFA82FBDCF80020CBEB124202EBCA
:1039200023429BB243EA024381454FEA224B4CF8C3
:10393000043BDBD256F80E306BB9019B043B9E4230
:103940001A4602D3C8F8104005E01268043B002A6A
:10395000F8D1013CF3E7404601F00FF900282CDBD9
:10396000013530464FF0000E57F8041BD0F800C068
:103970008AB2C2EB0E03090C13FA8CF3C1EB1C42A2
:1039800002EB23429BB243EA0243B9454FEA224E7F
:1039900040F8043BE8D256F8242006EB840362B9D1
:1039A000043B9E421A4602D3C8F8104005E0126854
:1039B000043B002AF8D1013CF3E7284600E0002050
:1039C00003B0BDE8F08F00002DE9F04F59EC108BEB
:1039D00097B0456A0691824609921093209CCDE9E2
:1039E000008945B9102000F05DFECAF8240045604A
:1039F00085600560C560DAF82430196859B15A68E5
:103A00004A60012393408B60504600F0DEFEDAF8F6
:103A1000243000221A60019B9F4A002BBFBF012364
:103A20002360019B23F00043B8BF0193019FA4BF13
:103A30000023236027F000431B0D1B0593421DD17B
:103A4000109A42F20F731360009B43B9934A944B50
:103A5000C7F31300002814BF1846104600E0904832
:103A6000219B002B00F04A85C37813B100F10803B5
:103A700000E0C31C219A136000F040BDDDE9004561
:103A8000002200232046294602F028FA804658B139
:103A9000109A01231360219B002B00F0228581489E
:103AA0001860013800F02ABD14AA15A945EC104B86
:103AB000504601F0DDF8C7F30A5602905EB1C5F337
:103AC000130343F07F51204641F44011A6F2FF3624
:103AD000CDF844801DE0159B149E1E4406F232432F
:103AE000202B0ADD009A06F21240C3F1400322FAAD
:103AF00000F007FA03F3184304E0C3F12000009B31
:103B000003FA00F001F00CFF0123A1F1F871013E6E
:103B100011930022644B01F0C5FD59A3D3E90023A2
:103B200001F074FF58A3D3E9002301F0BDFD044662
:103B300030460D4601F004FF55A3D3E9002301F000
:103B400065FF02460B462046294601F0ADFD0446BE
:103B50000D4602F00BFA0022834600232046294638
:103B600002F0C6F958B1584601F0EAFE02460B468B
:103B70002046294602F0B2F908B90BF1FF3BBBF130
:103B8000160F0DD8494901EBCB01DDE90023D1E93E
:103B9000000102F0CBF930B10BF1FF3B002300E054
:103BA00001230D9300E00D90149B9E1B731E059343
:103BB00043BFC3F10009002305934FF00009BBF197
:103BC000000F07DB059BCDF830B05B440593002365
:103BD000079306E0CBF1000307930023CBEB090921
:103BE0000C93069B092B27D8052BC4BF043B0693D7
:103BF000069BA3F10203CCBF00250125032B20D88F
:103C0000DFE803F0060E0204012302E0012308E0CE
:103C100000230893099B002B1CDD039398461EE0AC
:103C200000230893099B5B4403F101080393434677
:103C3000012BB8BF012312E001250023069308954C
:103C400001E0012308934FF0FF33039398460022CD
:103C5000122303E00123039398461A460992DAF8E7
:103C6000244000226260042101F114029A421FD80C
:103C70006268013262604900F6E700BFAFF300807E
:103C800061436F63A787D23FB3C8608B288AC63F62
:103C9000FB799F501344D33F0000F07F646200081B
:103CA0006D620008416200080000F83F10630008E0
:103CB0006168504600F054FDDAF8243020601B683B
:103CC0000493B8F10E0F00F25D81002D00F05A81CF
:103CD0009DED007BBBF1000F8DED0E7B31DDA04A29
:103CE0000BF00F0302EBC30393ED007B4FEA2B14A1
:103CF000E2068DED0A7B0CD59A4BDDE90E01D3E986
:103D0000082301F0ADFF04F00F04CDE90001032604
:103D100000E00226934D6CB1E30708D5DDE90A0106
:103D2000D5E9002301F072FECDE90A0101366410E5
:103D30000835F0E7DDE90A23DDE9000101F090FF35
:103D400020E0CBF1000404B3854B864D04F00F0254
:103D500003EBC203D3E90023DDE90E0101F056FEB7
:103D6000CDE9000124110023022654B1E70705D54F
:103D7000D5E9002301F04AFE01360123641008351D
:103D8000F3E71BB1CDE9000100E002260D9BEBB18A
:103D9000DDE900450022744B2046294602F0A8F8D0
:103DA000A0B1B8F1000F11D0039B002B40F3E680C7
:103DB0000BF1FF330A9300226C4B2046294601F099
:103DC00025FE0136CDE90001039F02E0CDF828B0C1
:103DD0004746304601F0B4FDDDE9002301F016FE50
:103DE0000022634B01F060FC0446A1F15075CFB98D
:103DF0000022604BDDE9000101F054FC22462B4615
:103E0000CDE9000102F092F8002840F041822246FC
:103E100005F10043DDE9000102F06AF8002840F0F6
:103E20002E82ABE0089A4E4B791E002A4AD003EB53
:103E3000C103D3E9002300204F4901F011FF2246BE
:103E40002B4601F02FFC049C05460E46DDE90001DF
:103E500002F08CF8129001F073FD02460B46DDE98A
:103E6000000101F01FFC129B303304F8013B2A468D
:103E70003346CDE9000102F03BF8002840F02183F1
:103E8000DDE900230020384901F00CFC2A463346C6
:103E900002F02EF8002840F0D280049BE31ABB42C7
:103EA0006CDA0022314B2846314601F0AFFD00228A
:103EB00005460E462D4BDDE9000101F0A7FDCDE9D9
:103EC0000001C3E703EBC10122462B46D1E9000103
:103ED00001F09CFD049BCDE91201DC191D46DDE9D2
:103EE000000102F043F8064601F02AFD3036024692
:103EF0000B46DDE9000101F0D5FB05F8016BAC4292
:103F0000CDE900014FF0000223D11B4BDDE9120186
:103F100001F0CAFB02460B46DDE9000102F006F89B
:103F2000002840F08C80DDE912230020124901F0C6
:103F3000B9FB02460B46DDE9000101F0D9FFE8B10B
:103F400014F8013C302B04F1FF3240F0BA821446E1
:103F5000F6E7064B01F05AFDCDE90001BFE700BFCF
:103F600010630008E86200080000F03F00002440F1
:103F700000001C40000014400000E03FDDE90E346A
:103F8000CDE90034159B002B7CDBBBF10E0F79DCF7
:103F90008F4B03EBCB03D3E90067099B002B14DAAB
:103FA000B8F1000F11DC40F06C810022894B3046E3
:103FB000394601F02BFDDDE9002301F0ADFF454658
:103FC0004646002840F05F8166E1049C32463B464D
:103FD000DDE9000101F044FE01F0C8FF054601F0F3
:103FE000AFFC32463B4601F011FD0B460246DDE9CF
:103FF000000101F057FB05F1300E04F801EB049BC2
:10400000C3EB040EF045CDE900012ED102460B466C
:1040100001F04AFB8046894602460B463046394647
:1040200001F066FF78B942464B463046394601F00A
:1040300055FF002800F04782E90704D443E2DDF889
:1040400028B000E01C4614F8012C392A04F1FF3393
:1040500007D1049A9A42F5D1049930220BF1010B51
:104060000A701A7801321A702DE200225A4B01F0C0
:10407000CDFC00220023CDE9000101F02FFF002834
:10408000A4D020E2089A002A2DD0069A012A0ADC40
:10409000119A12B103F2334302E0149BC3F13603C9
:1040A000079D4C4615E0079B08F1FF35AB42BFBFAB
:1040B000079B0795EA1A0C9BB7BF9B185D1B0C93D7
:1040C0000025B8F1000FB9BFC8EB090400234C4626
:1040D0004346059A01211A4450469944059200F03E
:1040E00013FC064602E0079D089E4C465CB1059B0A
:1040F000002B08DDA342059AA8BF2346C3EB09099C
:10410000E41AD31A0593079B002B1DDD089BABB166
:1041100085B131462A46504600F090FC029A01468D
:104120000646504600F0F9FB02990746504600F05B
:104130004CFB0297079B5A1B06D000E0079A029996
:10414000504600F07BFC02900121504600F0DCFB61
:104150000C9B05465BB31A460146504600F06EFCC8
:10416000069B012B054618DC009B83B9019BC3F31A
:10417000130373B9019B23F000473F0D3F054FB177
:10418000059B013309F101090593012702E000278E
:1041900000E0009F0C9B73B100E000272B6905EB4A
:1041A0008303186900F063FBC0F1200004E0069B64
:1041B000012BD9DD0C9F0120059B184410F01F0036
:1041C0000ED0C0F12003042B08DDC0F11C0008E074
:1041D00010630008000014400000244006D0184678
:1041E0001C30059B0344814404440593B9F1000F3E
:1041F00005DD4A460299504600F06EFC0290059B90
:10420000002B05DD29461A46504600F065FC0546A0
:104210000D9BEBB12946029800F0AFFC002817DA9D
:1042200000230A220299504600F0E6FA089B029009
:104230000BF1FF3B002B00F05881002331460A228E
:10424000504600F0D9FA039B002B064637DC33E0DA
:10425000B8F1000F2ADC069B022B27DDCDF80C807D
:10426000039B83B929460522504600F0C5FA014652
:104270000546029800F081FC00280DDC03E03D4675
:1042800000E000252E46099B049C6FEA030B0AE020
:10429000DDF828B03D463E46049B049A5C1C312361
:1042A00013700BF1010BB0460026F7E0089BCDF828
:1042B0000C8023B9049CB1E0069B022BD0DC002CBF
:1042C00005DD31462246504600F006FC06469FB109
:1042D0007168504600F044FA326902320446920096
:1042E00006F10C010C30FEF71FFE0122214650465C
:1042F00000F0F2FB804600E0B046009BDDF8109035
:1043000003F00103059329460298FFF7CDFA3146E1
:10431000044600F13007029800F02FFC424600905E
:104320002946504600F045FCC36802463BB90146A9
:104330000790029800F021FC079A034600E0012351
:1043400011465046079300F040FA079B4BB9069A76
:104350003AB9059A2AB9392F28D0009B002B1ADCCC
:104360001BE0009A002A04DB1AD1069AC2B9059A0A
:10437000B2B9002B11DD01220299504600F0ACFBCE
:104380002946029000F0F9FB002802DC05D1FA076B
:1043900003D5392F0AD004F1310709F101040CE0EB
:1043A000002B09F101040BDD392F05D1392389F8E0
:1043B000003009F1010954E0013789F800706DE01F
:1043C000049B039A04F8017CE31A9342A1463AD075
:1043D00000230A220299504600F00EFA4645029048
:1043E0004FF000034FF00A023146504604D100F06E
:1043F00003FA0646804686E700F0FEF94146064687
:1044000000230A22504600F0F7F980467BE700239C
:104410000A220299504600F0EFF9029029460298CC
:10442000FFF742FA00F1300704F8017B049B039A7E
:10443000E31A9342EBDB049B012AACBF9B180133C8
:10444000B0469946002601220299504600F044FBEE
:104450002946029000F091FB002802DC15D1FB07F1
:1044600013D54C4614F8013C392B04F1FF3209D125
:10447000049B934204D10BF1010B3123049A02E017
:104480001446EFE70133137008E04C4614F8013C82
:10449000302B04F1FF3201D11446F7E7294650468C
:1044A00000F093F9B8F1000F0DD02EB1464503D0BE
:1044B0003146504600F089F94146504600F085F9F2
:1044C00001E0DDF828B00299504600F07EF90023A3
:1044D000109A23700BF101031360219B1BB11C6028
:1044E00001E008480AE0049808E0039B002B3FF72E
:1044F000E1AE069B022B7FF7DDAEB1E617B0BDE85B
:10450000F08F00BF40620008014900F0A9B800BF69
:10451000F9540008002310B504460360436083602B
:1045200081814366C2810361436183611946082228
:104530005C30FEF704FD054B6362054BA362054B3F
:10454000E362054B2462236310BD00BF995100084C
:10455000BB510008F35100081752000870B56823DA
:104560004D1E5D430E4605F1740100F02BFC044620
:1045700040B1002180E842000C30A06005F16802E3
:10458000FEF7DDFC204670BD836910B5044633BBE1
:104590008364C3640365124B124A1B6882629842AB
:1045A00004BF0123836100F01FF86060204600F023
:1045B0001BF8A060204600F017F80022E0600421FC
:1045C0006068FFF7A7FF01220921A068FFF7A2FF9B
:1045D00002221221E068FFF79DFF0123A36110BDB5
:1045E0002C62000809450008F8B51C4B1E68B36929
:1045F000074613B93046FFF7C7FF4836B4687368FB
:10460000013B04D4B4F90C507DB16834F8E7336849
:104610000BB13668F2E704213846FFF79FFF3060A0
:104620000028F6D10C233B60F8BD4FF6FF73E38101
:104630000123A38165662560A560656025616561CC
:10464000A5610822294604F15C00FEF778FC656349
:10465000A563A564E5642046F8BD00BF2C62000890
:104660002DE9F8438046894600F14804002694B1BC
:10467000A5686768013F0CD4AB89012B07D9B5F950
:104680000E30013303D029464046C84706436835FB
:10469000F0E72468EBE73046BDE8F8830048704750
:1046A00088000020024B0146186800F08BBB00BF59
:1046B0008400002000000000000000000000000056
:1046C00001F0FF01102A2BDB10F0070F08D010F8C3
:1046D000013B013A8B422DD010F0070F42B3F6D1C7
:1046E000F0B441EA012141EA014122F007047FF0E0
:1046F00000070023F0E80256083C85EA010586EA37
:10470000010685FA47F5A3FA87F586FA47F6A5FA72
:1047100087F68EB9EED1F0BC01F0FF0102F007027E
:1047200032B110F8013B013A83EA010313B1F8D129
:104730000020704701387047002D06BF354603380A
:10474000073815F0010F07D1013015F4807F02BF43
:10475000013015F4C03F0130F0BC0138704700BF94
:1047600070B5456A04460E463DB91020FFF79AFF22
:104770006062456085600560C560656AEB6843B14D
:10478000636ADB6853F8260078B1026843F8262094
:1047900017E021220421204600F0B8FA636AE8609D
:1047A000DB68002BECD1002070BD012101FA06F579
:1047B0006A1D9200204600F0A9FA0028F3D0466056
:1047C000856000230361C36070BD70B5446A06460E
:1047D0000D463CB91020FFF765FF706244608460AD
:1047E0000460C4603DB1736A6A68DB6853F82210E4
:1047F000296043F8225070BD2DE9F0410D691F4634
:1048000006460C4601F1140E0023DEF8000081B2CA
:1048100002FB01710F0C000C02FB007089B2013326
:1048200001EB00419D424FEA10474EF8041BECDCBF
:10483000D7B1A3689D4212DB616830460131FFF7B2
:104840008FFF2269023204F10C01804692000C3085
:10485000FEF76AFB21463046FFF7B7FF444604EBFC
:10486000850301355F6125612046BDE8F081030CB9
:104870001B0413B90004102300E0002310F07F4F45
:1048800004BF0002083310F0704F04BF000104336E
:1048900010F0404F04BF80000233002803DB4200C9
:1048A00003D5581C7047184670472020704703688E
:1048B00013F007020BD0D90722D49A074BBF5B082D
:1048C0009B08036003604CBF01200220704799B22F
:1048D00009B91B0C102213F0FF0F04BF1B0A08328A
:1048E000190704BF1B090432990704BF9B08023251
:1048F000D90702D45B0805D0013203601046704727
:10490000002070472020704710B50C460121FFF7AA
:1049100027FF01224461026110BD2DE9F74F1446C3
:104920000A6923699A42B8BF0B468846BCBFA046B5
:104930001C46D8F81070D4F81090D8F80830D8F881
:10494000041007EB09069E42C8BF0131FFF708FFBC
:1049500000F1140505EB860C2B460022634502D2BC
:1049600043F8042BFAE704F1140208F1140102EBF6
:10497000890301EB87070093009B0192934257D96B
:10498000B2F800B0BBF1000F23D08946AE464FF01D
:10499000000859F8044BBEF800A0A3B20BFB03A318
:1049A0004FEA144ADEF8004043444FEA14480BFB38
:1049B0000A8404EB1344F2469BB243EA04434F4596
:1049C0004FEA14484AF8043B01D9D646E1E7CEF84D
:1049D0000480019BB3F802A00432BAF1000F21D089
:1049E0002B682C4689464FF00008B9F800E0B4F86F
:1049F00002B00AFB0EBEF044A3469BB243EA084352
:104A00004BF8043B59F8043BB4F804E01B0C0AFBD8
:104A100003E303EB18434F454FEA134801D95C46C3
:104A2000E3E763600435A7E75CF8043D13B9013E92
:104A3000002EF9DC066103B0BDE8F08F2DE9F843E4
:104A4000154612F0030206460F4607D0013A214CE4
:104A5000002354F82220FFF7CFFE0746AD1036D0D2
:104A6000746A3CB91020FFF71DFE706244608460D8
:104A70000460C460D6F82480D8F808404CB940F2ED
:104A800071213046FFF740FF0023C8F808000446B4
:104A900003604FF00008EB070AD53946224630463E
:104AA000FFF73BFF394681463046FFF78EFE4F4603
:104AB0006D100CD0206808B10446ECE72246214670
:104AC0003046FFF72AFF2060C0F80080F4E7384640
:104AD000BDE8F883DC6200082DE9F0470C464FEA98
:104AE000621A26694968A368564407469146751CB0
:104AF000AB4202DA01315B00FAE73846FFF730FEDD
:104B00000023804600F114011A46534503DA41F8A8
:104B100023200133F9E72AEAEA73206901EB8303D2
:104B200019F01F0904F1140101EB800E14D0C9F132
:104B3000200C0022086800FA09F002439A4643F864
:104B4000042B51F8042B8E4522FA0CF2F2D8CAF845
:104B5000042042B1B51C06E0043B51F8042B43F895
:104B6000042F8E45F9D8013D3846C8F8105021462B
:104B7000FFF72BFE4046BDE8F08703690A699B1AE0
:104B800010B511D192001430143183180A4453F82F
:104B9000044D52F8041D8C4202D007D3012010BDF1
:104BA0009842F4D3002010BD184610BD4FF0FF30DE
:104BB00010BD2DE9F8430C46074611462046154620
:104BC000FFF7DBFF061E08D131463846FFF7C8FD68
:104BD000012303614661BDE8F883BCBF23462C4630
:104BE00038466168BABF1D4601260026FFF7B8FDAA
:104BF0002B69C660266905F11409143404EB860795
:104C000009EB830800F114054FF0000C54F8043B45
:104C100059F8042B1CFA83F11FFA82FE120CCEEB1A
:104C20000101C2EB134303EB214389B24FEA234C4A
:104C3000C84541EA0343A64645F8043BE6D8BE45CD
:104C40000ED25EF8041B1CFA81F2131403EB11431D
:104C500092B242EA03424FEA234C45F8042BEEE7B6
:104C600055F8043D0BB9013EFAE70661BDE8F8834B
:104C70002DE9F7430E46012159EC108B1546FFF73D
:104C80006FFDC9F30A540746C9F313030CB143F48B
:104C900080130193B8F1000F19D002A840F8088DD5
:104CA000FFF705FE009B48B1019AC0F1200102FA0E
:104CB00001F10B43C2407B61019200E07B61019BEB
:104CC000BB61002B14BF02210121396107E001A85B
:104CD000FFF7EDFD019B7B6101213961203034B18B
:104CE000A4F2334404443460C0F1350009E007EB1A
:104CF0008103A0F2324030601869FFF7B8FDC0EBC5
:104D000041102860384603B0BDE8F08338B502FB97
:104D100001F4214600F056F8054618B1224600215C
:104D2000FEF70DF9284638BD38B50546002946D0AE
:104D300051F8043C0C1F002BB8BFE41800F078FCBD
:104D40001F4A1368114613B96360146032E0A3422E
:104D50000ED92268A018834204BF18685B6863609C
:104D600004BF121822600C6024E0A24203D813464C
:104D70005A68002AF9D118681918A1420BD1216884
:104D8000014458188242196014D1106852685A6060
:104D9000014419600EE002D90C232B600AE021685F
:104DA0006018824204BF10685268626004BF09182C
:104DB00021605C602846BDE8384000F03ABC38BD50
:104DC0001C25002070B5CD1C25F0030508350C2DE1
:104DD00038BF0C25002D064601DBA94202D90C2361
:104DE000336046E000F024FC234B1C681A46214641
:104DF000A1B10B685B1B0ED40B2B03D90B60CC1835
:104E0000CD501EE08C420DBF63684B686360136039
:104E100018BF0C4615E00C464968E9E7174C2368B3
:104E20001BB9304600F0A8F920602946304600F052
:104E3000A3F9431C18D0C41C24F00304A0420DD1D4
:104E40002560304600F0F5FB04F10B00231D20F037
:104E50000700C31A0ED05A42E25070BD211A3046E4
:104E600000F08AF90130EBD10C233360304600F0BA
:104E7000E0FB002070BD00BF1C250020182500208D
:104E80009368013B002B10B4936009DA9469A34244
:104E900002DBCBB20A2B03D15DF8044B00F0C0B9A2
:104EA0001368581C10601970C8B25DF8044B704745
:104EB000F8B506460F461446D518AC4208D03A4617
:104EC00014F8011B3046FFF7DBFF431CF5D100E06F
:104ED0000020F8BD2DE9F04F9DB00C461746039316
:104EE000064618B183690BB9FFF74EFB7F4B9C4216
:104EF00001D1746808E07E4B9C4201D1B46803E0A4
:104F00007C4B9C4208BFF468A38918070CD5236921
:104F100053B10023099320238DF8293030238DF8D5
:104F20002A30DFF8D4B144E02146304600F0DEF903
:104F30000028EED04FF0FF30D5E0039A111D126823
:104F40000391002A80F28C80524243F002000792C3
:104F5000049098F800302E2B00F08480032298F8FB
:104F600000106548FFF7ACFB48B14023CBEB0000D5
:104F700003FA00F0049B1843049008F1010898F824
:104F800000105E488DF82810062208F10107FFF78F
:104F900097FB002800F09580594B002B40F088804B
:104FA000039B073323F0070308330393099B534400
:104FB0000993B846454615F8013B1BB9B8EB0709FC
:104FC0000FD003E0252BF9D0A846F3E74B463A462D
:104FD00021463046FFF76CFF01307FD0099B4B44E0
:104FE000099398F80030002B78D000234FF0FF325F
:104FF00004930793059206938DF853301A93012773
:10500000052229783F48FFF75BFB05F10108049B67
:1050100038B13C4A801A07FA00F01843049045461C
:10502000EEE7D90644BF20228DF853201A0744BF6B
:105030002B228DF853202A782A2A3FF47EAF079A34
:1050400000210A20A846013598F80030303B092B92
:1050500003D800FB02320121F4E700293FF479AFC5
:10506000079276E798F801302A2B0BD1039B1A1D83
:105070001B680392002BB8BF4FF0FF3308F1020802
:1050800005936BE70023059308F1010019460A25F3
:105090008046013098F80020303A092A03D805FBF1
:1050A00001210123F4E7002B3FF458AF059155E7A8
:1050B00003AB00932246144B04A93046FDF7DCFFF6
:1050C00007E003AB009322460F4B04A93046FEF7DE
:1050D00087FAB0F1FF3F82467FF468AFA3895B0691
:1050E0003FF528AF09981DB0BDE8F08F7462000845
:1050F00094620008B4620008DE630008E2630008FE
:1051000079300008D8630008B14E000870B50D462C
:105110001446064618B183690BB9FFF735FA134BED
:105120009C4201D1746808E0114B9C4201D1B468E3
:1051300003E0104B9C4208BFF468A368013B002BBE
:10514000A3600CDAA269934202DBEBB20A2B06D110
:10515000224629463046BDE8704000F061B8236819
:105160005A1C22601D70E8B270BD00BF7462000856
:1051700094620008B462000838B5064C0023054666
:105180000846236000F042FF431C02D1236803B1AC
:105190002B6038BD0838002010B50C46B1F90E1050
:1051A00000F048FA0028ABBF636DA3891B1823F4F5
:1051B0008053ACBF6365A38110BD2DE9F0411F464C
:1051C0008B89DB0505460C46164605D502230022D1
:1051D000B1F90E1000F0BAF9A389B4F90E1023F456
:1051E0008053A38132463B462846BDE8F04100F09B
:1051F0006BB810B50C46B1F90E1000F0A7F9431CBE
:10520000A38915BF606523F4805343F48053A381C1
:1052100018BFA38110BDB1F90E1000F0D5B8000081
:10522000F8B50F461446064618B183690BB9FFF767
:10523000ABF9224B9C4201D1746808E0204B9C42A0
:1052400001D1B46803E01F4B9C4208BFF468A36916
:10525000A360A3891A0709D523693BB12368206994
:10526000181A63699842FDB20FDB08E02146304608
:1052700000F03CF80028F1D04FF0FF30F8BD214697
:10528000304600F039F90028F6D1A368013BA3604D
:1052900023685A1C22601F706269431C934204D029
:1052A000A389DB0707D50A2D05D12146304600F03A
:1052B00023F90028E0D12846F8BD00BF7462000839
:1052C00094620008B462000838B5074C05460846E9
:1052D0001146002222601A46FBF7DEFA431C02D177
:1052E000236803B12B6038BD08380020324B70B5FD
:1052F0001D6806460C4625B1AB6913B92846FFF771
:1053000043F92E4B9C4201D16C6808E02C4B9C4227
:1053100001D1AC6803E02B4B9C4208BFEC68B4F9A8
:105320000C309AB215071DD4D00602D4092232607F
:105330003AE0510712D5616B41B104F1440399423F
:1053400002D03046FFF7F0FC00236363A38923F00B
:105350002403A3810023636023692360A38943F0AE
:105360000803A38123694BB9A38903F42073B3F520
:10537000007F03D02146304600F01EF9A28912F0CA
:10538000010305D00023A36063695B42A36103E0CE
:10539000920758BF6369A36023695BB9B4F90C3005
:1053A00003F0800080B230B143F04003A3814FF09E
:1053B000FF3070BD002070BD8400002074620008C2
:1053C00094620008B462000838B5064C0023054614
:1053D0000846236000F0F2FD431C02D1236803B1AC
:1053E0002B6038BD083800208A892DE9F041054638
:1053F00010070C4659D44B68002B02DC0B6C002BB9
:1054000017DDE66AAEB102F48052002392B22F6833
:105410002B600AB1606D15E0216A01232846B04770
:10542000411C0FD12B686BB11D2B01D0162B03D162
:105430002F600020BDE8F081A38943F04003A381E1
:10544000BDE8F081A3895A0705D56368C01A636B6C
:105450000BB1236CC01A00230246E66A216A284673
:10546000B047431CA38906D129681D293AD8214A8F
:10547000CA40D60736D500226260D904226922606C
:1054800004D5421C01D12B6803B96065616B2F60A4
:105490000029CED004F14403994202D02846FFF7F8
:1054A00043FC00206063BDE8F0810F69002FC0D08D
:1054B00093070E6808BF4B690F6018BF0023C7EB46
:1054C00006088B6002E00744C0EB0808B8F1000F43
:1054D000AFDD43463A46216AA66A2846B04700280F
:1054E000F1DCA38943F04003A3814FF0FF30BDE816
:1054F000F08100BF0100402038B50B6905460C461D
:10550000DBB118B183690BB9FFF73EF80C4B9C4235
:1055100001D16C6808E00B4B9C4201D1AC6803E000
:10552000094B9C4208BFEC68B4F90C302BB1214602
:105530002846BDE83840FFF757BF002038BD00BF00
:105540007462000894620008B462000838B5074C21
:10555000054608461146002222601A4600F046FD24
:10556000431C02D1236803B12B6038BD08380020EA
:1055700070B50E46B1F90E10002990B014461D46C4
:1055800006DA00232B60B3891A060ED540230EE0FD
:1055900001AA00F061F80028F3DB029A02F47042DD
:1055A000A2F500535A425A412A604FF4806300200A
:1055B000236010B070BD00008B8973B59E0705464F
:1055C0000C4610D401AB6A46FFF7D2FF009906469D
:1055D0002846FFF7F7FB68B9B4F90C309A0522D4D6
:1055E00043F00203A38104F14703236023610123F5
:1055F000636118E00D4BAB62A389206043F0800328
:10560000A381009B6361019B20614BB1B4F90E1033
:10561000284600F033F818B1A38943F00103A381B1
:10562000A0893043A08102B070BD00BF09450008C9
:105630007047704738B5074C0546084611460022AA
:1056400022601A4600F0DAFC431C02D1236803B141
:105650002B6038BD0838002038B5074C00230546BC
:1056600008461146236000F0B1FC431C02D12368B8
:1056700003B12B6038BD00BF0838002038B5064C98
:10568000002305460846236000F0A8FC431C02D115
:10569000236803B12B6038BD0838002081F0004139
:1056A00002E000BF83F0004330B54FEA41044FEA07
:1056B000430594EA050F08BF90EA020F1FBF54EAA2
:1056C000000C55EA020C7FEA645C7FEA655C00F03E
:1056D000E2804FEA5454D4EB5555B8BF6D420CDD0F
:1056E0002C4480EA020281EA030382EA000083EA92
:1056F000010180EA020281EA0303362D88BF30BD32
:1057000011F0004F4FEA01314FF4801C4CEA113187
:1057100002D0404261EB410113F0004F4FEA0333E6
:105720004CEA133302D0524263EB430394EA050F71
:1057300000F0A780A4F10104D5F1200E0DDB02FAE0
:105740000EFC22FA05F2801841F1000103FA0EF274
:10575000801843FA05F359410EE0A5F120050EF13A
:10576000200E012A03FA0EFC28BF4CF0020C43FA6B
:1057700005F3C01851EBE37101F0004507D54FF078
:10578000000EDCF1000C7EEB00006EEB0101B1F5C8
:10579000801F1BD3B1F5001F0CD349085FEA30000E
:1057A0004FEA3C0C04F101044FEA445212F5800F19
:1057B00080F09A80BCF1004F08BF5FEA500C50F1B6
:1057C000000041EB045141EA050130BD5FEA4C0C99
:1057D000404141EB010111F4801FA4F10104E9D122
:1057E00091F0000F04BF01460020B1FA81F308BF19
:1057F0002033A3F10B03B3F120020CDA0C3208DDE5
:1058000002F1140CC2F10C0201FA0CF021FA02F1BF
:105810000CE002F11402D8BFC2F1200C01FA02F12F
:1058200020FA0CFCDCBF41EA0C019040E41AA2BF54
:1058300001EB0451294330BD6FEA04041F3C1CDA1C
:105840000C340EDC04F11404C4F1200220FA04F03C
:1058500001FA02F340EA030021FA04F345EA0301E6
:1058600030BDC4F10C04C4F1200220FA02F001FAA8
:1058700004F340EA0300294630BD21FA04F029462A
:1058800030BD94F0000F83F4801306BF81F48011C3
:105890000134013D4EE77FEA645C18BF7FEA655C36
:1058A00029D094EA050F08BF90EA020F05D054EA08
:1058B000000C04BF1946104630BD91EA030F1EBF0D
:1058C0000021002030BD5FEA545C05D14000494111
:1058D00028BF41F0004130BD14F580043CBF01F504
:1058E000801130BD01F0004545F0FE4141F47001EA
:1058F0004FF0000030BD7FEA645C1ABF19461046C5
:105900007FEA655C1CBF0B46024650EA013406BFC5
:1059100052EA033591EA030F41F4002130BD00BF84
:1059200090F0000F04BF0021704730B54FF4806441
:1059300004F132044FF000054FF0000150E700BFC2
:1059400090F0000F04BF0021704730B54FF4806421
:1059500004F1320410F0004548BF40424FF000010E
:105960003EE700BF42004FEAE2014FEA31014FEA51
:1059700002701FBF12F07F4393F07F4F81F06051A0
:10598000704792F0000F14BF93F07F4F704730B50F
:105990004FF4607401F0004521F0004120E700BFA2
:1059A00050EA010208BF704730B54FF000050AE029
:1059B00050EA010208BF704730B511F0004502D52A
:1059C000404261EB41014FF4806404F132045FEA2C
:1059D000915C3FF4DCAE4FF003025FEADC0C18BFD1
:1059E00003325FEADC0C18BF033202EBDC02C2F1C7
:1059F000200300FA03FC20FA02F001FA03FE40EA59
:105A00000E0021FA02F11444C1E600BF70B54FF058
:105A1000FF0C4CF4E06C1CEA11541DBF1CEA13553A
:105A200094EA0C0F95EA0C0F00F0DEF82C4481EAA2
:105A3000030621EA4C5123EA4C5350EA013518BFC2
:105A400052EA033541F4801143F4801338D0A0FBAF
:105A500002CE4FF00005E1FB02E506F00042E0FB5C
:105A600003E54FF00006E1FB03569CF0000F18BF62
:105A70004EF0010EA4F1FF04B6F5007F64F540740A
:105A800004D25FEA4E0E6D4146EB060642EAC6219D
:105A900041EA55514FEAC52040EA5E504FEACE2E0A
:105AA000B4F1FD0C88BFBCF5E06F1ED8BEF1004F0D
:105AB00008BF5FEA500E50F1000041EB045170BD89
:105AC00006F0004646EA010140EA020081EA0301CD
:105AD000B4EB5C04C2BFD4EB0C0541EA045170BDC9
