:020000040800F2
:1000000000000220F10B0008370C0008390C000832
:100010003B0C00083D0C00083F0C000800000000ED
:10002000000000000000000000000000410C00087B
:10003000430C000800000000450C0008470C0008B5
:100040004B0C00084D0C00084F0C0008510C000828
:10005000530C0008550C0008570C0008590C0008F8
:100060005B0C00085D0C00085F0C0008610C0008C8
:10007000630C0008650C0008670C0008690C000898
:100080006B0C00086D0C00086F0C0008710C000868
:10009000730C0008750C0008770C0008790C000838
:1000A0007B0C00087D0C00087F0C0008810C000808
:1000B000830C0008850C0008870C0008890C0008D8
:1000C0008B0C00088D0C00088F0C0008910C0008A8
:1000D000930C0008550B0008970C0008990C0008B9
:1000E0009B0C00089D0C00089F0C0008A10C000848
:1000F000A30C0008A50C0008A70C0008A90C000818
:10010000AB0C0008AD0C0008AF0C0008B10C0008E7
:10011000B30C0008B50C0008B70C0008B90C0008B7
:10012000BB0C0008BD0C0008BF0C0008C10C000887
:10013000C30C0008C50C0008C70C0008C90C000857
:10014000CB0C0008CD0C0008CF0C0008D10C000827
:10015000D30C0008D50C0008D70C0008D90C0008F7
:10016000DB0C0008DD0C0008DF0C0008E10C0008C7
:10017000E30C0008E50C0008E70C0008E90C000897
:10018000EB0C0008ED0C000810B5054C237833B9D2
:10019000044B13B10448AFF300800123237010BD5A
:1001A0007800002000000000C80E0008084B10B5C1
:1001B0001BB108490848AFF300800848036803B939
:1001C00010BD074B002BFBD0BDE81040184700BF07
:1001D000000000007C000020C80E0008780000200D
:1001E00000000000154B002B08BF134B9D46A3F5E4
:1001F000803A00218B460F461348144A121A00F029
:1002000040FE0F4B002B00D098470E4B002B00D028
:1002100098470020002104000D000D48002802D05E
:100220000C48AFF3008000F0FBFD2000290000F037
:1002300095FC00F0E1FD00BF000008000000022076
:10024000000000000000000078000020A40C002046
:100250000000000000000000C3785BB90378184874
:100260005A09203203F01F03012101FA03F340F879
:1002700022307047F0B4134B4778D96882780478FD
:100280000F4EC943C1F30221C1F10405EDB20F23A2
:1002900007FA05F50B41EDB213402B4304F1604220
:1002A00002F561421B01DBB282F8003303780122C0
:1002B00003F01F015B098A4046F82320F0BC704719
:1002C00000E100E000ED00E002683749002310B4CF
:1002D00022F00102212488420260036043608360AF
:1002E000C360036144614DD0304B984235D0304BF0
:1002F000984239D02F4B98423DD02F4B984247D04F
:100300002E4B984248D02E4B98421DD02D4B9842F0
:100310001ED02D4B984243D02C4B98421DD02C4BD5
:10032000984221D02B4B984225D02B4B98422FD06E
:100330002A4B984230D02A4B984205D0294B9842FC
:1003400006D05DF8044B7047274A43F8942CF8E731
:100350004FF03D5243F8AC2CF3E74FF4746243F88E
:10036000202C5DF8044B70474FF4741243F8382C7E
:100370005DF8044B70474FF0746243F8502C5DF801
:10038000044B7047194B3D229A605DF8044B70474F
:10039000174A43F8642CD4E7164A43F87C2CD0E77C
:1003A0003D2243F8082CCCE7106002402860024050
:1003B0004060024058600240706002408860024025
:1003C000A0600240B860024010640240286402400D
:1003D00040640240586402407064024088640240F5
:1003E000A0640240B864024000003D20006002406A
:1003F0003D000020400F0020F0B401F118028CCA2B
:100400000E68CD684C693543254315434E6A4C6BE5
:100410008A6B1D433D438B6A35431D4306680B4B76
:100420002C432243334013430360CC6A42690B6B75
:1004300022F007022343134343610B6943604B6877
:1004400083608B68C360F0BC704700BF3F801CF0C6
:100450000023036043608360C36003614361836181
:10046000C361036243628362C36203634363836362
:10047000704700BF036819B923F001030360704798
:1004800043F0010303607047036819B923F02003A8
:100490000360704743F0200303607047416070477A
:1004A000406880B2704700BF406900F03800704774
:1004B00010B4094B094C0A4AA04294BF1846104692
:1004C00011F0005F21F0F02121F0821114BFC16012
:1004D00081605DF8044B7047006002400F64024089
:1004E00000640240FFF7E4BF0022F0B51346012686
:1004F000032704E00133102B02F102022FD00D6814
:1005000006FA03F434EA0505F4D1D0F800E007FA5E
:1005100002F5ED430EEA050EC0F800E091F804E0A4
:10052000D0F800C00EFA02FE4EEA0C0EC0F800E051
:1005300091F804E00EF1FF3EBEF1010F07FA02FC54
:100540000ED9C46824EA0C04C460CC79C568944010
:1005500001332C43102BC46002F10202CFD1F0BD55
:10056000D0F808E005EA0E05856091F805E0856899
:100570000EFA02FE4EEA05058560456825EA040488
:1005800044608C7945689C40A4B22C434460D8E711
:1005900010B4CB0800EB830001F00701046A890066
:1005A0000F238B4024EA03030362036A8A4042EA72
:1005B000030101625DF8044B704700BF10B4214C89
:1005C000A36803F00C03042B1BD0082B1CD01E4B7C
:1005D00003601C4A1D499468C4F303140C5DE34096
:1005E00043609468C4F382240C5D23FA04F48460AD
:1005F00092685DF8044BC2F342328A5CD340C36018
:100600007047134B0360E4E76368616813F4800F7D
:10061000636818BF0E4C01F03F020CBF0A49B4FBDF
:10062000F2F1C3F3881308BFB1FBF2F101FB03F24F
:10063000044B5B68C3F3014301335B00B2FBF3F38C
:100640000360C6E7003802400024F40000000020E8
:1006500040787D0129B9054A136B23EA0000106335
:100660007047024B1A6B1043186370470038024002
:1006700029B9054A536C23EA000050647047024BC5
:100680005A6C1043586470470038024029B9054A33
:10069000136A23EA000010627047024B1A6A104383
:1006A000186270470038024029B9054A536A23EAA4
:1006B000000050627047024B5A6A104358627047FC
:1006C0000038024008B52B4B984219D02A4B98426B
:1006D00020D02A4B984229D0294B984232D0294B1E
:1006E00098423BD0284B984200D008BD01212020E1
:1006F000FFF7DAFF00212020BDE80840FFF7D4BF54
:1007000001211020FFF7D0FF00211020BDE8084094
:10071000FFF7CABF01214FF40030FFF7B7FF0021F8
:100720004FF40030BDE80840FFF7B0BF01214FF49F
:100730008020FFF7ABFF00214FF48020BDE8084088
:10074000FFF7A4BF01214FF40020FFF79FFF002116
:100750004FF40020BDE80840FFF798BF01214FF497
:100760008010FFF793FF00214FF48010BDE8084090
:10077000FFF78CBF001001400044004000480040DB
:10078000004C0040005000400014014030B5038A86
:10079000CA889BB223F440531343038282890B8996
:1007A000044688880D464989034392B20B4322F4DC
:1007B000B05222F00C029BB21343A381A38AAA89F0
:1007C0009BB223F44073134385B0A3826846FFF7BE
:1007D000F5FE1D4B9C4228D003F580639C4224D03B
:1007E000029AA389A18913F4004F2B6802EB8202BD
:1007F00014BF5B009B0002EB8202B2FBF3F0134AD2
:10080000A2FB00356D096423090405FB13034FEABD
:1008100005150CD41B013233A2FB0323C3F343138E
:100820002B439BB2238105B030BD039AD9E7D90091
:100830003231A2FB0131C1F3421242EA05039BB2FD
:10084000238105B030BD00BF001001401F85EB5172
:1008500000234FF416510C22016042818380C38033
:1008600003818381704700BF838929B923F4005332
:100870001B041B0C838170479BB243F4005383819C
:10088000704700BF8088C0F308007047838A9BB21E
:100890001AB923EA010181827047194381827047A6
:1008A00010B401F01F04C1F342110123012903FA1E
:1008B00004F311D002290CBF1030143032B9026891
:1008C00022EA030303605DF8044B70470268134398
:1008D00003605DF8044B70470C30EFE7C94389B201
:1008E00001807047C1F3421210B4012301F01F04CC
:1008F000012A03FA04F317D0022A0CBF028A828A63
:1009000092B21340028892B253B10123090A03FA4A
:1009100001F10A4214BF184600205DF8044B7047ED
:1009200018465DF8044B7047828992B21340E9E79C
:100930002DE9F04196B00E464FF480000121984613
:1009400017469DF87050FFF785FE01210846FFF716
:1009500081FE01211020FFF78BFE4C48FFF7B2FE0D
:10096000072209214A48FFF713FE07220A214848B7
:10097000FFF70EFE4FF400730222002401A9019339
:1009800043488DF8082001238DF809208DF80A408E
:100990008DF80B30FFF7A8FD4FF4806301A93C48A8
:1009A0000193FFF7A1FD03A8FFF752FFB8F1020F73
:1009B00014BF22464FF40052092F14BF23464FF4B0
:1009C0008053022DADF8103098BF324B2F4898BF9E
:1009D00033F8154003960C2303A9ADF81630ADF893
:1009E0001220ADF81440FFF7D1FE012280212748E4
:1009F000294FFFF74BFF012240F225512348FFF713
:100A00004FFF01212148FFF72FFF00240123032579
:100A1000252268468DF803308DF800208DF80150AE
:100A20008DF80240FFF718FC4FF4C0621B491C48C8
:100A300000F0A6F81B48FFF747FC21461948FFF7CE
:100A400019FD07A8FFF704FD4FF00062164B139540
:100A500007A9079208934FF400320423114811921A
:100A600040264FF4806512930B940C940E940F94CF
:100A7000109409970A960D95FFF7BEFC2146094888
:100A8000FFF702FD16B0BDE8F08100BF0010014085
:100A900000000240AC0E0008A4000020A4060020C4
:100AA00094000020B86402400410014000B90AB963
:100AB0000020704770B5174814460D46FFF7F0FC4C
:100AC000064608B1002070BD1248FFF7EDFC202853
:100AD000F8D1B4F5C06F28BF4FF4C06440210E4870
:100AE000FFF7FCFE224629460C4800F0BFF93146CC
:100AF0000848FFF7BFFC4FF020510648FFF7F2FC13
:100B0000A1B20448FFF7CAFC01210248FFF7B2FC7A
:100B1000204670BDB864024000100140A4000020CF
:100B200000B540F2255183B00848FFF7DBFE48B11D
:100B30000648FFF7A7FE02A9012201F8010D0448AB
:100B400000F02AF803B05DF804FB00BF001001407C
:100B5000940000200020FFF7E3BF00BF00B583B082
:100B600000200090012308224FF4E131FFF7E0FE5E
:100B7000092202490020FFF799FFF9E7B40E0008A7
:100B800010B111B112B9FEE7FEE7FEE70260C160E5
:100B9000416081600020704731B3034628B340684C
:100BA00020B3986818B3F0B48F18B94219D09C6874
:100BB000651C9D6011F8015B2570DE681D689C68EE
:100BC0003544AC425D6824BF9E603446AC42ECD1F3
:100BD00018680134304484425C6028BF5E60B942CA
:100BE000E5D11046F0BC7047FEE7FEE7FEE7FEE702
:100BF0000649074A074B9A42BEBF51F8040B42F818
:100C0000040BF8E70448804704480047D40E000866
:100C10000000002078000020F90C0008E501000821
:100C20003349344A002301E041F8043B9142FBD3AD
:100C3000FFF794FFFEE7FEE7FEE7FEE7FEE7FEE7CD
:100C4000FEE7FEE7FEE7FEE7FEE7FEE7FEE7FEE77C
:100C5000FEE7FEE7FEE7FEE7FEE7FEE7FEE7FEE76C
:100C6000FEE7FEE7FEE7FEE7FEE7FEE7FEE7FEE75C
:100C7000FEE7FEE7FEE7FEE7FEE7FEE7FEE7FEE74C
:100C8000FEE7FEE7FEE7FEE7FEE7FEE7FEE7FEE73C
:100C9000FEE7FEE7FEE7FEE7FEE7FEE7FEE7FEE72C
:100CA000FEE7FEE7FEE7FEE7FEE7FEE7FEE7FEE71C
:100CB000FEE7FEE7FEE7FEE7FEE7FEE7FEE7FEE70C
:100CC000FEE7FEE7FEE7FEE7FEE7FEE7FEE7FEE7FC
:100CD000FEE7FEE7FEE7FEE7FEE7FEE7FEE7FEE7EC
:100CE000FEE7FEE7FEE7FEE7FEE7FEE7FEE70000C1
:100CF00078000020A40C002039493A4BD1F8882014
:100D0000394842F47002C1F888201A68002142F084
:100D100001021A6099601A6822F0847222F480320B
:100D20001A6058601A6882B022F480221A60D96072
:100D3000009101911A6842F480321A601A4603E069
:100D4000009BB3F5C06F09D0136803F4003301931F
:100D5000009B01330093019B002BF1D0214B1B68BA
:100D600013F4003318BF01230193019B012B05D01D
:100D70001B4B4FF000629A6002B07047194B1B4941
:100D80001A6C1B4842F080521A640A6842F480428E
:100D90000A609A689A609A6842F400429A609A6877
:100DA00042F4A0529A6058601A6842F080721A6049
:100DB0001A4611680B4B8901FBD50E4A40F20571AA
:100DC00011609A6822F003029A609A6842F0020267
:100DD0009A601A46936803F00C03082BFAD1C7E710
:100DE00000ED00E0003802401030002400700040A8
:100DF00019544007003C024008B5074B044613B1A4
:100E00000021AFF30080054B1868836A03B198474F
:100E1000204600F03EF800BF00000000C40E0008AD
:100E200070B50E4B0E4CE41AA41000251E46A542C8
:100E300004D056F8253098470135F8E700F02AF835
:100E4000084C094BE41AA41000251E46A54204D004
:100E500056F8253098470135F8E770BD700000203E
:100E600070000020740000207000002010B5431EA8
:100E70000A44914204D011F8014B03F8014FF8E7FE
:100E800010BD02440346934202D003F8011BFAE767
:100E90007047FEE7F8B500BFF8BC08BC9E46704737
:100EA000F8B500BFF8BC08BC9E46704700000006BD
:100EB0000004000032303139303132300A00000095
:0C0EC000430000001000002000000000B3
:080ECC0018F3FF7F0100000094
:100ED40000000000010203040102030406070809DC
:100EE40000000000000000000000000000000000FE
:100EF40000000000000000000000000000000000EE
:100F0400C00E000800000000000000000000000007
:100F140000000000000000000000000000000000CD
:100F240000000000000000000000000000000000BD
:100F340000000000000000000000000000000000AD
:080F4400AD010008890100085D
:0400000508000000EF
:00000001FF
