:020000040800F2
:1000000000000220991E0008DF1E0008E11E000803
:10001000E31E0008E51E0008E71E000800000000BF
:100020000000000000000000000000008103000844
:10003000EB1E000800000000110400087504000811
:10004000F31E0008F51E0008F71E0008F91E000840
:10005000FB1E0008FD1E0008FF1E0008011F00080F
:10006000031F0008051F0008071F0008091F0008DC
:100070000B1F00080D1F00080F1F0008111F0008AC
:10008000131F0008151F0008171F0008191F00087C
:100090001B1F00081D1F00081F1F0008211F00084C
:1000A000231F0008251F0008271F0008291F00081C
:1000B0002B1F00082D1F00082F1F0008311F0008EC
:1000C000331F0008351F0008371F0008391F0008BC
:1000D0003B1F00083D1F00083F1F0008411F00088C
:1000E000431F0008451F0008471F0008491F00085C
:1000F0004B1F00084D1F00084F1F0008511F00082C
:10010000531F0008551F0008571F0008591F0008FB
:100110005B1F00085D1F00085F1F0008611F0008CB
:10012000631F0008651F0008671F0008691F00089B
:100130006B1F00086D1F00086F1F0008711F00086B
:10014000731F0008751F0008771F0008791F00083B
:100150007B1F00087D1F00087F1F0008811F00080B
:10016000831F0008851F0008871F0008891F0008DB
:100170008B1F00088D1F00088F1F0008911F0008AB
:10018000931F0008951F000810B5054C237833B95C
:10019000044B13B10448AFF300800123237010BD5A
:1001A0007400002000000000E8340008084B10B57F
:1001B0001BB108490848AFF300800848036803B939
:1001C00010BD074B002BFBD0BDE81040184700BF07
:1001D0000000000078000020E834000874000020CF
:1001E00000000000154B002B08BF134B9D46A3F5E4
:1001F000803A00218B460F461348144A121A02F027
:100200004CF90F4B002B00D098470E4B002B00D021
:1002100098470020002104000D000D48002802D05E
:100220000C48AFF3008002F007F92000290001F02C
:1002300007FE02F0EDF800BF0000080000000220F9
:10024000000000000000000074000020542E012077
:10025000000000000000000000F108034FF0FF3133
:100260000022816080E80C00C3600361704700BF1A
:1002700000230361704700BF43684B609A688A603F
:100280009A685160996008610368013303607047A0
:1002900030B40D686B1C11D000F1080200E01A4662
:1002A00053681C68A542FAD24B6099608A6051601D
:1002B000086103680133036030BC7047026953680A
:1002C000F2E700BF42688168036991608268416813
:1002D00051605A68904204BF82685A6000220261ED
:1002E00018680138186070470A4B1B68013308D042
:1002F0004FF0500383F31188BFF36F8FBFF34F8F1D
:10030000FEE74FF0500383F31188BFF36F8FBFF305
:100310004F8FFEE70000002006480068006880F369
:10032000088862B661B6BFF34F8FBFF36F8F00DFEF
:1003300000BF000008ED00E0DFF80C00016841F4A8
:10034000700101607047000088ED00E030B421F0DA
:1003500001014FF0807500E92200064C40F8202C86
:100360006FF0020340F80C4C40F8243C30BC443899
:10037000704700BFE9020008000000000000000014
:10038000074B19680868B0E8F04F80F30988BFF39D
:100390006F8F4FF0000080F311887047AFF300803B
:1003A000542D01204FF0500383F31188BFF36F8F5A
:1003B000BFF34F8F0A4A13680133012B136000D03B
:1003C0007047084B1B6813F0FF0FF9D04FF0500334
:1003D00083F31188BFF36F8FBFF34F8FFEE700BF2A
:1003E0000000002004ED00E0084A136843B94FF014
:1003F000500383F31188BFF36F8FBFF34F8FFEE776
:10040000013B13600BB983F3118870470000002093
:10041000EFF30980BFF36F8F154B1A681EF0100FB2
:1004200008BF20ED108A20E9F04F10604DF8043D20
:100430004FF0500080F31188BFF34F8FBFF36F8FE1
:1004400001F0D2F84FF0000080F3118808BC196861
:100450000868B0E8F04F1EF0100F08BFB0EC108A2B
:1004600080F30988BFF36F8F704700BFAFF3008040
:10047000542D012008B54FF0500383F31188BFF3CA
:100480006F8FBFF34F8F00F013FF18B1034B4FF086
:1004900080521A60002383F3118808BD04ED00E048
:1004A000064B07491B680748074AA1FB03139B0932
:1004B000013B072103601160704700BF040000206A
:1004C000D34D621014E000E010E000E0314B324AFE
:1004D000196891424CD01A68304B9A4251D010B5ED
:1004E0002F4B304C1A78304882B0D2B2FF210192A3
:1004F00019701B78DBB28DF803309DF803209DF84E
:10050000031002F0500207230906227003600ED583
:10051000062300E00B469DF803205200D2B28DF86E
:1005200003209DF80320120603F1FF31F2D4019954
:100530001B4C1E4A1B02C9B203F4E0630360217026
:10054000136843F470031360136843F0704313603F
:10055000FFF7A6FF164B00221A60FFF7EDFE154AC3
:10056000136843F040431360FFF7D6FEFFF7BCFE6D
:100570004FF0500383F31188BFF36F8FBFF34F8F9A
:10058000FEE74FF0500383F31188BFF36F8FBFF383
:100590004F8FFEE700ED00E071C20F4170C20F41C6
:1005A00000E400E0900000209400002020ED00E036
:1005B0000000002034EF00E0EFF305830F2B0ED98D
:1005C0001049114A5B5C12789A4208D94FF05003E7
:1005D00083F31188BFF36F8FBFF34F8FFEE70B4B91
:1005E0000B4A1B68126803F4E063934208D94FF08A
:1005F000500383F31188BFF36F8FBFF34F8FFEE774
:10060000704700BFF0E300E0900000200CED00E038
:1006100094000020124B1A68824201D21346FAE776
:1006200010B459685C18A04203D140680144596075
:10063000184641684418A2420AD10A4C2468A242D2
:1006400006D05268114441601A681268026000E0E6
:100650000260984218BF18605DF8044B704700BFF5
:10066000A00000209C0000202DE9F041044600F08D
:1006700011FE42490B68002B5AD0414B1D682C4299
:1006800050D1002C4ED004F1080358071CBF23F0B2
:1006900007030833002B45D0DFF8F480D8F800605A
:1006A000B3423FD8374A146803E0206820B122469D
:1006B000044660688342F8D809688C4232D02168C9
:1006C000176811606268D11A102910D9E018420722
:1006D00008D04FF0500383F31188BFF36F8FBFF33F
:1006E0004F8FFEE741606360FFF794FF6268264822
:1006F0000168B31A8B4238BF03601543C8F8003055
:1007000000236560236007F1080500F075FE6B07A4
:100710000BD04FF0500383F31188BFF36F8FBFF3FB
:100720004F8FFEE700F068FE00252846BDE8F08107
:10073000164A55071FD0D01D20F0070002F596334A
:100740001B1A02461344083B23F00703104E0D4DBD
:10075000DFF834E00A4F0B60981A3060002685E815
:1007600044004FF000455E601E60CEF800003D6022
:100770005060136083E74FF49633E3E79C0000205A
:10078000A82C0120A0000020AC2C0120A8000020F3
:1007900098000020D0B1194A50F8043C1268134266
:1007A00008D14FF0500383F31188BFF36F8FBFF36D
:1007B0004F8FFEE750F8081C49B14FF0500383F308
:1007C0001188BFF36F8FBFF34F8FFEE7704723EAA7
:1007D000020310B540F8043C044600F05BFD084AF3
:1007E00054F8041C1368A4F108000B441360FFF7CD
:1007F00011FFBDE8104000F0FFBD00BFA82C012094
:100800009800002070B51546026C866B044632B91C
:1008100005683DBB406801F055F8656029E06DB999
:10082000806801F02FFEA168236C62680B4493423C
:10083000A36019D32368A36028461AE0C06801F0BA
:1008400021FE236CE26821685B421A448A42E2601E
:1008500002D262681344E360022D07D146B1013E23
:10086000002006E0104604E0284602E0002000E0F8
:1008700030460136A66370BD026C034672B110B4F7
:100880000846D9685C681144A142D96024BF196840
:10089000D960D9685DF8044B01F0F4BD704700BF22
:1008A00070B50546FFF77EFD95F8454064B2002C13
:1008B00016DD6B6AA3B105F1240605E0013CE3B245
:1008C0005CB26BB16B6A5BB1304600F0FFFE002892
:1008D000F4D0013C00F092FFE3B25CB2002BF1D106
:1008E000FF2385F84530FFF77FFDFFF75BFD95F8A7
:1008F000444064B2002C16DD2B69A3B105F110064B
:1009000005E0013CE3B25CB26BB12B695BB13046F0
:1009100000F0DCFE0028F4D0013C00F06FFFE3B2F1
:100920005CB2002BF1D1FF2385F84430BDE8704064
:10093000FFF75ABD38B5E0B104460D46FFF732FD6A
:10094000226CE36B2168A16003FB02F39A1A0A444C
:100950000B440020FF21A063E26084F84410636030
:1009600084F8451005BB236963B9FFF73DFD0120FD
:1009700038BD4FF0500383F31188BFF36F8FBFF37F
:100980004F8FFEE704F1100000F0A0FE0028ECD02D
:100990000B4B4FF080521A60BFF34F8FBFF36F8F36
:1009A000FFF722FD012038BD04F11000FFF754FCD1
:1009B00004F12400FFF750FCFFF716FD012038BDBD
:1009C00004ED00E0F8B540B94FF0500383F311880F
:1009D000BFF36F8FBFF34F8FFEE7064601FB00F0BA
:1009E000503017460D46FFF73FFE044648B155B953
:1009F0002060E663256401212046FFF79BFF84F811
:100A00004C702046F8BD00F150030360F1E700BFD1
:100A10002DE9F04784B00192002800F0A78000295A
:100A200000F09780022B00F0878004461F4689461D
:100A300000F0EAFE50B9019E4EB14FF0500383F32F
:100A40001188BFF36F8FBFF34F8FFEE700264FF083
:100A50000008DFF838A127E0FFF7C6FC00F01AFC19
:100A6000FFF7A0FC94F84430FF2B08BF84F84480C3
:100A700094F84530FF2B08BF84F84580FFF7B4FC9D
:100A800001A902A800F076FE002878D1FFF78AFCC1
:100A9000A26BE36B9A4217D0FFF7A6FC2046FFF744
:100AA000FFFE00F0A9FC0126FFF77CFCA26BE36BC4
:100AB0009A4226D3022F24D0019DE5B1002ECBD13E
:100AC00002A800F047FEC7E7FFF78EFC019904F18A
:100AD000100000F0C1FD2046FFF7E2FE00F08CFCA4
:100AE0000028E0D14FF08053CAF80030BFF34F8F99
:100AF000BFF36F8FD7E7FFF777FC284604B0BDE858
:100B0000F0873A4649462046FFF77CFE636A63B9A0
:100B100038B11E4B4FF080521A60BFF34F8FBFF3B6
:100B20006F8FFFF761FC0120E8E704F1240000F07B
:100B3000CDFD0028EDD1F4E7C26B012A3FF475AF7B
:100B40004FF0500383F31188BFF36F8FBFF34F8FC4
:100B5000FEE7026C002A3FF465AF4FF0500383F3C9
:100B60001188BFF36F8FBFF34F8FFEE74FF0500335
:100B700083F31188BFF36F8FBFF34F8FFEE72046DB
:100B8000FFF78EFE00F038FC0020B7E704ED00E030
:100B90002DE9F843F0B1002941D0022B33D00446AF
:100BA0001F4690468946FFF707FDEFF311864FF089
:100BB000500383F31188BFF36F8FBFF34F8FA26B86
:100BC000E36B9A420FD3022F0DD0002086F31188D9
:100BD000BDE8F8834FF0500383F31188BFF36F8FA4
:100BE000BFF34F8FFEE794F845503A4649466DB241
:100BF0002046FFF707FE6B1C1DD06B1C5BB284F810
:100C000045300120E2E7C46B012CC8D04FF05003FF
:100C100083F31188BFF36F8FBFF34F8FFEE7046C30
:100C2000002CBAD04FF0500383F31188BFF36F8FBD
:100C3000BFF34F8FFEE7636A002BE2D004F124007C
:100C400000F044FD0028DCD0B8F1000FD9D001201D
:100C5000C8F80000BAE700BF2DE9F04784B0019260
:100C6000002800F08D80002900F0BB8004469946E2
:100C7000884600F0C9FD50B9019D4DB14FF05003B9
:100C800083F31188BFF36F8FBFF34F8FFEE700250B
:100C9000FFF788FBA66BDFF864A10027002E43D185
:100CA000019B002B7DD015B902A800F053FDFFF782
:100CB0009BFB00F0EFFAFFF775FB94F84430FF2B35
:100CC00008BF84F8447094F84530FF2B08BF84F8BF
:100CD0004570FFF789FB01A902A800F04BFD002831
:100CE00041D1FFF75FFBA36B002B33D1FFF77CFBF8
:100CF0002368002B4DD0019904F1240000F0ACFCD6
:100D00002046FFF7CDFD00F077FB38B94FF0805358
:100D1000CAF80030BFF34F8FBFF36F8F0125FFF785
:100D200041FBA66B002EBBD041462046E568FFF78D
:100D3000A3FDB9F1000F3AD12368013EA66313B9B0
:100D400000F01AFE60602369002B43D1FFF74CFBD3
:100D5000012029E0FFF748FB2046FFF7A1FD012510
:100D600000F04AFBDBE72046FFF79AFD00F044FB6A
:100D7000FFF718FBA36BA3B1FFF736FB0125CEE706
:100D80004FF0500383F31188BFF36F8FBFF34F8F82
:100D9000FEE7FFF707FB606800F046FDFFF724FB66
:100DA000A9E7FFF721FB002004B0BDE8F087636AE4
:100DB000E560002BCAD004F1240000F087FC002875
:100DC000C4D00E4B4FF080521A60BFF34F8FBFF369
:100DD0006F8FBBE704F1100000F078FC0028F0D121
:100DE000B4E7026C002A3FF441AF4FF0500383F3A5
:100DF0001188BFF36F8FBFF34F8FFEE704ED00E064
:100E000070B4094A002352F83340074E02EBC30581
:100E100024B10133082BF6D170BC7047686046F8E6
:100E2000331070BC704700BF002E012070B504461F
:100E30000D461646FFF7B6FA94F84430FF2B04BF70
:100E4000002384F8443094F84530FF2B04BF00237E
:100E500084F84530FFF7C8FAA36B2BB93246294610
:100E600004F1240000F012FC2046BDE87040FFF7BA
:100E700017BD00BF034A044B1268D268D26852689B
:100E80001A607047B42C0120582D0120F8B51C4B76
:100E90001C4D1E682B680446181D0F46FFF712FAFA
:100EA00040B92B681849D86A0A680123834022EAAE
:100EB00003030B60631C19D034442B68114A5C6037
:100EC000A6420BD8114B186811680431FFF7E0F9FE
:100ED0000F4B1A68944238BF1C60F8BD0D4B186860
:100EE0001168BDE8F8400431FFF7D2B9002FE3D014
:100EF000296809480431BDE8F840FFF7BDB900BFD3
:100F0000602D0120542D0120AC2D0120B42C012096
:100F1000582D0120642D0120982D01204FF0500301
:100F200083F31188BFF36F8FBFF34F8FFEE700BFCE
:100F30002DE9F84F4FEA82080646404689461F468B
:100F40000B9DFFF791FB002800F096808246582009
:100F5000FFF78AFB0446002800F08B804246C0F869
:100F600030A0A521504601F098FA236BA8F104089F
:100F7000984428F0070809F1FF3309F1090104F149
:100F8000330213F8010F02F8010F187808B18B42F1
:100F9000F7D10A9B042B28BF04234FF0000B04F168
:100FA000040AE362A364504684F83DB0C4F84CB030
:100FB0009946FFF75DF904F11800FFF759F9C9F1F7
:100FC0000503C4F850B0A361246184F854B064628E
:100FD0003A4631464046FFF7B9F9206005B12C602A
:100FE000FFF7E0F93D4A3E4E136801331360336862
:100FF000002B45D03B4F3B687BB3E36ADFF80481AD
:10100000DFF804C1DFF804E1DCF80020DEF80000BE
:1010100001252A44CCF80020226405FA03F203EBF0
:1010200083030243514608EB8300CEF80020FFF70C
:1010300023F9FFF7D9F93B68C3B13268E36AD26A92
:101040009A4213D2284B4FF080521A60BFF34F8F51
:10105000BFF36F8F2846BDE8F88F3268E36AD26A23
:10106000DFF8A0809A4298BF3460C9E72846BDE8FF
:10107000F88F5046FFF78EFB4FF0FF30BDE8F88F3A
:1010800034601368012B04D0E36ADFF87880154FD1
:10109000B6E7DFF87080454608F164072846143546
:1010A000FFF7DAF8BD42F9D1DFF864900F4D0D4F2C
:1010B0004846FFF7D1F82846FFF7CEF80C48FFF76F
:1010C000CBF80C48FFF7C8F80B48FFF7C5F80B4BF7
:1010D0000B4AC2F800901D60E36A91E7802D012061
:1010E000542D0120B82C012004ED00E0842D0120B6
:1010F000682D01203C2D0120982D0120642D012018
:10110000B42C0120D82C01207C2D0120AC2D0120F5
:10111000C02C012070B50446324DFFF743F9002C76
:101120003FD0261D3046FFF7CDF830B9E16A2E4B8F
:1011300001EB810253F822305BB3A36A1BB104F1C7
:101140001800FFF7BFF8294A296813688C4203F199
:101150000103136027D0264A206B1368013B1360FC
:10116000FFF718FB2046FFF715FB224B1B681B6897
:1011700053B1FFF77FFEFFF737F91F4B1B6813B121
:101180002B689C4218D070BD1C4B4FF0FF321A6088
:10119000F1E71B48012203688A4023EA0203036047
:1011A000CBE72C68BDE731461648FFF765F8164ACD
:1011B000136801331360DEE7144B1B6843B14FF033
:1011C000500383F31188BFF36F8FBFF34F8FFEE798
:1011D0000F4B4FF080521A60BFF34F8FBFF36F8FEA
:1011E00070BD00BF542D0120D82C01207C2D012082
:1011F000802D0120B42C0120B82C0120582D012075
:10120000AC2D01203C2D0120502D0120BC2C0120B3
:1012100004ED00E030B583B0184B01930024009436
:101220002346822216491748FFF782FE01280CD078
:10123000013001D003B030BD4FF0500383F311886B
:10124000BFF36F8FBFF34F8FFEE700F0F1FB012874
:10125000EED14FF0500383F31188BFF36F8FBFF3CC
:101260004F8F0949094A0A4B4FF0FF350D60106056
:101270001C6003B0BDE83040FFF728B95C2D0120A9
:10128000F033000851150008582D0120B82C01201A
:10129000602D0120024A136801331360704700BFBC
:1012A000BC2C0120014B1868704700BF602D012045
:1012B0002DE9F84F454B1B68002B52D1444B1D685C
:1012C00001351D60002D59D0DFF824B1DBF8002076
:1012D000404F414E95425ED3DFF8189100242DE037
:1012E0003E4B1A68D268D2F80C80D8F8041008F186
:1012F000040A8D4250465FD3FEF7E4FFD8F8281069
:1013000008F1180009B1FEF7DDFFD8F82C00D9F874
:101310000030012202FA00FC00EB8000514607EB8E
:1013200080004CEA0303C9F80030FEF7A5FF3068DF
:10133000D8F82C10C26A914228BF0124274B1A68A2
:101340001268002ACCD14FF0FF32CBF8002033686E
:10135000DB6A03EB830357F82330022B28BF0124F9
:1013600004E01F4A13680133136000241D4B1B68FF
:10137000002B18BF01242046BDE8F88F174B1A68D0
:10138000126852B14FF0500383F31188BFF36F8F8F
:10139000BFF34F8FFEE70024D9E7134A18681349BB
:1013A00014681C6010600A6801320A601B681B68C0
:1013B0002BB1FFF75FFD87E7CBF80010C7E7DFF839
:1013C00030B04FF0FF32CBF800207FE7BC2C01207B
:1013D000602D0120D82C0120542D0120B42C012097
:1013E000D42C0120B02D0120642D0120B02C01202F
:1013F000582D0120AC2D01202DE9F84F364C2368E3
:1014000043B94FF0500383F31188BFF36F8FBFF3DD
:101410004F8FFEE7FEF7C6FF2368013B2360246879
:10142000002C50D12D4B1B68002B4CD0DFF8CCA0EA
:101430002B4D2C4EDFF8C890D3461FE0DBF80C3064
:10144000DC6804F1040804F11800FEF73BFF404695
:10145000FEF738FFE06A336807FA00F200EB80001D
:101460001343414609EB80003360FEF705FF1E4B36
:10147000E26A1B68DB6A9A4228BF2F60DAF8003004
:101480000127002BDAD13CB1184B1B681B6803BB4A
:10149000174B4FF0FF321A60164E34683CB10127EB
:1014A000FFF706FF00B12F60013CF9D134602B68D3
:1014B0004BB1114B4FF080521A60BFF34F8FBFF307
:1014C0006F8F012400E00024FEF78EFF2046BDE868
:1014D000F88FFFF7CFFCDFE7BC2C0120802D012027
:1014E000B02D0120AC2D0120542D0120B42C012061
:1014F000582D0120D42C012004ED00E0682D01209E
:10150000D82C012008B558B10F4B196889B14FF09C
:10151000500383F31188BFF36F8FBFF34F8FFEE744
:101520000A4B4FF080521A60BFF34F8FBFF36F8F9B
:1015300008BD1A6801321A60FFF7A8FCFFF75CFFCC
:101540000028EDD008BD00BFBC2C012004ED00E058
:101550001F4E204D204CDFF88880DFF888902DE961
:101560008848B24606E02368376801332360FFF7F6
:1015700043FF7FB92B68002BF5D1D9F80030012B40
:10158000F8D9164B4FF080521A60BFF34F8FBFF35C
:101590006F8FEFE7FEF706FFDAF80C30D3F80CB0E8
:1015A0000BF10400FEF78EFED8F80030094A013B2B
:1015B000C8F80030074B1B68013B1360FEF714FFAF
:1015C000DBF83000FFF7E6F85846FFF7E3F8D1E71D
:1015D0003C2D0120502D0120BC2C012004ED00E009
:1015E000802D0120D82C0120164B1B682BBB1649DF
:1015F000164A0B601368B3FA83F3DBB2C3F11F031F
:1016000003EB83039B001248C258C11842B94FF044
:10161000500383F31188BFF36F8FBFF34F8FFEE743
:101620004A68083352684A6003449A4204BF5268C9
:101630004A60084BD2681A607047034B01221A6057
:10164000704700BFBC2C0120B02D0120AC2D012023
:10165000D82C0120542D012060B110B50A4B0C4646
:1016600019681831FEF714FE20460121BDE810402C
:10167000FFF70CBC4FF0500383F31188BFF36F8F5B
:10168000BFF34F8FFEE700BF542D012038B588B15E
:101690000D4B0D46196814461831FEF7EDFD002C70
:1016A00008BF2846214618BF4FF0FF30BDE838403C
:1016B000FFF7ECBB4FF0500383F31188BFF36F8F3C
:1016C000BFF34F8FFEE700BF542D0120F8B5C3686C
:1016D000DC682CB304F118052846FEF7F3FD174B20
:1016E0001B6833BB271D164E3846FEF7EBFDE36A39
:1016F0003268144801259D4003EB83032A43394691
:1017000000EB83003260FEF7B7FD0F4BE26A1B6807
:10171000DB6A9A4283BF0D4B012018600020F8BDA0
:101720004FF0500383F31188BFF36F8FBFF34F8FD8
:10173000FEE729460648FEF79FFDE6E7BC2C0120A0
:10174000AC2D0120D82C0120542D0120B02D0120DA
:10175000682D012008B530B1044A054B12681B689A
:1017600080E80C0008BDFFF7D9FB00BFB02C0120BA
:10177000602D0120F8B570B321B30D460446FEF785
:1017800011FE2A681B4E531C31682DD01A48276859
:1017900003689F42636801D099420ED2CF1ABA42C1
:1017A0000BD9521A1344016832682B60002584E873
:1017B0000600FEF719FE2846F8BD0125FEF714FEC7
:1017C0002846F8BD4FF0500383F31188BFF36F8FA5
:1017D000BFF34F8FFEE74FF0500383F31188BFF341
:1017E0006F8FBFF34F8FFEE70025FEF7FDFD284604
:1017F000F8BD00BF602D0120B02C0120014B01225B
:101800001A607047B02D0120054B1B6833B1054BA2
:101810001B68002B0CBF022000207047012070477E
:10182000B82C0120BC2C0120002842D02DE9F04129
:10183000214CC36A2268D26A934212D28269002A7A
:1018400004DB2268D26AC2F1050282611B4D426943
:1018500003EB830305EB83039A4204D02368DB6A1E
:10186000C362BDE8F08100F1040807464046FEF778
:1018700029FDF8B9FB6A124E03EB830255F82220CA
:1018800032B93268012101FA03F322EA030333601B
:1018900023683268D86AF86201238340134300EB5F
:1018A00080003360414605EB8000BDE8F041FEF763
:1018B000E3BC7047024EEBE7542D0120D82C0120E9
:1018C000AC2D012008B3F8B5284B1B68984208D00E
:1018D0004FF0500383F31188BFF36F8FBFF34F8F27
:1018E000FEE7C36C43B94FF0500383F31188BFF395
:1018F0006F8FBFF34F8FFEE7C16A826C013B91424D
:10190000C36400D01BB10020F8BD00207047071D44
:1019100004463846FEF7D6FCB8B11548154AA36C04
:101920001668E362012505FA03FCC3F1050E03EB1B
:1019300083034CEA060600EB83003946C4F818E03E
:101940001660FEF799FC2846F8BDE56A0848094A82
:1019500005EB850350F82330002BE0D113680121FB
:1019600001FA05F523EA05031360D8E7542D012099
:10197000D82C0120AC2D0120044B1A681AB119682B
:10198000CA6C0132CA641868704700BF542D012028
:10199000F8B5104CFEF706FD25681DB1BDE8F8400E
:1019A000FEF722BD0C4F0D4E3846FEF755FC304673
:1019B000FEF752FC0A4A0B4B17600C212A460A20FC
:1019C0001E60FEF7FFFF20600028E7D00649FFF702
:1019D00017FAE3E7E42D0120BC2D0120D02D0120D2
:1019E000B42D0120E82D0120F8330008914208B5FC
:1019F0000061416005D88169D21A8A420CD3012066
:101A000008BD9A4201D29942F9D2074B011D1868CC
:101A1000FEF73EFC002008BD044B011D1868FEF7D0
:101A200037FC002008BD00BFB42D0120E82D0120A7
:101A300000B583B0FFF7ACFF0D4B1B6873B10D4BC6
:101A40000193022300934FF4827200230A490B484A
:101A5000FFF76EFA10B103B05DF804FB4FF05003CE
:101A600083F31188BFF36F8FBFF34F8FFEE700BF83
:101A7000E42D0120EC2D012000340008751B000826
:101A800030B370B5174D0446286884B080B116464F
:101A900005291A460191029603940BDCFFF7B4FE68
:101AA00002280DD0002328681A4601A9FEF7B0FFCE
:101AB00004B070BD002301A9FFF76AF804B070BD3F
:101AC0002868089A002301A9FEF7A2FF04B070BDA0
:101AD0004FF0500383F31188BFF36F8FBFF34F8F25
:101AE000FEE700BFE42D01202DE9F0471F4D82B035
:101AF0004FF00008AA460DE0DB68DC681F6804F1BF
:101B000004094846FEF7DEFB636A20469847E3690E
:101B1000012B0BD02B6815491A68002AECD1144A06
:101B200010680860136002B0BDE8F087A6693E4403
:101B30000023B7423A461946204607D26660246120
:101B4000DAF800004946FEF7A3FBE3E7CDF8008092
:101B5000FFF796FF0028DDD14FF0500383F3118883
:101B6000BFF36F8FBFF34F8FFEE700BFB42D01208F
:101B7000E82D01202DE9F04F6B4DDFF8B8816B4C5B
:101B8000DFF8B4B189B0A946D8F800301E68002E3D
:101B900047D0DB681E68FFF77DFBFFF783FB2B68F0
:101BA000984207464ED38642C9F8000055D9002214
:101BB000F11B2068FFF73AF9FFF71EFC38B95C4AC1
:101BC0004FF080531360BFF34F8FBFF36F8F012728
:101BD00000231A4605A92068FFF73EF80028D3D055
:101BE000059B002BF4DB079E736913B1301DFEF7D4
:101BF00069FBFFF757FB2B689842024628D3059BE9
:101C00002A60092BE4D807FA03F313F4047A79D194
:101C100013F0C70F51D19B06DAD53046FEF7BAFD57
:101C2000D6E7FFF737FBFFF73DFB2B6883420746FC
:101C300008D8DBF80030C9F800701A68B2FA82F2EE
:101C40005209B5E7FFF750FF2F60FFF7D5FBBEE75E
:101C50000390FFF749FF039AD1E7FFF7CDFB354B20
:101C60001B68DB68D3F80CA00AF10400FEF72AFB1E
:101C7000DAF81C30012B04D0DAF8243050469847AB
:101C8000A5E7DAF818103A46314433465046FFF7D4
:101C9000ADFE0028F0D0002332460093194650468E
:101CA000FFF7EEFE0028E7D14FF0500383F31188D1
:101CB000BFF36F8FBFF34F8FFEE7069BB1693046CE
:101CC0001944FFF793FE002882D0736A3046984784
:101CD000F369012B7FF47CAFB369069ACDF800A0BD
:101CE0001A44304653465146FFF7CAFE00287FF497
:101CF0006FAF4FF0500383F31188BFF36F8FBFF3C3
:101D00004F8FFEE70699B16129B111443046134661
:101D1000FFF76CFE5CE74FF0500383F31188BFF3CD
:101D20006F8FBFF34F8FFEE7B82D0120E42D012008
:101D300004ED00E0B42D0120E82D012008B54FF49A
:101D40000055064C2E46268341F28830FFF7DAFB19
:101D5000658341F28830FFF7D5FBF4E700100240BD
:101D600008B54FF48045064C2E4626834FF4FA60A2
:101D7000FFF7C8FB65834FF4FA60FFF7C3FBF4E796
:101D80000010024008B50B4C9FED0B8AD4ED007A91
:101D900077EE887A17EE900AC4ED007A00F0E4FA44
:101DA00002460B46054800F081FB4FF47A70FFF7BE
:101DB000A9FBEBE7F02D01200AD7233C08340008EB
:101DC00000B583B0FEF7EEFA134B019302230093A4
:101DD0008022002311491248FFF7AAF8114B019302
:101DE00003230093802200230F491048FFF7A0F837
:101DF0000F4B01930423009380220E490E480023C9
:101E0000FFF796F80D4B1868FFF784F903B05DF8FB
:101E100004EBFEF7E9BA00BF402E01201C34000895
:101E20003D1D00084C2E012028340008611D0008CB
:101E3000442E012034340008851D0008482E01205E
:101E400070B5104C104A236B104D1149114843F0E6
:101E500010032363136823F070531360136882B078
:101E60004FF4604643F0A843012413601683002317
:101E700080228DE83000FFF75BF8FFF7CBF90020F8
:101E800002B070BD0038024000100240482E012010
:101E900040340008C11D00080649074A074B9A4212
:101EA000BEBF51F8040B42F8040BF8E70448804722
:101EB00004480047F43400080000002074000020AB
:101EC000A11F0008E50100083349344A002301E05E
:101ED00041F8043B9142FBD3FFF7B2FFFEE7FEE778
:101EE000FEE7FEE7FEE7FEE7FEE7FEE7FEE7FEE7CA
:101EF000FEE7FEE7FEE7FEE7FEE7FEE7FEE7FEE7BA
:101F0000FEE7FEE7FEE7FEE7FEE7FEE7FEE7FEE7A9
:101F1000FEE7FEE7FEE7FEE7FEE7FEE7FEE7FEE799
:101F2000FEE7FEE7FEE7FEE7FEE7FEE7FEE7FEE789
:101F3000FEE7FEE7FEE7FEE7FEE7FEE7FEE7FEE779
:101F4000FEE7FEE7FEE7FEE7FEE7FEE7FEE7FEE769
:101F5000FEE7FEE7FEE7FEE7FEE7FEE7FEE7FEE759
:101F6000FEE7FEE7FEE7FEE7FEE7FEE7FEE7FEE749
:101F7000FEE7FEE7FEE7FEE7FEE7FEE7FEE7FEE739
:101F8000FEE7FEE7FEE7FEE7FEE7FEE7FEE7FEE729
:101F9000FEE7FEE7FEE7000074000020542E01205B
:101FA00039493A4BD1F88820394842F47002C1F8D7
:101FB00088201A68002142F001021A6099601A68AC
:101FC00022F0847222F480321A6058601A6882B05B
:101FD00022F480221A60D960009101911A6842F4BB
:101FE00080321A601A4603E0009BB3F5C06F09D037
:101FF000136803F400330193009B01330093019BAA
:10200000002BF1D0214B1B6813F4003318BF0123C0
:102010000193019B012B05D01B4B4FF000629A608E
:1020200002B07047194B1B491A6C1B4842F0805292
:102030001A640A6842F480420A609A689A609A6850
:1020400042F400429A609A6842F4A0529A60586042
:102050001A6842F080721A601A4611680B4B8901A7
:10206000FBD50E4A40F2057111609A6822F0030216
:102070009A609A6842F002029A601A46936803F0E6
:102080000C03082BFAD1C7E700ED00E0003802404E
:10209000103000240070004019544007003C0240FA
:1020A00081F0004102E000BF83F0004330B54FEA09
:1020B00041044FEA430594EA050F08BF90EA020F76
:1020C0001FBF54EA000C55EA020C7FEA645C7FEA09
:1020D000655C00F0E2804FEA5454D4EB5555B8BF2C
:1020E0006D420CDD2C4480EA020281EA030382EA9D
:1020F000000083EA010180EA020281EA0303362D2F
:1021000088BF30BD11F0004F4FEA01314FF4801C01
:102110004CEA113102D0404261EB410113F0004F13
:102120004FEA03334CEA133302D0524263EB4303CA
:1021300094EA050F00F0A780A4F10104D5F1200E68
:102140000DDB02FA0EFC22FA05F2801841F10001C3
:1021500003FA0EF2801843FA05F359410EE0A5F197
:1021600020050EF1200E012A03FA0EFC28BF4CF0C8
:10217000020C43FA05F3C01851EBE37101F000457E
:1021800007D54FF0000EDCF1000C7EEB00006EEB8B
:102190000101B1F5801F1BD3B1F5001F0CD3490815
:1021A0005FEA30004FEA3C0C04F101044FEA44526C
:1021B00012F5800F80F09A80BCF1004F08BF5FEAF3
:1021C000500C50F1000041EB045141EA050130BDD3
:1021D0005FEA4C0C404141EB010111F4801FA4F176
:1021E0000104E9D191F0000F04BF01460020B1FACB
:1021F00081F308BF2033A3F10B03B3F120020CDA03
:102200000C3208DD02F1140CC2F10C0201FA0CF0E0
:1022100021FA02F10CE002F11402D8BFC2F1200C45
:1022200001FA02F120FA0CFCDCBF41EA0C019040FB
:10223000E41AA2BF01EB0451294330BD6FEA040444
:102240001F3C1CDA0C340EDC04F11404C4F120022F
:1022500020FA04F001FA02F340EA030021FA04F341
:1022600045EA030130BDC4F10C04C4F1200220FA98
:1022700002F001FA04F340EA0300294630BD21FAD6
:1022800004F0294630BD94F0000F83F4801306BF9C
:1022900081F480110134013D4EE77FEA645C18BF90
:1022A0007FEA655C29D094EA050F08BF90EA020F27
:1022B00005D054EA000C04BF1946104630BD91EA1F
:1022C000030F1EBF0021002030BD5FEA545C05D122
:1022D0004000494128BF41F0004130BD14F5800461
:1022E0003CBF01F5801130BD01F0004545F0FE41D5
:1022F00041F470014FF0000030BD7FEA645C1ABF0A
:10230000194610467FEA655C1CBF0B46024650EA40
:10231000013406BF52EA033591EA030F41F400216C
:1023200030BD00BF90F0000F04BF0021704730B5F2
:102330004FF4806404F132044FF000054FF00001C7
:1023400050E700BF90F0000F04BF0021704730B588
:102350004FF4806404F1320410F0004548BF40425D
:102360004FF000013EE700BF42004FEAE2014FEAB2
:1023700031014FEA02701FBF12F07F4393F07F4F8D
:1023800081F06051704792F0000F14BF93F07F4FBF
:10239000704730B54FF4607401F0004521F0004102
:1023A00020E700BF50EA010208BF704730B54FF088
:1023B00000050AE050EA010208BF704730B511F08D
:1023C000004502D5404261EB41014FF4806404F1C5
:1023D00032045FEA915C3FF4DCAE4FF003025FEA47
:1023E000DC0C18BF03325FEADC0C18BF033202EBCF
:1023F000DC02C2F1200300FA03FC20FA02F001FA29
:1024000003FE40EA0E0021FA02F11444C1E600BFC7
:1024100008B5074B044613B10021AFF30080054B0C
:102420001868836A03B19847204600F0D3FF00BFC5
:10243000000000005034000870B50E4B0E4CE41A3A
:10244000A41000251E46A54204D056F82530984712
:102450000135F8E700F0C0FF084C094BE41AA4105E
:1024600000251E46A54204D056F825309847013570
:10247000F8E770BD6C0000206C00002070000020A8
:102480006C00002010B5431E0A44914204D011F89C
:10249000014B03F8014FF8E710BD02440346934295
:1024A00002D003F8011BFAE7704700000FB40A4B93
:1024B00013B51C6824B1A36913B9204600F04EF887
:1024C00005AB049AA1680193204600F059F902B0C7
:1024D000BDE8104004B0704768000020014900F0DA
:1024E000A9B800BF71300008002310B5044603608E
:1024F0004360836081814366C2810361436183617C
:10250000194608225C30FFF7C8FF054B6362054B94
:10251000A362054BE362054B2462236310BD00BF39
:10252000112D0008332D00086B2D00088F2D000899
:1025300070B568234D1E5D430E4605F1740100F031
:1025400097F8044640B1002180E842000C30A060BA
:1025500005F16802FFF7A1FF204670BD836910B541
:10256000044633BB8364C3640365124B124A1B6881
:102570008262984204BF0123836100F01FF860600B
:10258000204600F01BF8A060204600F017F800225B
:10259000E06004216068FFF7A7FF01220921A0681D
:1025A000FFF7A2FF02221221E068FFF79DFF01233F
:1025B000A36110BD50340008DD240008F8B51C4BA1
:1025C0001E68B369074613B93046FFF7C7FF4836A0
:1025D000B4687368013B04D4B4F90C507DB168341D
:1025E000F8E733680BB13668F2E704213846FFF7A5
:1025F0009FFF30600028F6D10C233B60F8BD4FF6FA
:10260000FF73E3810123A38165662560A560656092
:1026100025616561A5610822294604F15C00FFF788
:102620003CFF6563A563A564E5642046F8BD00BF73
:10263000503400082DE9F8438046894600F14804EB
:10264000002694B1A5686768013F0CD4AB89012BC3
:1026500007D9B5F90E30013303D029464046C847A3
:1026600006436835F0E72468EBE73046BDE8F883B9
:1026700070B5CD1C25F0030508350C2D38BF0C2591
:10268000002D064601DBA94202D90C23336046E047
:1026900000F0DEFD234B1C681A462146A1B10B68F1
:1026A0005B1B0ED40B2B03D90B60CC18CD501EE056
:1026B0008C420DBF63684B686360136018BF0C46A3
:1026C00015E00C464968E9E7174C23681BB930460A
:1026D00000F00EFB20602946304600F009FB431C49
:1026E00018D0C41C24F00304A0420DD1256030464C
:1026F00000F0AFFD04F10B00231D20F00700C31A0A
:102700000ED05A42E25070BD211A304600F0F0FA65
:102710000130EBD10C233360304600F09AFD0020ED
:1027200070BD00BFF82D0120F42D01209368013BFE
:10273000002B10B4936009DA9469A34202DBCBB298
:102740000A2B03D15DF8044B00F026BB1368581C1C
:1027500010601970C8B25DF8044B7047F8B50646B2
:102760000F461446D518AC4208D03A4614F8011B5F
:102770003046FFF7DBFF431CF5D100E00020F8BD39
:102780002DE9F04F9DB00C4617460393064618B14D
:1027900083690BB9FFF7E2FE7F4B9C4201D174685D
:1027A00008E07E4B9C4201D1B46803E07C4B9C4224
:1027B00008BFF468A38918070CD5236953B1002317
:1027C000099320238DF8293030238DF82A30DFF843
:1027D000D4B144E02146304600F044FB0028EED05E
:1027E0004FF0FF30D5E0039A111D12680391002AC3
:1027F00080F28C80524243F002000792049098F8D5
:1028000000302E2B00F08480032298F800106548D9
:1028100000F0CEFC48B14023CBEB000003FA00F0FF
:10282000049B1843049008F1010898F800105E48D2
:102830008DF82810062208F1010700F0B9FC0028E5
:1028400000F09580594B002B40F08880039B0733A4
:1028500023F0070308330393099B53440993B846B5
:10286000454615F8013B1BB9B8EB07090FD003E04B
:10287000252BF9D0A846F3E74B463A462146304689
:10288000FFF76CFF01307FD0099B4B44099398F808
:102890000030002B78D000234FF0FF3204930793D1
:1028A000059206938DF853301A9301270522297853
:1028B0003F4800F07DFC05F10108049B38B13C4A1B
:1028C000801A07FA00F0184304904546EEE7D9064F
:1028D00044BF20228DF853201A0744BF2B228DF8C5
:1028E00053202A782A2A3FF47EAF079A00210A2033
:1028F000A846013598F80030303B092B03D800FB7F
:1029000002320121F4E700293FF479AF079276E71C
:1029100098F801302A2B0BD1039B1A1D1B680392D8
:10292000002BB8BF4FF0FF3308F1020805936BE7A7
:102930000023059308F1010019460A25804601305D
:1029400098F80020303A092A03D805FB0121012319
:10295000F4E7002B3FF458AF059155E703AB009324
:102960002246144B04A93046AFF3008007E003ABC6
:10297000009322460F4B04A9304600F093F8B0F1C3
:10298000FF3F82467FF468AFA3895B063FF528AF1F
:1029900009981DB0BDE8F08F543400087434000865
:1029A00094340008BA340008BE3400080000000067
:1029B000B43400085D2700082DE9F04791461F4612
:1029C0000A698B68DDF820809342B8BF1346C9F8C6
:1029D000003091F8432006460C4612B10133C9F885
:1029E00000302368990642BFD9F800300233C9F895
:1029F0000030256815F0060510D104F1190A07E02A
:102A00000123524639463046C04701301AD00135BD
:102A1000E368D9F800209B1A9D42F1DB94F843301B
:102A20002268003318BF012392060FD5E1185A1C03
:102A3000302081F84300224494F8451082F8431076
:102A4000023303E04FF0FF30BDE8F08704F14302AA
:102A500039463046C0470130F4D02268D9F80050DA
:102A6000E36802F00602042A08BF5D1B2269A3681E
:102A70000CBF25EAE57500259342C4BF9B1AED18EB
:102A80004FF000091A344D4509D00123224639463A
:102A90003046C0470130D5D009F10109F3E70020E5
:102AA000BDE8F0872DE9F04317460A7E85B06E2A0F
:102AB000984606460C460C9B01F1430E00F0AE8092
:102AC00011D8632A22D009D8002A00F0BB80582AE6
:102AD00040F0CA8081F84520834955E0642A1ED021
:102AE000692A1CD0C0E0732A00F0B08009D86F2A90
:102AF0002ED0702A40F0B8800A6842F020020A60A6
:102B00003EE0752A24D0782A3AD0ADE01A6801F167
:102B10004205111D1960136884F84230A8E021684D
:102B20001A6811F0800F02D0111D196008E011F031
:102B3000400F02F10401196002D0B2F9003000E048
:102B40001368002B3CDA2D225B4284F8432037E0E7
:102B500021681A6811F0800F02D0111D196007E07A
:102B600011F0400F02F10401196001D0138800E058
:102B70001368227E5C496F2A14BF0A2208221BE0D8
:102B800078225A4984F845202268186812F0800F8C
:102B900000F104051D6003D1550601D5038800E04E
:102BA0000368D00744BF42F0200222601BB92268AC
:102BB00022F0200222601022002084F8430001E06D
:102BC00049490A226568A560002D08DB206820F0CD
:102BD000040020602BB9002D7DD175460CE0002B40
:102BE00079D07546B3FBF2F002FB1033CB5C05F8ED
:102BF000013D03460028F5D1082A0BD12368DA07E6
:102C000008D5236962689A42DEBF302305F8013C8B
:102C100005F1FF35C5EB0E0323612EE008681A6845
:102C2000496910F0800F03D0101D1860136808E088
:102C300010F0400F02F104001860136801D01980F1
:102C400000E0196000232361754616E01A68111D23
:102C50001960156862680021284600F0A9FA08B1D9
:102C6000401B6060636804E004F1420584F8422080
:102C700001232361002384F84330CDF800803B46D4
:102C800003AA21463046FFF797FE013002D14FF0EC
:102C9000FF3026E023692A4639463046C0470130D6
:102CA000F5D023689B0710D5002504F1190907E02A
:102CB00001234A4639463046C0470130E7D0013546
:102CC000E368039A9B1A9D42F2DBE068039B9842FB
:102CD000B8BF184605E00B7884F8423004F142058D
:102CE0008AE705B0BDE8F083C5340008D634000893
:102CF00038B5064C002305460846236000F054FB17
:102D0000431C02D1236803B12B6038BD502E012033
:102D100010B50C46B1F90E1000F0EAFA0028ABBF6E
:102D2000636DA3891B1823F48053ACBF6365A38133
:102D300010BD2DE9F0411F468B89DB0505460C4689
:102D4000164605D502230022B1F90E1000F0BAF99B
:102D5000A389B4F90E1023F48053A38132463B4675
:102D60002846BDE8F04100F06BB810B50C46B1F94B
:102D70000E1000F0A7F9431CA38915BF606523F46A
:102D8000805343F48053A38118BFA38110BDB1F9D0
:102D90000E1000F0D5B80000F8B50F4614460646F0
:102DA00018B183690BB9FFF7D9FB224B9C4201D1C3
:102DB000746808E0204B9C4201D1B46803E01F4BCB
:102DC0009C4208BFF468A369A360A3891A0709D5C8
:102DD00023693BB123682069181A63699842FDB2E0
:102DE0000FDB08E02146304600F03CF80028F1D027
:102DF0004FF0FF30F8BD2146304600F039F9002889
:102E0000F6D1A368013BA36023685A1C22601F709F
:102E10006269431C934204D0A389DB0707D50A2DBE
:102E200005D12146304600F023F90028E0D128469C
:102E3000F8BD00BF5434000874340008943400080E
:102E400038B5074C054608461146002222601A464E
:102E500000F0B8FA431C02D1236803B12B6038BDDF
:102E6000502E0120324B70B51D6806460C4625B128
:102E7000AB6913B92846FFF771FB2E4B9C4201D179
:102E80006C6808E02C4B9C4201D1AC6803E02B4BF2
:102E90009C4208BFEC68B4F90C309AB215071DD4F7
:102EA000D00602D4092232603AE0510712D5616B94
:102EB00041B104F14403994202D0304600F0CAF90E
:102EC00000236363A38923F02403A38100236360A9
:102ED00023692360A38943F00803A38123694BB9C5
:102EE000A38903F42073B3F5007F03D02146304655
:102EF00000F01EF9A28912F0010305D00023A3609F
:102F000063695B42A36103E0920758BF6369A360F2
:102F100023695BB9B4F90C3003F0800080B230B1A2
:102F200043F04003A3814FF0FF3070BD002070BD1F
:102F300068000020543400087434000894340008F9
:102F400038B5064C002305460846236000F004FA15
:102F5000431C02D1236803B12B6038BD502E0120E1
:102F60008A892DE9F041054610070C4659D44B6873
:102F7000002B02DC0B6C002B17DDE66AAEB102F40D
:102F80008052002392B22F682B600AB1606D15E069
:102F9000216A01232846B047411C0FD12B686BB131
:102FA0001D2B01D0162B03D12F600020BDE8F0812E
:102FB000A38943F04003A381BDE8F081A3895A07A8
:102FC00005D56368C01A636B0BB1236CC01A00236C
:102FD0000246E66A216A2846B047431CA38906D107
:102FE00029681D293AD8214ACA40D60736D5002279
:102FF0006260D9042269226004D5421C01D12B6889
:1030000003B96065616B2F600029CED004F14403E1
:10301000994202D0284600F01DF900206063BDE807
:10302000F0810F69002FC0D093070E6808BF4B696D
:103030000F6018BF0023C7EB06088B6002E007444F
:10304000C0EB0808B8F1000FAFDD43463A46216AED
:10305000A66A2846B0470028F1DCA38943F0400364
:10306000A3814FF0FF30BDE8F08100BF0100402098
:1030700038B50B6905460C46DBB118B183690BB94D
:10308000FFF76CFA0C4B9C4201D16C6808E00B4BCB
:103090009C4201D1AC6803E0094B9C4208BFEC683C
:1030A000B4F90C302BB121462846BDE83840FFF773
:1030B00057BF002038BD00BF5434000874340008E6
:1030C0009434000838B5074C0546084611460022DE
:1030D00022601A4600F058F9431C02D1236803B15C
:1030E0002B6038BD502E012070B50E46B1F90E1080
:1030F000002990B014461D4606DA00232B60B389E0
:103100001A060ED540230EE001AA00F003F90028AC
:10311000F3DB029A02F47042A2F500535A425A417C
:103120002A604FF480630020236010B070BD00005F
:103130008B8973B59E0705460C4610D401AB6A46D1
:10314000FFF7D2FF009906462846FFF791FA68B9C3
:10315000B4F90C309A0522D443F00203A38104F1A0
:103160004703236023610123636118E00D4BAB62C9
:10317000A389206043F08003A381009B6361019BCE
:1031800020614BB1B4F90E10284600F0D5F818B103
:10319000A38943F00103A381A0893043A08102B039
:1031A00070BD00BFDD24000800000000000000002A
:1031B00001F0FF01102A2BDB10F0070F08D010F8E8
:1031C000013B013A8B422DD010F0070F42B3F6D1EC
:1031D000F0B441EA012141EA014122F007047FF005
:1031E00000070023F0E80256083C85EA010586EA5C
:1031F000010685FA47F5A3FA87F586FA47F6A5FA98
:1032000087F68EB9EED1F0BC01F0FF0102F00702A3
:1032100032B110F8013B013A83EA010313B1F8D14E
:103220000020704701387047002D06BF354603382F
:10323000073815F0010F07D1013015F4807F02BF68
:10324000013015F4C03F0130F0BC0138704700BFB9
:103250007047704738B50546002946D051F8043C00
:103260000C1F002BB8BFE418FFF7F2FF1F4A1368CA
:10327000114613B96360146032E0A3420ED922688C
:10328000A018834204BF18685B68636004BF12180B
:1032900022600C6024E0A24203D813465A68002A38
:1032A000F9D118681918A1420BD1216801445818A6
:1032B0008242196014D1106852685A600144196042
:1032C0000EE002D90C232B600AE0216860188242CC
:1032D00004BF10685268626004BF091821605C6016
:1032E0002846BDE83840FFF7B4BF38BDF82D0120AF
:1032F00038B5074C054608461146002222601A469A
:1033000000F04AF8431C02D1236803B12B6038BD9A
:10331000502E012038B5074C0023054608461146BB
:10332000236000F021F8431C02D1236803B12B6015
:1033300038BD00BF502E012038B5064C002305468D
:103340000846236000F018F8431C02D1236803B13B
:103350002B6038BD502E0120024B58221A604FF0CE
:10336000FF307047502E0120024B58221A604FF058
:10337000FF307047502E0120024B58221A60002067
:10338000704700BF502E0120024B58221A604FF0A8
:10339000FF307047502E0120024B58221A604FF028
:1033A000FF307047502E0120044B1968024609B9BE
:1033B00003491960186802441A607047FC2D012007
:1033C000582E0120024B58221A604FF0FF307047F0
:1033D000502E0120FEE70000F8B500BFF8BC08BC85
:1033E0009E467047F8B500BFF8BC08BC9E467047C3
:1033F00049444C4500000000546D7251000000002B
:10340000546D722053766300666C6F61745F6E75E5
:103410006D203D20252E34660A0000006C65643066
:103420005F7461736B0000006C6564315F7461737D
:103430006B000000666C6F61745F7461736B0000F9
:1034400073746172745F7461736B000043000000F9
:103450000800002000000000000000000000000044
:10346000000000000000000000000000000000005C
:10347000000000000000000000000000000000004C
:10348000000000000000000000000000000000003C
:10349000000000000000000000000000000000002C
:1034A000000000000000000000000000000000001C
:1034B00000000000232D302B2000686C4C00656656
:1034C0006745464700303132333435363738394175
:1034D000424344454600303132333435363738398B
:0C34E0006162636465660000000000008B
:0834EC00F8CCFF7F0100000095
:1034F400AAAAAAAA007A030A000000005434000809
:103504007434000894340008000000000000000037
:1035140000000000000000004C340008000000001F
:103524000000000000000000000000000000000097
:103534000000000000000000000000000000000087
:103544000000000000000000000000000000000077
:10355400000000000000000008000020AD01000889
:0435640089010008D1
:0400000508000000EF
:00000001FF
